{
  "_format": "hh3-artifact-1",
  "contractName": "AgentRegistry",
  "sourceName": "contracts/AgentRegistry.sol",
  "abi": [
    {
      "inputs": [],
      "stateMutability": "nonpayable",
      "type": "constructor"
    },
    {
      "inputs": [
        {
          "internalType": "uint256",
          "name": "agentId",
          "type": "uint256"
        }
      ],
      "name": "AgentNotFound",
      "type": "error"
    },
    {
      "inputs": [],
      "name": "ERC721EnumerableForbiddenBatchMint",
      "type": "error"
    },
    {
      "inputs": [
        {
          "internalType": "address",
          "name": "sender",
          "type": "address"
        },
        {
          "internalType": "uint256",
          "name": "tokenId",
          "type": "uint256"
        },
        {
          "internalType": "address",
          "name": "owner",
          "type": "address"
        }
      ],
      "name": "ERC721IncorrectOwner",
      "type": "error"
    },
    {
      "inputs": [
        {
          "internalType": "address",
          "name": "operator",
          "type": "address"
        },
        {
          "internalType": "uint256",
          "name": "tokenId",
          "type": "uint256"
        }
      ],
      "name": "ERC721InsufficientApproval",
      "type": "error"
    },
    {
      "inputs": [
        {
          "internalType": "address",
          "name": "approver",
          "type": "address"
        }
      ],
      "name": "ERC721InvalidApprover",
      "type": "error"
    },
    {
      "inputs": [
        {
          "internalType": "address",
          "name": "operator",
          "type": "address"
        }
      ],
      "name": "ERC721InvalidOperator",
      "type": "error"
    },
    {
      "inputs": [
        {
          "internalType": "address",
          "name": "owner",
          "type": "address"
        }
      ],
      "name": "ERC721InvalidOwner",
      "type": "error"
    },
    {
      "inputs": [
        {
          "internalType": "address",
          "name": "receiver",
          "type": "address"
        }
      ],
      "name": "ERC721InvalidReceiver",
      "type": "error"
    },
    {
      "inputs": [
        {
          "internalType": "address",
          "name": "sender",
          "type": "address"
        }
      ],
      "name": "ERC721InvalidSender",
      "type": "error"
    },
    {
      "inputs": [
        {
          "internalType": "uint256",
          "name": "tokenId",
          "type": "uint256"
        }
      ],
      "name": "ERC721NonexistentToken",
      "type": "error"
    },
    {
      "inputs": [
        {
          "internalType": "address",
          "name": "owner",
          "type": "address"
        },
        {
          "internalType": "uint256",
          "name": "index",
          "type": "uint256"
        }
      ],
      "name": "ERC721OutOfBoundsIndex",
      "type": "error"
    },
    {
      "inputs": [
        {
          "internalType": "uint256",
          "name": "agentId",
          "type": "uint256"
        },
        {
          "internalType": "address",
          "name": "caller",
          "type": "address"
        }
      ],
      "name": "NotAgentOwner",
      "type": "error"
    },
    {
      "anonymous": false,
      "inputs": [
        {
          "indexed": true,
          "internalType": "uint256",
          "name": "agentId",
          "type": "uint256"
        },
        {
          "indexed": true,
          "internalType": "address",
          "name": "owner",
          "type": "address"
        }
      ],
      "name": "AgentDeleted",
      "type": "event"
    },
    {
      "anonymous": false,
      "inputs": [
        {
          "indexed": true,
          "internalType": "uint256",
          "name": "agentId",
          "type": "uint256"
        },
        {
          "indexed": true,
          "internalType": "address",
          "name": "owner",
          "type": "address"
        },
        {
          "indexed": false,
          "internalType": "string",
          "name": "metadataUri",
          "type": "string"
        },
        {
          "indexed": false,
          "internalType": "string",
          "name": "containerImageUri",
          "type": "string"
        }
      ],
      "name": "AgentSet",
      "type": "event"
    },
    {
      "anonymous": false,
      "inputs": [
        {
          "indexed": true,
          "internalType": "address",
          "name": "owner",
          "type": "address"
        },
        {
          "indexed": true,
          "internalType": "address",
          "name": "approved",
          "type": "address"
        },
        {
          "indexed": true,
          "internalType": "uint256",
          "name": "tokenId",
          "type": "uint256"
        }
      ],
      "name": "Approval",
      "type": "event"
    },
    {
      "anonymous": false,
      "inputs": [
        {
          "indexed": true,
          "internalType": "address",
          "name": "owner",
          "type": "address"
        },
        {
          "indexed": true,
          "internalType": "address",
          "name": "operator",
          "type": "address"
        },
        {
          "indexed": false,
          "internalType": "bool",
          "name": "approved",
          "type": "bool"
        }
      ],
      "name": "ApprovalForAll",
      "type": "event"
    },
    {
      "anonymous": false,
      "inputs": [
        {
          "indexed": true,
          "internalType": "address",
          "name": "from",
          "type": "address"
        },
        {
          "indexed": true,
          "internalType": "address",
          "name": "to",
          "type": "address"
        },
        {
          "indexed": true,
          "internalType": "uint256",
          "name": "tokenId",
          "type": "uint256"
        }
      ],
      "name": "Transfer",
      "type": "event"
    },
    {
      "inputs": [
        {
          "internalType": "uint256",
          "name": "agentId",
          "type": "uint256"
        }
      ],
      "name": "agentExists",
      "outputs": [
        {
          "internalType": "bool",
          "name": "",
          "type": "bool"
        }
      ],
      "stateMutability": "view",
      "type": "function"
    },
    {
      "inputs": [
        {
          "internalType": "address",
          "name": "to",
          "type": "address"
        },
        {
          "internalType": "uint256",
          "name": "tokenId",
          "type": "uint256"
        }
      ],
      "name": "approve",
      "outputs": [],
      "stateMutability": "nonpayable",
      "type": "function"
    },
    {
      "inputs": [
        {
          "internalType": "address",
          "name": "owner",
          "type": "address"
        }
      ],
      "name": "balanceOf",
      "outputs": [
        {
          "internalType": "uint256",
          "name": "",
          "type": "uint256"
        }
      ],
      "stateMutability": "view",
      "type": "function"
    },
    {
      "inputs": [
        {
          "internalType": "uint256",
          "name": "agentId",
          "type": "uint256"
        }
      ],
      "name": "deleteAgent",
      "outputs": [],
      "stateMutability": "nonpayable",
      "type": "function"
    },
    {
      "inputs": [
        {
          "internalType": "uint256",
          "name": "agentId",
          "type": "uint256"
        }
      ],
      "name": "getAgent",
      "outputs": [
        {
          "components": [
            {
              "internalType": "uint256",
              "name": "agentId",
              "type": "uint256"
            },
            {
              "internalType": "address",
              "name": "owner",
              "type": "address"
            },
            {
              "internalType": "string",
              "name": "metadataUri",
              "type": "string"
            },
            {
              "internalType": "string",
              "name": "containerImageUri",
              "type": "string"
            }
          ],
          "internalType": "struct Agent",
          "name": "agent",
          "type": "tuple"
        }
      ],
      "stateMutability": "view",
      "type": "function"
    },
    {
      "inputs": [
        {
          "internalType": "address",
          "name": "owner",
          "type": "address"
        }
      ],
      "name": "getAgentsByOwner",
      "outputs": [
        {
          "internalType": "uint256[]",
          "name": "agentIds",
          "type": "uint256[]"
        }
      ],
      "stateMutability": "view",
      "type": "function"
    },
    {
      "inputs": [
        {
          "internalType": "uint256",
          "name": "offset",
          "type": "uint256"
        },
        {
          "internalType": "uint256",
          "name": "limit",
          "type": "uint256"
        }
      ],
      "name": "getAgentsPaginated",
      "outputs": [
        {
          "internalType": "uint256[]",
          "name": "agentIds",
          "type": "uint256[]"
        }
      ],
      "stateMutability": "view",
      "type": "function"
    },
    {
      "inputs": [],
      "name": "getAllAgents",
      "outputs": [
        {
          "internalType": "uint256[]",
          "name": "agentIds",
          "type": "uint256[]"
        }
      ],
      "stateMutability": "view",
      "type": "function"
    },
    {
      "inputs": [
        {
          "internalType": "uint256",
          "name": "tokenId",
          "type": "uint256"
        }
      ],
      "name": "getApproved",
      "outputs": [
        {
          "internalType": "address",
          "name": "",
          "type": "address"
        }
      ],
      "stateMutability": "view",
      "type": "function"
    },
    {
      "inputs": [
        {
          "internalType": "address",
          "name": "owner",
          "type": "address"
        },
        {
          "internalType": "address",
          "name": "operator",
          "type": "address"
        }
      ],
      "name": "isApprovedForAll",
      "outputs": [
        {
          "internalType": "bool",
          "name": "",
          "type": "bool"
        }
      ],
      "stateMutability": "view",
      "type": "function"
    },
    {
      "inputs": [],
      "name": "name",
      "outputs": [
        {
          "internalType": "string",
          "name": "",
          "type": "string"
        }
      ],
      "stateMutability": "view",
      "type": "function"
    },
    {
      "inputs": [
        {
          "internalType": "uint256",
          "name": "tokenId",
          "type": "uint256"
        }
      ],
      "name": "ownerOf",
      "outputs": [
        {
          "internalType": "address",
          "name": "",
          "type": "address"
        }
      ],
      "stateMutability": "view",
      "type": "function"
    },
    {
      "inputs": [
        {
          "internalType": "address",
          "name": "from",
          "type": "address"
        },
        {
          "internalType": "address",
          "name": "to",
          "type": "address"
        },
        {
          "internalType": "uint256",
          "name": "tokenId",
          "type": "uint256"
        }
      ],
      "name": "safeTransferFrom",
      "outputs": [],
      "stateMutability": "nonpayable",
      "type": "function"
    },
    {
      "inputs": [
        {
          "internalType": "address",
          "name": "from",
          "type": "address"
        },
        {
          "internalType": "address",
          "name": "to",
          "type": "address"
        },
        {
          "internalType": "uint256",
          "name": "tokenId",
          "type": "uint256"
        },
        {
          "internalType": "bytes",
          "name": "data",
          "type": "bytes"
        }
      ],
      "name": "safeTransferFrom",
      "outputs": [],
      "stateMutability": "nonpayable",
      "type": "function"
    },
    {
      "inputs": [
        {
          "internalType": "uint256",
          "name": "agentId",
          "type": "uint256"
        },
        {
          "internalType": "string",
          "name": "metadataUri",
          "type": "string"
        },
        {
          "internalType": "string",
          "name": "containerImageUri",
          "type": "string"
        }
      ],
      "name": "setAgent",
      "outputs": [],
      "stateMutability": "nonpayable",
      "type": "function"
    },
    {
      "inputs": [
        {
          "internalType": "address",
          "name": "operator",
          "type": "address"
        },
        {
          "internalType": "bool",
          "name": "approved",
          "type": "bool"
        }
      ],
      "name": "setApprovalForAll",
      "outputs": [],
      "stateMutability": "nonpayable",
      "type": "function"
    },
    {
      "inputs": [
        {
          "internalType": "bytes4",
          "name": "interfaceId",
          "type": "bytes4"
        }
      ],
      "name": "supportsInterface",
      "outputs": [
        {
          "internalType": "bool",
          "name": "",
          "type": "bool"
        }
      ],
      "stateMutability": "view",
      "type": "function"
    },
    {
      "inputs": [],
      "name": "symbol",
      "outputs": [
        {
          "internalType": "string",
          "name": "",
          "type": "string"
        }
      ],
      "stateMutability": "view",
      "type": "function"
    },
    {
      "inputs": [
        {
          "internalType": "uint256",
          "name": "index",
          "type": "uint256"
        }
      ],
      "name": "tokenByIndex",
      "outputs": [
        {
          "internalType": "uint256",
          "name": "",
          "type": "uint256"
        }
      ],
      "stateMutability": "view",
      "type": "function"
    },
    {
      "inputs": [
        {
          "internalType": "address",
          "name": "owner",
          "type": "address"
        },
        {
          "internalType": "uint256",
          "name": "index",
          "type": "uint256"
        }
      ],
      "name": "tokenOfOwnerByIndex",
      "outputs": [
        {
          "internalType": "uint256",
          "name": "",
          "type": "uint256"
        }
      ],
      "stateMutability": "view",
      "type": "function"
    },
    {
      "inputs": [
        {
          "internalType": "uint256",
          "name": "tokenId",
          "type": "uint256"
        }
      ],
      "name": "tokenURI",
      "outputs": [
        {
          "internalType": "string",
          "name": "",
          "type": "string"
        }
      ],
      "stateMutability": "view",
      "type": "function"
    },
    {
      "inputs": [],
      "name": "totalSupply",
      "outputs": [
        {
          "internalType": "uint256",
          "name": "",
          "type": "uint256"
        }
      ],
      "stateMutability": "view",
      "type": "function"
    },
    {
      "inputs": [
        {
          "internalType": "address",
          "name": "from",
          "type": "address"
        },
        {
          "internalType": "address",
          "name": "to",
          "type": "address"
        },
        {
          "internalType": "uint256",
          "name": "tokenId",
          "type": "uint256"
        }
      ],
      "name": "transferFrom",
      "outputs": [],
      "stateMutability": "nonpayable",
      "type": "function"
    }
  ],
  "bytecode": "0x608060405234801561000f575f5ffd5b506040518060400160405280600d81526020016c536f6d6e6961204167656e747360981b8152506040518060400160405280600681526020016514d051d1539560d21b815250815f90816100639190610110565b5060016100708282610110565b5050506101ca565b634e487b7160e01b5f52604160045260245ffd5b600181811c908216806100a057607f821691505b6020821081036100be57634e487b7160e01b5f52602260045260245ffd5b50919050565b601f82111561010b57805f5260205f20601f840160051c810160208510156100e95750805b601f840160051c820191505b81811015610108575f81556001016100f5565b50505b505050565b81516001600160401b0381111561012957610129610078565b61013d81610137845461008c565b846100c4565b6020601f82116001811461016f575f83156101585750848201515b5f19600385901b1c1916600184901b178455610108565b5f84815260208120601f198516915b8281101561019e578785015182556020948501946001909201910161017e565b50848210156101bb57868401515f19600387901b60f8161c191681555b50505050600190811b01905550565b611ccf806101d75f395ff3fe608060405234801561000f575f5ffd5b5060043610610148575f3560e01c80634a93e728116100bf57806395d89b411161007957806395d89b41146102ce578063a22cb465146102d6578063b88d4fde146102e9578063c87b56dd146102fc578063de99f1571461030f578063e985e9c514610339575f5ffd5b80634a93e728146102675780634f6ccce71461027a5780636352211e1461028d578063664d2095146102a057806370a08231146102b3578063860e4ac6146102c6575f5ffd5b80631ab6f888116101105780631ab6f888146101db57806323b872dd146101fb57806329a267381461020e5780632de5aaf7146102215780632f745c591461024157806342842e0e14610254575f5ffd5b806301ffc9a71461014c57806306fdde0314610174578063081812fc14610189578063095ea7b3146101b457806318160ddd146101c9575b5f5ffd5b61015f61015a366004611669565b61034c565b60405190151581526020015b60405180910390f35b61017c61035c565b60405161016b91906116b9565b61019c6101973660046116cb565b6103eb565b6040516001600160a01b03909116815260200161016b565b6101c76101c23660046116fd565b610412565b005b6008545b60405190815260200161016b565b6101ee6101e9366004611725565b610421565b60405161016b919061173e565b6101c7610209366004611780565b6104b4565b6101ee61021c3660046117ba565b610542565b61023461022f3660046116cb565b610616565b60405161016b91906117da565b6101cd61024f3660046116fd565b6107df565b6101c7610262366004611780565b610842565b6101c761027536600461187c565b610861565b6101cd6102883660046116cb565b610a07565b61019c61029b3660046116cb565b610a5c565b6101c76102ae3660046116cb565b610a66565b6101cd6102c1366004611725565b610b67565b6101ee610bac565b61017c610c3c565b6101c76102e43660046118f5565b610c4b565b6101c76102f7366004611942565b610c56565b61017c61030a3660046116cb565b610c6e565b61015f61031d3660046116cb565b5f908152600260205260409020546001600160a01b0316151590565b61015f610347366004611a1f565b610d46565b5f61035682610d73565b92915050565b60605f805461036a90611a50565b80601f016020809104026020016040519081016040528092919081815260200182805461039690611a50565b80156103e15780601f106103b8576101008083540402835291602001916103e1565b820191905f5260205f20905b8154815290600101906020018083116103c457829003601f168201915b5050505050905090565b5f6103f582610d97565b505f828152600460205260409020546001600160a01b0316610356565b61041d828233610dcf565b5050565b60605f61042d83610b67565b90508067ffffffffffffffff8111156104485761044861192e565b604051908082528060200260200182016040528015610471578160200160208202803683370190505b5091505f5b818110156104ad5761048884826107df565b83828151811061049a5761049a611a88565b6020908102919091010152600101610476565b5050919050565b6001600160a01b0382166104e257604051633250574960e11b81525f60048201526024015b60405180910390fd5b5f6104ee838333610ddc565b9050836001600160a01b0316816001600160a01b03161461053c576040516364283d7b60e01b81526001600160a01b03808616600483015260248201849052821660448201526064016104d9565b50505050565b60605f61054e60085490565b905080841061056c575050604080515f815260208101909152610356565b5f6105778583611ab0565b90505f8482106105875784610589565b815b90508067ffffffffffffffff8111156105a4576105a461192e565b6040519080825280602002602001820160405280156105cd578160200160208202803683370190505b5093505f5b8181101561060c576105e76102888289611ac3565b8582815181106105f9576105f9611a88565b60209081029190910101526001016105d2565b5050505092915050565b61064860405180608001604052805f81526020015f6001600160a01b0316815260200160608152602001606081525090565b5f828152600260205260409020546001600160a01b031661067f57604051630ede975960e01b8152600481018390526024016104d9565b5f828152600a602090815260409182902082516080810184528154815260018201546001600160a01b03169281019290925260028101805492939192918401916106c890611a50565b80601f01602080910402602001604051908101604052809291908181526020018280546106f490611a50565b801561073f5780601f106107165761010080835404028352916020019161073f565b820191905f5260205f20905b81548152906001019060200180831161072257829003601f168201915b5050505050815260200160038201805461075890611a50565b80601f016020809104026020016040519081016040528092919081815260200182805461078490611a50565b80156107cf5780601f106107a6576101008083540402835291602001916107cf565b820191905f5260205f20905b8154815290600101906020018083116107b257829003601f168201915b5050505050815250509050919050565b5f6107e983610b67565b821061081a5760405163295f44f760e21b81526001600160a01b0384166004820152602481018390526044016104d9565b506001600160a01b03919091165f908152600660209081526040808320938352929052205490565b61085c83838360405180602001604052805f815250610c56565b505050565b5f858152600260205260409020546001600160a01b03168061088c576108873387610e2c565b6108be565b6001600160a01b03811633146108be576040516304ffad3160e21b8152600481018790523360248201526044016104d9565b6040518060800160405280878152602001336001600160a01b0316815260200186868080601f0160208091040260200160405190810160405280939291908181526020018383808284375f92019190915250505090825250604080516020601f8701819004810282018101909252858152918101919086908690819084018382808284375f920182905250939094525050888152600a602090815260409182902084518155908401516001820180546001600160a01b0319166001600160a01b0390921691909117905590830151909150600282019061099e9082611b1a565b50606082015160038201906109b39082611b1a565b50905050336001600160a01b0316867f6cb2a834d9c0cfc25d10add65976cd2871d3c46ee6fd9fa3cfea243177b963f9878787876040516109f79493929190611bfd565b60405180910390a3505050505050565b5f610a1160085490565b8210610a395760405163295f44f760e21b81525f6004820152602481018390526044016104d9565b60088281548110610a4c57610a4c611a88565b905f5260205f2001549050919050565b5f61035682610d97565b5f8181526002602052604090205481906001600160a01b0316610a9f57604051630ede975960e01b8152600481018290526024016104d9565b33610aa982610a5c565b6001600160a01b031614610ad9576040516304ffad3160e21b8152600481018290523360248201526044016104d9565b5f610ae383610a5c565b5f848152600a602052604081208181556001810180546001600160a01b0319169055919250610b156002830182611602565b610b22600383015f611602565b5050610b2d83610e45565b6040516001600160a01b0382169084907f601dab053a8be928732dddaec94d288df156e9a8b1c50447b7f9b4ce71886872905f90a3505050565b5f6001600160a01b038216610b91576040516322718ad960e21b81525f60048201526024016104d9565b506001600160a01b03165f9081526003602052604090205490565b60605f610bb860085490565b90508067ffffffffffffffff811115610bd357610bd361192e565b604051908082528060200260200182016040528015610bfc578160200160208202803683370190505b5091505f5b81811015610c3757610c1281610a07565b838281518110610c2457610c24611a88565b6020908102919091010152600101610c01565b505090565b60606001805461036a90611a50565b61041d338383610e7d565b610c618484846104b4565b61053c3385858585610f1b565b5f818152600260205260409020546060906001600160a01b0316610ca857604051630ede975960e01b8152600481018390526024016104d9565b5f828152600a602052604090206002018054610cc390611a50565b80601f0160208091040260200160405190810160405280929190818152602001828054610cef90611a50565b8015610d3a5780601f10610d1157610100808354040283529160200191610d3a565b820191905f5260205f20905b815481529060010190602001808311610d1d57829003601f168201915b50505050509050919050565b6001600160a01b039182165f90815260056020908152604080832093909416825291909152205460ff1690565b5f6001600160e01b0319821663780e9d6360e01b1480610356575061035682611043565b5f818152600260205260408120546001600160a01b03168061035657604051637e27328960e01b8152600481018490526024016104d9565b61085c8383836001611092565b5f5f610de9858585611196565b90506001600160a01b03851615610e24575f848152600a6020526040902060010180546001600160a01b0319166001600160a01b0387161790555b949350505050565b61041d828260405180602001604052805f815250611261565b5f610e515f835f610ddc565b90506001600160a01b03811661041d57604051637e27328960e01b8152600481018390526024016104d9565b6001600160a01b038216610eaf57604051630b61174360e31b81526001600160a01b03831660048201526024016104d9565b6001600160a01b038381165f81815260056020908152604080832094871680845294825291829020805460ff191686151590811790915591519182527f17307eab39ab6107e8899845ad3d59bd9653f200f220920489ca2b5937696c31910160405180910390a3505050565b6001600160a01b0383163b1561103c57604051630a85bd0160e11b81526001600160a01b0384169063150b7a0290610f5d908890889087908790600401611c2e565b6020604051808303815f875af1925050508015610f97575060408051601f3d908101601f19168201909252610f9491810190611c6a565b60015b610ffe573d808015610fc4576040519150601f19603f3d011682016040523d82523d5f602084013e610fc9565b606091505b5080515f03610ff657604051633250574960e11b81526001600160a01b03851660048201526024016104d9565b805160208201fd5b6001600160e01b03198116630a85bd0160e11b1461103a57604051633250574960e11b81526001600160a01b03851660048201526024016104d9565b505b5050505050565b5f6001600160e01b031982166380ac58cd60e01b148061107357506001600160e01b03198216635b5e139f60e01b145b8061035657506301ffc9a760e01b6001600160e01b0319831614610356565b80806110a657506001600160a01b03821615155b15611167575f6110b584610d97565b90506001600160a01b038316158015906110e15750826001600160a01b0316816001600160a01b031614155b80156110f457506110f28184610d46565b155b1561111d5760405163a9fbf51f60e01b81526001600160a01b03841660048201526024016104d9565b81156111655783856001600160a01b0316826001600160a01b03167f8c5be1e5ebec7d5bd14f71427d1e84f3dd0314c0f7b2291e5b200ac8c7c3b92560405160405180910390a45b505b50505f90815260046020526040902080546001600160a01b0319166001600160a01b0392909216919091179055565b5f5f6111a3858585611278565b90506001600160a01b0381166111ff576111fa84600880545f838152600960205260408120829055600182018355919091527ff3f7a9fe364faab93b216da50a3214154f22a0a2b415b23a84c8169e8b636ee30155565b611222565b846001600160a01b0316816001600160a01b03161461122257611222818561136a565b6001600160a01b03851661123e57611239846113e7565b610e24565b846001600160a01b0316816001600160a01b031614610e2457610e24858561148e565b61126b83836114dc565b61085c335f858585610f1b565b5f828152600260205260408120546001600160a01b03908116908316156112a4576112a481848661153d565b6001600160a01b038116156112de576112bf5f855f5f611092565b6001600160a01b0381165f90815260036020526040902080545f190190555b6001600160a01b0385161561130c576001600160a01b0385165f908152600360205260409020805460010190555b5f8481526002602052604080822080546001600160a01b0319166001600160a01b0389811691821790925591518793918516917fddf252ad1be2c89b69c2b068fc378daa952ba7f163c4a11628f55a4df523b3ef91a4949350505050565b5f61137483610b67565b5f838152600760209081526040808320546001600160a01b03881684526006909252909120919250908183146113c9575f83815260208281526040808320548584528184208190558352600790915290208290555b5f938452600760209081526040808620869055938552525081205550565b6008545f906113f890600190611ab0565b5f838152600960205260408120546008805493945090928490811061141f5761141f611a88565b905f5260205f2001549050806008838154811061143e5761143e611a88565b5f91825260208083209091019290925582815260099091526040808220849055858252812055600880548061147557611475611c85565b600190038181905f5260205f20015f9055905550505050565b5f600161149a84610b67565b6114a49190611ab0565b6001600160a01b039093165f908152600660209081526040808320868452825280832085905593825260079052919091209190915550565b6001600160a01b03821661150557604051633250574960e11b81525f60048201526024016104d9565b5f61151183835f610ddc565b90506001600160a01b0381161561085c576040516339e3563760e11b81525f60048201526024016104d9565b6115488383836115a1565b61085c576001600160a01b03831661157657604051637e27328960e01b8152600481018290526024016104d9565b60405163177e802f60e01b81526001600160a01b0383166004820152602481018290526044016104d9565b5f6001600160a01b03831615801590610e245750826001600160a01b0316846001600160a01b031614806115da57506115da8484610d46565b80610e245750505f908152600460205260409020546001600160a01b03908116911614919050565b50805461160e90611a50565b5f825580601f1061161d575050565b601f0160209004905f5260205f2090810190611639919061163c565b50565b5b80821115611650575f815560010161163d565b5090565b6001600160e01b031981168114611639575f5ffd5b5f60208284031215611679575f5ffd5b813561168481611654565b9392505050565b5f81518084528060208401602086015e5f602082860101526020601f19601f83011685010191505092915050565b602081525f611684602083018461168b565b5f602082840312156116db575f5ffd5b5035919050565b80356001600160a01b03811681146116f8575f5ffd5b919050565b5f5f6040838503121561170e575f5ffd5b611717836116e2565b946020939093013593505050565b5f60208284031215611735575f5ffd5b611684826116e2565b602080825282518282018190525f918401906040840190835b81811015611775578351835260209384019390920191600101611757565b509095945050505050565b5f5f5f60608486031215611792575f5ffd5b61179b846116e2565b92506117a9602085016116e2565b929592945050506040919091013590565b5f5f604083850312156117cb575f5ffd5b50508035926020909101359150565b602081528151602082015260018060a01b0360208301511660408201525f60408301516080606084015261181160a084018261168b565b90506060840151601f1984830301608085015261182e828261168b565b95945050505050565b5f5f83601f840112611847575f5ffd5b50813567ffffffffffffffff81111561185e575f5ffd5b602083019150836020828501011115611875575f5ffd5b9250929050565b5f5f5f5f5f60608688031215611890575f5ffd5b85359450602086013567ffffffffffffffff8111156118ad575f5ffd5b6118b988828901611837565b909550935050604086013567ffffffffffffffff8111156118d8575f5ffd5b6118e488828901611837565b969995985093965092949392505050565b5f5f60408385031215611906575f5ffd5b61190f836116e2565b915060208301358015158114611923575f5ffd5b809150509250929050565b634e487b7160e01b5f52604160045260245ffd5b5f5f5f5f60808587031215611955575f5ffd5b61195e856116e2565b935061196c602086016116e2565b925060408501359150606085013567ffffffffffffffff81111561198e575f5ffd5b8501601f8101871361199e575f5ffd5b803567ffffffffffffffff8111156119b8576119b861192e565b604051601f8201601f19908116603f0116810167ffffffffffffffff811182821017156119e7576119e761192e565b6040528181528282016020018910156119fe575f5ffd5b816020840160208301375f6020838301015280935050505092959194509250565b5f5f60408385031215611a30575f5ffd5b611a39836116e2565b9150611a47602084016116e2565b90509250929050565b600181811c90821680611a6457607f821691505b602082108103611a8257634e487b7160e01b5f52602260045260245ffd5b50919050565b634e487b7160e01b5f52603260045260245ffd5b634e487b7160e01b5f52601160045260245ffd5b8181038181111561035657610356611a9c565b8082018082111561035657610356611a9c565b601f82111561085c57805f5260205f20601f840160051c81016020851015611afb5750805b601f840160051c820191505b8181101561103c575f8155600101611b07565b815167ffffffffffffffff811115611b3457611b3461192e565b611b4881611b428454611a50565b84611ad6565b6020601f821160018114611b7a575f8315611b635750848201515b5f19600385901b1c1916600184901b17845561103c565b5f84815260208120601f198516915b82811015611ba95787850151825560209485019460019092019101611b89565b5084821015611bc657868401515f19600387901b60f8161c191681555b50505050600190811b01905550565b81835281816020850137505f828201602090810191909152601f909101601f19169091010190565b604081525f611c10604083018688611bd5565b8281036020840152611c23818587611bd5565b979650505050505050565b6001600160a01b03858116825284166020820152604081018390526080606082018190525f90611c609083018461168b565b9695505050505050565b5f60208284031215611c7a575f5ffd5b815161168481611654565b634e487b7160e01b5f52603160045260245ffdfea26469706673582212207ed2ebfcfef7701b4cfa8c778e01e4ac46424dd4bcbddfcb91a578f97c196b8464736f6c634300081c0033",
  "linkReferences": {},
  "deployedLinkReferences": {},
  "immutableReferences": {},
  "inputSourceName": "project/contracts/AgentRegistry.sol",
  "buildInfoId": "solc-0_8_28-d917d2f3045822e69c0e7a460ad93b925cfb079a"
}