{
  "_format": "hh3-artifact-1",
  "contractName": "AgentRegistry",
  "sourceName": "contracts/AgentRegistry.sol",
  "abi": [
    {
      "inputs": [],
      "stateMutability": "nonpayable",
      "type": "constructor"
    },
    {
      "inputs": [
        {
          "internalType": "uint256",
          "name": "agentId",
          "type": "uint256"
        }
      ],
      "name": "AgentNotFound",
      "type": "error"
    },
    {
      "inputs": [],
      "name": "ERC721EnumerableForbiddenBatchMint",
      "type": "error"
    },
    {
      "inputs": [
        {
          "internalType": "address",
          "name": "sender",
          "type": "address"
        },
        {
          "internalType": "uint256",
          "name": "tokenId",
          "type": "uint256"
        },
        {
          "internalType": "address",
          "name": "owner",
          "type": "address"
        }
      ],
      "name": "ERC721IncorrectOwner",
      "type": "error"
    },
    {
      "inputs": [
        {
          "internalType": "address",
          "name": "operator",
          "type": "address"
        },
        {
          "internalType": "uint256",
          "name": "tokenId",
          "type": "uint256"
        }
      ],
      "name": "ERC721InsufficientApproval",
      "type": "error"
    },
    {
      "inputs": [
        {
          "internalType": "address",
          "name": "approver",
          "type": "address"
        }
      ],
      "name": "ERC721InvalidApprover",
      "type": "error"
    },
    {
      "inputs": [
        {
          "internalType": "address",
          "name": "operator",
          "type": "address"
        }
      ],
      "name": "ERC721InvalidOperator",
      "type": "error"
    },
    {
      "inputs": [
        {
          "internalType": "address",
          "name": "owner",
          "type": "address"
        }
      ],
      "name": "ERC721InvalidOwner",
      "type": "error"
    },
    {
      "inputs": [
        {
          "internalType": "address",
          "name": "receiver",
          "type": "address"
        }
      ],
      "name": "ERC721InvalidReceiver",
      "type": "error"
    },
    {
      "inputs": [
        {
          "internalType": "address",
          "name": "sender",
          "type": "address"
        }
      ],
      "name": "ERC721InvalidSender",
      "type": "error"
    },
    {
      "inputs": [
        {
          "internalType": "uint256",
          "name": "tokenId",
          "type": "uint256"
        }
      ],
      "name": "ERC721NonexistentToken",
      "type": "error"
    },
    {
      "inputs": [
        {
          "internalType": "address",
          "name": "owner",
          "type": "address"
        },
        {
          "internalType": "uint256",
          "name": "index",
          "type": "uint256"
        }
      ],
      "name": "ERC721OutOfBoundsIndex",
      "type": "error"
    },
    {
      "inputs": [
        {
          "internalType": "uint256",
          "name": "agentId",
          "type": "uint256"
        },
        {
          "internalType": "address",
          "name": "caller",
          "type": "address"
        }
      ],
      "name": "NotAgentOwner",
      "type": "error"
    },
    {
      "anonymous": false,
      "inputs": [
        {
          "indexed": true,
          "internalType": "uint256",
          "name": "agentId",
          "type": "uint256"
        },
        {
          "indexed": true,
          "internalType": "address",
          "name": "owner",
          "type": "address"
        }
      ],
      "name": "AgentDeleted",
      "type": "event"
    },
    {
      "anonymous": false,
      "inputs": [
        {
          "indexed": true,
          "internalType": "uint256",
          "name": "agentId",
          "type": "uint256"
        },
        {
          "indexed": true,
          "internalType": "address",
          "name": "owner",
          "type": "address"
        },
        {
          "indexed": false,
          "internalType": "string",
          "name": "metadataUri",
          "type": "string"
        },
        {
          "indexed": false,
          "internalType": "string",
          "name": "containerImageUri",
          "type": "string"
        },
        {
          "indexed": false,
          "internalType": "uint256",
          "name": "cost",
          "type": "uint256"
        }
      ],
      "name": "AgentSet",
      "type": "event"
    },
    {
      "anonymous": false,
      "inputs": [
        {
          "indexed": true,
          "internalType": "address",
          "name": "owner",
          "type": "address"
        },
        {
          "indexed": true,
          "internalType": "address",
          "name": "approved",
          "type": "address"
        },
        {
          "indexed": true,
          "internalType": "uint256",
          "name": "tokenId",
          "type": "uint256"
        }
      ],
      "name": "Approval",
      "type": "event"
    },
    {
      "anonymous": false,
      "inputs": [
        {
          "indexed": true,
          "internalType": "address",
          "name": "owner",
          "type": "address"
        },
        {
          "indexed": true,
          "internalType": "address",
          "name": "operator",
          "type": "address"
        },
        {
          "indexed": false,
          "internalType": "bool",
          "name": "approved",
          "type": "bool"
        }
      ],
      "name": "ApprovalForAll",
      "type": "event"
    },
    {
      "anonymous": false,
      "inputs": [
        {
          "indexed": true,
          "internalType": "address",
          "name": "from",
          "type": "address"
        },
        {
          "indexed": true,
          "internalType": "address",
          "name": "to",
          "type": "address"
        },
        {
          "indexed": true,
          "internalType": "uint256",
          "name": "tokenId",
          "type": "uint256"
        }
      ],
      "name": "Transfer",
      "type": "event"
    },
    {
      "inputs": [
        {
          "internalType": "uint256",
          "name": "agentId",
          "type": "uint256"
        }
      ],
      "name": "agentExists",
      "outputs": [
        {
          "internalType": "bool",
          "name": "",
          "type": "bool"
        }
      ],
      "stateMutability": "view",
      "type": "function"
    },
    {
      "inputs": [
        {
          "internalType": "address",
          "name": "to",
          "type": "address"
        },
        {
          "internalType": "uint256",
          "name": "tokenId",
          "type": "uint256"
        }
      ],
      "name": "approve",
      "outputs": [],
      "stateMutability": "nonpayable",
      "type": "function"
    },
    {
      "inputs": [
        {
          "internalType": "address",
          "name": "owner",
          "type": "address"
        }
      ],
      "name": "balanceOf",
      "outputs": [
        {
          "internalType": "uint256",
          "name": "",
          "type": "uint256"
        }
      ],
      "stateMutability": "view",
      "type": "function"
    },
    {
      "inputs": [
        {
          "internalType": "uint256",
          "name": "agentId",
          "type": "uint256"
        }
      ],
      "name": "deleteAgent",
      "outputs": [],
      "stateMutability": "nonpayable",
      "type": "function"
    },
    {
      "inputs": [
        {
          "internalType": "uint256",
          "name": "agentId",
          "type": "uint256"
        }
      ],
      "name": "getAgent",
      "outputs": [
        {
          "components": [
            {
              "internalType": "uint256",
              "name": "agentId",
              "type": "uint256"
            },
            {
              "internalType": "address",
              "name": "owner",
              "type": "address"
            },
            {
              "internalType": "string",
              "name": "metadataUri",
              "type": "string"
            },
            {
              "internalType": "string",
              "name": "containerImageUri",
              "type": "string"
            },
            {
              "internalType": "uint256",
              "name": "cost",
              "type": "uint256"
            }
          ],
          "internalType": "struct Agent",
          "name": "agent",
          "type": "tuple"
        }
      ],
      "stateMutability": "view",
      "type": "function"
    },
    {
      "inputs": [
        {
          "internalType": "address",
          "name": "owner",
          "type": "address"
        }
      ],
      "name": "getAgentsByOwner",
      "outputs": [
        {
          "internalType": "uint256[]",
          "name": "agentIds",
          "type": "uint256[]"
        }
      ],
      "stateMutability": "view",
      "type": "function"
    },
    {
      "inputs": [
        {
          "internalType": "uint256",
          "name": "offset",
          "type": "uint256"
        },
        {
          "internalType": "uint256",
          "name": "limit",
          "type": "uint256"
        }
      ],
      "name": "getAgentsPaginated",
      "outputs": [
        {
          "internalType": "uint256[]",
          "name": "agentIds",
          "type": "uint256[]"
        }
      ],
      "stateMutability": "view",
      "type": "function"
    },
    {
      "inputs": [],
      "name": "getAllAgents",
      "outputs": [
        {
          "internalType": "uint256[]",
          "name": "agentIds",
          "type": "uint256[]"
        }
      ],
      "stateMutability": "view",
      "type": "function"
    },
    {
      "inputs": [
        {
          "internalType": "uint256",
          "name": "tokenId",
          "type": "uint256"
        }
      ],
      "name": "getApproved",
      "outputs": [
        {
          "internalType": "address",
          "name": "",
          "type": "address"
        }
      ],
      "stateMutability": "view",
      "type": "function"
    },
    {
      "inputs": [
        {
          "internalType": "address",
          "name": "owner",
          "type": "address"
        },
        {
          "internalType": "address",
          "name": "operator",
          "type": "address"
        }
      ],
      "name": "isApprovedForAll",
      "outputs": [
        {
          "internalType": "bool",
          "name": "",
          "type": "bool"
        }
      ],
      "stateMutability": "view",
      "type": "function"
    },
    {
      "inputs": [],
      "name": "name",
      "outputs": [
        {
          "internalType": "string",
          "name": "",
          "type": "string"
        }
      ],
      "stateMutability": "view",
      "type": "function"
    },
    {
      "inputs": [
        {
          "internalType": "uint256",
          "name": "tokenId",
          "type": "uint256"
        }
      ],
      "name": "ownerOf",
      "outputs": [
        {
          "internalType": "address",
          "name": "",
          "type": "address"
        }
      ],
      "stateMutability": "view",
      "type": "function"
    },
    {
      "inputs": [
        {
          "internalType": "address",
          "name": "from",
          "type": "address"
        },
        {
          "internalType": "address",
          "name": "to",
          "type": "address"
        },
        {
          "internalType": "uint256",
          "name": "tokenId",
          "type": "uint256"
        }
      ],
      "name": "safeTransferFrom",
      "outputs": [],
      "stateMutability": "nonpayable",
      "type": "function"
    },
    {
      "inputs": [
        {
          "internalType": "address",
          "name": "from",
          "type": "address"
        },
        {
          "internalType": "address",
          "name": "to",
          "type": "address"
        },
        {
          "internalType": "uint256",
          "name": "tokenId",
          "type": "uint256"
        },
        {
          "internalType": "bytes",
          "name": "data",
          "type": "bytes"
        }
      ],
      "name": "safeTransferFrom",
      "outputs": [],
      "stateMutability": "nonpayable",
      "type": "function"
    },
    {
      "inputs": [
        {
          "internalType": "uint256",
          "name": "agentId",
          "type": "uint256"
        },
        {
          "internalType": "string",
          "name": "metadataUri",
          "type": "string"
        },
        {
          "internalType": "string",
          "name": "containerImageUri",
          "type": "string"
        },
        {
          "internalType": "uint256",
          "name": "cost",
          "type": "uint256"
        }
      ],
      "name": "setAgent",
      "outputs": [],
      "stateMutability": "nonpayable",
      "type": "function"
    },
    {
      "inputs": [
        {
          "internalType": "address",
          "name": "operator",
          "type": "address"
        },
        {
          "internalType": "bool",
          "name": "approved",
          "type": "bool"
        }
      ],
      "name": "setApprovalForAll",
      "outputs": [],
      "stateMutability": "nonpayable",
      "type": "function"
    },
    {
      "inputs": [
        {
          "internalType": "bytes4",
          "name": "interfaceId",
          "type": "bytes4"
        }
      ],
      "name": "supportsInterface",
      "outputs": [
        {
          "internalType": "bool",
          "name": "",
          "type": "bool"
        }
      ],
      "stateMutability": "view",
      "type": "function"
    },
    {
      "inputs": [],
      "name": "symbol",
      "outputs": [
        {
          "internalType": "string",
          "name": "",
          "type": "string"
        }
      ],
      "stateMutability": "view",
      "type": "function"
    },
    {
      "inputs": [
        {
          "internalType": "uint256",
          "name": "index",
          "type": "uint256"
        }
      ],
      "name": "tokenByIndex",
      "outputs": [
        {
          "internalType": "uint256",
          "name": "",
          "type": "uint256"
        }
      ],
      "stateMutability": "view",
      "type": "function"
    },
    {
      "inputs": [
        {
          "internalType": "address",
          "name": "owner",
          "type": "address"
        },
        {
          "internalType": "uint256",
          "name": "index",
          "type": "uint256"
        }
      ],
      "name": "tokenOfOwnerByIndex",
      "outputs": [
        {
          "internalType": "uint256",
          "name": "",
          "type": "uint256"
        }
      ],
      "stateMutability": "view",
      "type": "function"
    },
    {
      "inputs": [
        {
          "internalType": "uint256",
          "name": "tokenId",
          "type": "uint256"
        }
      ],
      "name": "tokenURI",
      "outputs": [
        {
          "internalType": "string",
          "name": "",
          "type": "string"
        }
      ],
      "stateMutability": "view",
      "type": "function"
    },
    {
      "inputs": [],
      "name": "totalSupply",
      "outputs": [
        {
          "internalType": "uint256",
          "name": "",
          "type": "uint256"
        }
      ],
      "stateMutability": "view",
      "type": "function"
    },
    {
      "inputs": [
        {
          "internalType": "address",
          "name": "from",
          "type": "address"
        },
        {
          "internalType": "address",
          "name": "to",
          "type": "address"
        },
        {
          "internalType": "uint256",
          "name": "tokenId",
          "type": "uint256"
        }
      ],
      "name": "transferFrom",
      "outputs": [],
      "stateMutability": "nonpayable",
      "type": "function"
    }
  ],
  "bytecode": "0x608060405234801561000f575f5ffd5b506040518060400160405280600d81526020016c536f6d6e6961204167656e747360981b8152506040518060400160405280600681526020016514d051d1539560d21b815250815f90816100639190610110565b5060016100708282610110565b5050506101ca565b634e487b7160e01b5f52604160045260245ffd5b600181811c908216806100a057607f821691505b6020821081036100be57634e487b7160e01b5f52602260045260245ffd5b50919050565b601f82111561010b57805f5260205f20601f840160051c810160208510156100e95750805b601f840160051c820191505b81811015610108575f81556001016100f5565b50505b505050565b81516001600160401b0381111561012957610129610078565b61013d81610137845461008c565b846100c4565b6020601f82116001811461016f575f83156101585750848201515b5f19600385901b1c1916600184901b178455610108565b5f84815260208120601f198516915b8281101561019e578785015182556020948501946001909201910161017e565b50848210156101bb57868401515f19600387901b60f8161c191681555b50505050600190811b01905550565b611d12806101d75f395ff3fe608060405234801561000f575f5ffd5b5060043610610148575f3560e01c806342842e0e116100bf57806395d89b411161007957806395d89b41146102ce578063a22cb465146102d6578063b88d4fde146102e9578063c87b56dd146102fc578063de99f1571461030f578063e985e9c514610339575f5ffd5b806342842e0e146102675780634f6ccce71461027a5780636352211e1461028d578063664d2095146102a057806370a08231146102b3578063860e4ac6146102c6575f5ffd5b80631ab6f888116101105780631ab6f888146101db57806323b872dd146101fb57806329a267381461020e5780632de5aaf7146102215780632f745c59146102415780633edb80f014610254575f5ffd5b806301ffc9a71461014c57806306fdde0314610174578063081812fc14610189578063095ea7b3146101b457806318160ddd146101c9575b5f5ffd5b61015f61015a36600461168e565b61034c565b60405190151581526020015b60405180910390f35b61017c61035c565b60405161016b91906116de565b61019c6101973660046116f0565b6103eb565b6040516001600160a01b03909116815260200161016b565b6101c76101c2366004611722565b610412565b005b6008545b60405190815260200161016b565b6101ee6101e936600461174a565b610421565b60405161016b9190611763565b6101c76102093660046117a5565b6104b4565b6101ee61021c3660046117df565b610542565b61023461022f3660046116f0565b610616565b60405161016b91906117ff565b6101cd61024f366004611722565b6107ef565b6101c76102623660046118af565b610852565b6101c76102753660046117a5565b610a06565b6101cd6102883660046116f0565b610a25565b61019c61029b3660046116f0565b610a7a565b6101c76102ae3660046116f0565b610a84565b6101cd6102c136600461174a565b610b8c565b6101ee610bd1565b61017c610c61565b6101c76102e4366004611930565b610c70565b6101c76102f736600461197d565b610c7b565b61017c61030a3660046116f0565b610c93565b61015f61031d3660046116f0565b5f908152600260205260409020546001600160a01b0316151590565b61015f610347366004611a5a565b610d6b565b5f61035682610d98565b92915050565b60605f805461036a90611a8b565b80601f016020809104026020016040519081016040528092919081815260200182805461039690611a8b565b80156103e15780601f106103b8576101008083540402835291602001916103e1565b820191905f5260205f20905b8154815290600101906020018083116103c457829003601f168201915b5050505050905090565b5f6103f582610dbc565b505f828152600460205260409020546001600160a01b0316610356565b61041d828233610df4565b5050565b60605f61042d83610b8c565b90508067ffffffffffffffff81111561044857610448611969565b604051908082528060200260200182016040528015610471578160200160208202803683370190505b5091505f5b818110156104ad5761048884826107ef565b83828151811061049a5761049a611ac3565b6020908102919091010152600101610476565b5050919050565b6001600160a01b0382166104e257604051633250574960e11b81525f60048201526024015b60405180910390fd5b5f6104ee838333610e01565b9050836001600160a01b0316816001600160a01b03161461053c576040516364283d7b60e01b81526001600160a01b03808616600483015260248201849052821660448201526064016104d9565b50505050565b60605f61054e60085490565b905080841061056c575050604080515f815260208101909152610356565b5f6105778583611aeb565b90505f8482106105875784610589565b815b90508067ffffffffffffffff8111156105a4576105a4611969565b6040519080825280602002602001820160405280156105cd578160200160208202803683370190505b5093505f5b8181101561060c576105e76102888289611afe565b8582815181106105f9576105f9611ac3565b60209081029190910101526001016105d2565b5050505092915050565b61064e6040518060a001604052805f81526020015f6001600160a01b0316815260200160608152602001606081526020015f81525090565b5f828152600260205260409020546001600160a01b031661068557604051630ede975960e01b8152600481018390526024016104d9565b5f828152600a6020908152604091829020825160a0810184528154815260018201546001600160a01b03169281019290925260028101805492939192918401916106ce90611a8b565b80601f01602080910402602001604051908101604052809291908181526020018280546106fa90611a8b565b80156107455780601f1061071c57610100808354040283529160200191610745565b820191905f5260205f20905b81548152906001019060200180831161072857829003601f168201915b5050505050815260200160038201805461075e90611a8b565b80601f016020809104026020016040519081016040528092919081815260200182805461078a90611a8b565b80156107d55780601f106107ac576101008083540402835291602001916107d5565b820191905f5260205f20905b8154815290600101906020018083116107b857829003601f168201915b505050505081526020016004820154815250509050919050565b5f6107f983610b8c565b821061082a5760405163295f44f760e21b81526001600160a01b0384166004820152602481018390526044016104d9565b506001600160a01b03919091165f908152600660209081526040808320938352929052205490565b5f868152600260205260409020546001600160a01b03168061087d576108783388610e51565b6108af565b6001600160a01b03811633146108af576040516304ffad3160e21b8152600481018890523360248201526044016104d9565b6040518060a00160405280888152602001336001600160a01b0316815260200187878080601f0160208091040260200160405190810160405280939291908181526020018383808284375f92019190915250505090825250604080516020601f8801819004810282018101909252868152918101919087908790819084018382808284375f9201829052509385525050506020918201859052898152600a825260409081902083518155918301516001830180546001600160a01b0319166001600160a01b0390921691909117905582015160028201906109909082611b55565b50606082015160038201906109a59082611b55565b5060808201518160040155905050336001600160a01b0316877f87381c875ad8200b7cbbcc8b2ad6f29221a1bacfcd225eecf1f8bdfd1f35f6a988888888886040516109f5959493929190611c38565b60405180910390a350505050505050565b610a2083838360405180602001604052805f815250610c7b565b505050565b5f610a2f60085490565b8210610a575760405163295f44f760e21b81525f6004820152602481018390526044016104d9565b60088281548110610a6a57610a6a611ac3565b905f5260205f2001549050919050565b5f61035682610dbc565b5f8181526002602052604090205481906001600160a01b0316610abd57604051630ede975960e01b8152600481018290526024016104d9565b33610ac782610a7a565b6001600160a01b031614610af7576040516304ffad3160e21b8152600481018290523360248201526044016104d9565b5f610b0183610a7a565b5f848152600a602052604081208181556001810180546001600160a01b0319169055919250610b336002830182611627565b610b40600383015f611627565b600482015f90555050610b5283610e6a565b6040516001600160a01b0382169084907f601dab053a8be928732dddaec94d288df156e9a8b1c50447b7f9b4ce71886872905f90a3505050565b5f6001600160a01b038216610bb6576040516322718ad960e21b81525f60048201526024016104d9565b506001600160a01b03165f9081526003602052604090205490565b60605f610bdd60085490565b90508067ffffffffffffffff811115610bf857610bf8611969565b604051908082528060200260200182016040528015610c21578160200160208202803683370190505b5091505f5b81811015610c5c57610c3781610a25565b838281518110610c4957610c49611ac3565b6020908102919091010152600101610c26565b505090565b60606001805461036a90611a8b565b61041d338383610ea2565b610c868484846104b4565b61053c3385858585610f40565b5f818152600260205260409020546060906001600160a01b0316610ccd57604051630ede975960e01b8152600481018390526024016104d9565b5f828152600a602052604090206002018054610ce890611a8b565b80601f0160208091040260200160405190810160405280929190818152602001828054610d1490611a8b565b8015610d5f5780601f10610d3657610100808354040283529160200191610d5f565b820191905f5260205f20905b815481529060010190602001808311610d4257829003601f168201915b50505050509050919050565b6001600160a01b039182165f90815260056020908152604080832093909416825291909152205460ff1690565b5f6001600160e01b0319821663780e9d6360e01b1480610356575061035682611068565b5f818152600260205260408120546001600160a01b03168061035657604051637e27328960e01b8152600481018490526024016104d9565b610a2083838360016110b7565b5f5f610e0e8585856111bb565b90506001600160a01b03851615610e49575f848152600a6020526040902060010180546001600160a01b0319166001600160a01b0387161790555b949350505050565b61041d828260405180602001604052805f815250611286565b5f610e765f835f610e01565b90506001600160a01b03811661041d57604051637e27328960e01b8152600481018390526024016104d9565b6001600160a01b038216610ed457604051630b61174360e31b81526001600160a01b03831660048201526024016104d9565b6001600160a01b038381165f81815260056020908152604080832094871680845294825291829020805460ff191686151590811790915591519182527f17307eab39ab6107e8899845ad3d59bd9653f200f220920489ca2b5937696c31910160405180910390a3505050565b6001600160a01b0383163b1561106157604051630a85bd0160e11b81526001600160a01b0384169063150b7a0290610f82908890889087908790600401611c71565b6020604051808303815f875af1925050508015610fbc575060408051601f3d908101601f19168201909252610fb991810190611cad565b60015b611023573d808015610fe9576040519150601f19603f3d011682016040523d82523d5f602084013e610fee565b606091505b5080515f0361101b57604051633250574960e11b81526001600160a01b03851660048201526024016104d9565b805160208201fd5b6001600160e01b03198116630a85bd0160e11b1461105f57604051633250574960e11b81526001600160a01b03851660048201526024016104d9565b505b5050505050565b5f6001600160e01b031982166380ac58cd60e01b148061109857506001600160e01b03198216635b5e139f60e01b145b8061035657506301ffc9a760e01b6001600160e01b0319831614610356565b80806110cb57506001600160a01b03821615155b1561118c575f6110da84610dbc565b90506001600160a01b038316158015906111065750826001600160a01b0316816001600160a01b031614155b801561111957506111178184610d6b565b155b156111425760405163a9fbf51f60e01b81526001600160a01b03841660048201526024016104d9565b811561118a5783856001600160a01b0316826001600160a01b03167f8c5be1e5ebec7d5bd14f71427d1e84f3dd0314c0f7b2291e5b200ac8c7c3b92560405160405180910390a45b505b50505f90815260046020526040902080546001600160a01b0319166001600160a01b0392909216919091179055565b5f5f6111c885858561129d565b90506001600160a01b0381166112245761121f84600880545f838152600960205260408120829055600182018355919091527ff3f7a9fe364faab93b216da50a3214154f22a0a2b415b23a84c8169e8b636ee30155565b611247565b846001600160a01b0316816001600160a01b03161461124757611247818561138f565b6001600160a01b0385166112635761125e8461140c565b610e49565b846001600160a01b0316816001600160a01b031614610e4957610e4985856114b3565b6112908383611501565b610a20335f858585610f40565b5f828152600260205260408120546001600160a01b03908116908316156112c9576112c9818486611562565b6001600160a01b03811615611303576112e45f855f5f6110b7565b6001600160a01b0381165f90815260036020526040902080545f190190555b6001600160a01b03851615611331576001600160a01b0385165f908152600360205260409020805460010190555b5f8481526002602052604080822080546001600160a01b0319166001600160a01b0389811691821790925591518793918516917fddf252ad1be2c89b69c2b068fc378daa952ba7f163c4a11628f55a4df523b3ef91a4949350505050565b5f61139983610b8c565b5f838152600760209081526040808320546001600160a01b03881684526006909252909120919250908183146113ee575f83815260208281526040808320548584528184208190558352600790915290208290555b5f938452600760209081526040808620869055938552525081205550565b6008545f9061141d90600190611aeb565b5f838152600960205260408120546008805493945090928490811061144457611444611ac3565b905f5260205f2001549050806008838154811061146357611463611ac3565b5f91825260208083209091019290925582815260099091526040808220849055858252812055600880548061149a5761149a611cc8565b600190038181905f5260205f20015f9055905550505050565b5f60016114bf84610b8c565b6114c99190611aeb565b6001600160a01b039093165f908152600660209081526040808320868452825280832085905593825260079052919091209190915550565b6001600160a01b03821661152a57604051633250574960e11b81525f60048201526024016104d9565b5f61153683835f610e01565b90506001600160a01b03811615610a20576040516339e3563760e11b81525f60048201526024016104d9565b61156d8383836115c6565b610a20576001600160a01b03831661159b57604051637e27328960e01b8152600481018290526024016104d9565b60405163177e802f60e01b81526001600160a01b0383166004820152602481018290526044016104d9565b5f6001600160a01b03831615801590610e495750826001600160a01b0316846001600160a01b031614806115ff57506115ff8484610d6b565b80610e495750505f908152600460205260409020546001600160a01b03908116911614919050565b50805461163390611a8b565b5f825580601f10611642575050565b601f0160209004905f5260205f209081019061165e9190611661565b50565b5b80821115611675575f8155600101611662565b5090565b6001600160e01b03198116811461165e575f5ffd5b5f6020828403121561169e575f5ffd5b81356116a981611679565b9392505050565b5f81518084528060208401602086015e5f602082860101526020601f19601f83011685010191505092915050565b602081525f6116a960208301846116b0565b5f60208284031215611700575f5ffd5b5035919050565b80356001600160a01b038116811461171d575f5ffd5b919050565b5f5f60408385031215611733575f5ffd5b61173c83611707565b946020939093013593505050565b5f6020828403121561175a575f5ffd5b6116a982611707565b602080825282518282018190525f918401906040840190835b8181101561179a57835183526020938401939092019160010161177c565b509095945050505050565b5f5f5f606084860312156117b7575f5ffd5b6117c084611707565b92506117ce60208501611707565b929592945050506040919091013590565b5f5f604083850312156117f0575f5ffd5b50508035926020909101359150565b602081528151602082015260018060a01b0360208301511660408201525f604083015160a0606084015261183660c08401826116b0565b90506060840151601f1984830301608085015261185382826116b0565b915050608084015160a08401528091505092915050565b5f5f83601f84011261187a575f5ffd5b50813567ffffffffffffffff811115611891575f5ffd5b6020830191508360208285010111156118a8575f5ffd5b9250929050565b5f5f5f5f5f5f608087890312156118c4575f5ffd5b86359550602087013567ffffffffffffffff8111156118e1575f5ffd5b6118ed89828a0161186a565b909650945050604087013567ffffffffffffffff81111561190c575f5ffd5b61191889828a0161186a565b979a9699509497949695606090950135949350505050565b5f5f60408385031215611941575f5ffd5b61194a83611707565b91506020830135801515811461195e575f5ffd5b809150509250929050565b634e487b7160e01b5f52604160045260245ffd5b5f5f5f5f60808587031215611990575f5ffd5b61199985611707565b93506119a760208601611707565b925060408501359150606085013567ffffffffffffffff8111156119c9575f5ffd5b8501601f810187136119d9575f5ffd5b803567ffffffffffffffff8111156119f3576119f3611969565b604051601f8201601f19908116603f0116810167ffffffffffffffff81118282101715611a2257611a22611969565b604052818152828201602001891015611a39575f5ffd5b816020840160208301375f6020838301015280935050505092959194509250565b5f5f60408385031215611a6b575f5ffd5b611a7483611707565b9150611a8260208401611707565b90509250929050565b600181811c90821680611a9f57607f821691505b602082108103611abd57634e487b7160e01b5f52602260045260245ffd5b50919050565b634e487b7160e01b5f52603260045260245ffd5b634e487b7160e01b5f52601160045260245ffd5b8181038181111561035657610356611ad7565b8082018082111561035657610356611ad7565b601f821115610a2057805f5260205f20601f840160051c81016020851015611b365750805b601f840160051c820191505b81811015611061575f8155600101611b42565b815167ffffffffffffffff811115611b6f57611b6f611969565b611b8381611b7d8454611a8b565b84611b11565b6020601f821160018114611bb5575f8315611b9e5750848201515b5f19600385901b1c1916600184901b178455611061565b5f84815260208120601f198516915b82811015611be45787850151825560209485019460019092019101611bc4565b5084821015611c0157868401515f19600387901b60f8161c191681555b50505050600190811b01905550565b81835281816020850137505f828201602090810191909152601f909101601f19169091010190565b606081525f611c4b606083018789611c10565b8281036020840152611c5e818688611c10565b9150508260408301529695505050505050565b6001600160a01b03858116825284166020820152604081018390526080606082018190525f90611ca3908301846116b0565b9695505050505050565b5f60208284031215611cbd575f5ffd5b81516116a981611679565b634e487b7160e01b5f52603160045260245ffdfea2646970667358221220ac4368a833a539d48d3db005ff628b3bd7b75a47dc148d87a9fe1aa2c120a1b864736f6c634300081c0033",
  "linkReferences": {},
  "deployedLinkReferences": {},
  "immutableReferences": {},
  "inputSourceName": "project/contracts/AgentRegistry.sol",
  "buildInfoId": "solc-0_8_28-f0b09de1efd4096a29882ec37150c0ba1c15c3aa"
}