{
  "_format": "hh3-artifact-1",
  "contractName": "Committee",
  "sourceName": "contracts/Committee.sol",
  "abi": [
    {
      "anonymous": false,
      "inputs": [
        {
          "indexed": true,
          "internalType": "address",
          "name": "member",
          "type": "address"
        }
      ],
      "name": "MemberJoined",
      "type": "event"
    },
    {
      "anonymous": false,
      "inputs": [
        {
          "indexed": true,
          "internalType": "address",
          "name": "member",
          "type": "address"
        }
      ],
      "name": "MemberLeft",
      "type": "event"
    },
    {
      "anonymous": false,
      "inputs": [
        {
          "indexed": true,
          "internalType": "address",
          "name": "member",
          "type": "address"
        }
      ],
      "name": "MemberTimedOut",
      "type": "event"
    },
    {
      "inputs": [],
      "name": "HEARTBEAT_INTERVAL",
      "outputs": [
        {
          "internalType": "uint256",
          "name": "",
          "type": "uint256"
        }
      ],
      "stateMutability": "view",
      "type": "function"
    },
    {
      "inputs": [],
      "name": "claim",
      "outputs": [],
      "stateMutability": "nonpayable",
      "type": "function"
    },
    {
      "inputs": [
        {
          "internalType": "address[]",
          "name": "recipients",
          "type": "address[]"
        },
        {
          "internalType": "uint256[]",
          "name": "amounts",
          "type": "uint256[]"
        }
      ],
      "name": "deposit",
      "outputs": [],
      "stateMutability": "payable",
      "type": "function"
    },
    {
      "inputs": [
        {
          "internalType": "uint256",
          "name": "n",
          "type": "uint256"
        },
        {
          "internalType": "bytes32",
          "name": "seed",
          "type": "bytes32"
        }
      ],
      "name": "electSubcommittee",
      "outputs": [
        {
          "internalType": "address[]",
          "name": "",
          "type": "address[]"
        }
      ],
      "stateMutability": "view",
      "type": "function"
    },
    {
      "inputs": [],
      "name": "getActiveMembers",
      "outputs": [
        {
          "internalType": "address[]",
          "name": "",
          "type": "address[]"
        }
      ],
      "stateMutability": "view",
      "type": "function"
    },
    {
      "inputs": [],
      "name": "heartbeatMembership",
      "outputs": [],
      "stateMutability": "nonpayable",
      "type": "function"
    },
    {
      "inputs": [
        {
          "internalType": "address",
          "name": "addr",
          "type": "address"
        }
      ],
      "name": "isActive",
      "outputs": [
        {
          "internalType": "bool",
          "name": "",
          "type": "bool"
        }
      ],
      "stateMutability": "view",
      "type": "function"
    },
    {
      "inputs": [
        {
          "internalType": "address",
          "name": "",
          "type": "address"
        }
      ],
      "name": "lastHeartbeat",
      "outputs": [
        {
          "internalType": "uint256",
          "name": "",
          "type": "uint256"
        }
      ],
      "stateMutability": "view",
      "type": "function"
    },
    {
      "inputs": [],
      "name": "lastUpkeep",
      "outputs": [
        {
          "internalType": "uint256",
          "name": "",
          "type": "uint256"
        }
      ],
      "stateMutability": "view",
      "type": "function"
    },
    {
      "inputs": [],
      "name": "leaveMembership",
      "outputs": [],
      "stateMutability": "nonpayable",
      "type": "function"
    },
    {
      "inputs": [
        {
          "internalType": "uint256",
          "name": "",
          "type": "uint256"
        }
      ],
      "name": "members",
      "outputs": [
        {
          "internalType": "address",
          "name": "",
          "type": "address"
        }
      ],
      "stateMutability": "view",
      "type": "function"
    },
    {
      "inputs": [
        {
          "internalType": "address",
          "name": "",
          "type": "address"
        }
      ],
      "name": "pendingBalance",
      "outputs": [
        {
          "internalType": "uint256",
          "name": "",
          "type": "uint256"
        }
      ],
      "stateMutability": "view",
      "type": "function"
    }
  ],
  "bytecode": "0x6080604052348015600e575f5ffd5b50610d2a8061001c5f395ff3fe6080604052600436106100a5575f3560e01c80634e71d92d116100625780634e71d92d146101725780635daf08ca146101865780637d8e3776146101bd5780639f8a13d7146101d1578063b4615b8d14610218578063efc908a114610237575f5ffd5b80631b014a92146100a95780632220967e146100bf57806334d1c8fe146100fd5780633736f85d146101115780633d7c5d3e1461013c5780634876aebc14610151575b5f5ffd5b3480156100b4575f5ffd5b506100bd61024a565b005b3480156100ca575f5ffd5b506100ea6100d9366004610ae4565b5f6020819052908152604090205481565b6040519081526020015b60405180910390f35b348015610108575f5ffd5b506100ea603c81565b34801561011c575f5ffd5b506100ea61012b366004610ae4565b60056020525f908152604090205481565b348015610147575f5ffd5b506100ea60045481565b34801561015c575f5ffd5b50610165610305565b6040516100f49190610b11565b34801561017d575f5ffd5b506100bd610365565b348015610191575f5ffd5b506101a56101a0366004610b5c565b61046e565b6040516001600160a01b0390911681526020016100f4565b3480156101c8575f5ffd5b506100bd610496565b3480156101dc575f5ffd5b506102086101eb366004610ae4565b6001600160a01b03165f9081526001602052604090205460ff1690565b60405190151581526020016100f4565b348015610223575f5ffd5b50610165610232366004610b73565b610518565b6100bd610245366004610bdb565b6107a7565b335f9081526001602052604090205460ff166102ea57335f818152600160208181526040808420805460ff19168417905560038054600290935281852083905592820183559183527fc2575a0e9e593c00f959f8c92f12db2869c3395a3b0502d05e2516446f71f85b0180546001600160a01b03191684179055517f0abf3b3f643594d958297062a019458e27d7766629590ac621aa1000fa1298ab9190a25b335f9081526020819052604090204290556103036108fc565b565b6060600380548060200260200160405190810160405280929190818152602001828054801561035b57602002820191905f5260205f20905b81546001600160a01b0316815260019091019060200180831161033d575b5050505050905090565b335f90815260056020526040902054806103c65760405162461bcd60e51b815260206004820152601e60248201527f436f6d6d69747465653a206e6f2062616c616e636520746f20636c61696d000060448201526064015b60405180910390fd5b335f818152600560205260408082208290555190919083908381818185875af1925050503d805f8114610414576040519150601f19603f3d011682016040523d82523d5f602084013e610419565b606091505b505090508061046a5760405162461bcd60e51b815260206004820152601a60248201527f436f6d6d69747465653a207472616e73666572206661696c656400000000000060448201526064016103bd565b5050565b6003818154811061047d575f80fd5b5f918252602090912001546001600160a01b0316905081565b335f9081526001602052604090205460ff166104e35760405162461bcd60e51b815260206004820152600c60248201526b2737ba10309036b2b6b132b960a11b60448201526064016103bd565b6104ec336109c8565b60405133907fbea911b50ccdd2233b28faa49766c3cbd0631608f32e5a724d7b83b32b681ad0905f90a2565b60035460609083111561056d5760405162461bcd60e51b815260206004820152601860248201527f6e206578636565647320616374697665206d656d62657273000000000000000060448201526064016103bd565b6003545f9067ffffffffffffffff81111561058a5761058a610c47565b6040519080825280602002602001820160405280156105b3578160200160208202803683370190505b5090505f5b60035481101561062257600381815481106105d5576105d5610c5b565b905f5260205f20015f9054906101000a90046001600160a01b031682828151811061060257610602610c5b565b6001600160a01b03909216602092830291909101909101526001016105b8565b505f5b848110156106ff575f81835161063b9190610c83565b6040805160208101889052908101849052606001604051602081830303815290604052805190602001205f1c6106719190610c96565b61067b9083610cb5565b905082818151811061068f5761068f610c5b565b60200260200101518383815181106106a9576106a9610c5b565b60200260200101518484815181106106c3576106c3610c5b565b602002602001018584815181106106dc576106dc610c5b565b6001600160a01b0393841660209182029290920101529116905250600101610625565b505f8467ffffffffffffffff81111561071a5761071a610c47565b604051908082528060200260200182016040528015610743578160200160208202803683370190505b5090505f5b8581101561079c5782818151811061076257610762610c5b565b602002602001015182828151811061077c5761077c610c5b565b6001600160a01b0390921660209283029190910190910152600101610748565b509150505b92915050565b8281146107f65760405162461bcd60e51b815260206004820152601a60248201527f436f6d6d69747465653a206c656e677468206d69736d6174636800000000000060448201526064016103bd565b5f805b848110156108a55783838281811061081357610813610c5b565b9050602002013560055f88888581811061082f5761082f610c5b565b90506020020160208101906108449190610ae4565b6001600160a01b03166001600160a01b031681526020019081526020015f205f8282546108719190610cb5565b90915550849050838281811061088957610889610c5b565b905060200201358261089b9190610cb5565b91506001016107f9565b503481146108f55760405162461bcd60e51b815260206004820152601a60248201527f436f6d6d69747465653a20616d6f756e74206d69736d6174636800000000000060448201526064016103bd565b5050505050565b60045461090a90603c610cb5565b42101561091357565b426004555f5b6003548110156109c5575f6003828154811061093757610937610c5b565b5f9182526020808320909101546001600160a01b03168083529082905260409091205490915061096990603c90610cb5565b4211156109b2576040516001600160a01b038216907f5cbefdc17ccc7de9d328cad2e21d7a81792fde804bd21942daa04c1e2171bd1e905f90a26109ac816109c8565b50610919565b816109bc81610cc8565b92505050610919565b50565b6001600160a01b0381165f908152600260205260408120546003549091906109f290600190610c83565b9050808214610a77575f60038281548110610a0f57610a0f610c5b565b5f91825260209091200154600380546001600160a01b039092169250829185908110610a3d57610a3d610c5b565b5f91825260208083209190910180546001600160a01b0319166001600160a01b039485161790559290911681526002909152604090208290555b6003805480610a8857610a88610ce0565b5f828152602080822083015f1990810180546001600160a01b03191690559092019092556001600160a01b03949094168152600184526040808220805460ff191690556002855280822082905593819052928320929092555050565b5f60208284031215610af4575f5ffd5b81356001600160a01b0381168114610b0a575f5ffd5b9392505050565b602080825282518282018190525f918401906040840190835b81811015610b515783516001600160a01b0316835260209384019390920191600101610b2a565b509095945050505050565b5f60208284031215610b6c575f5ffd5b5035919050565b5f5f60408385031215610b84575f5ffd5b50508035926020909101359150565b5f5f83601f840112610ba3575f5ffd5b50813567ffffffffffffffff811115610bba575f5ffd5b6020830191508360208260051b8501011115610bd4575f5ffd5b9250929050565b5f5f5f5f60408587031215610bee575f5ffd5b843567ffffffffffffffff811115610c04575f5ffd5b610c1087828801610b93565b909550935050602085013567ffffffffffffffff811115610c2f575f5ffd5b610c3b87828801610b93565b95989497509550505050565b634e487b7160e01b5f52604160045260245ffd5b634e487b7160e01b5f52603260045260245ffd5b634e487b7160e01b5f52601160045260245ffd5b818103818111156107a1576107a1610c6f565b5f82610cb057634e487b7160e01b5f52601260045260245ffd5b500690565b808201808211156107a1576107a1610c6f565b5f60018201610cd957610cd9610c6f565b5060010190565b634e487b7160e01b5f52603160045260245ffdfea2646970667358221220c32f68d799817c2c86ee03635a503191074cb3e4a0484420a952060e5942bf7764736f6c634300081c0033",
  "linkReferences": {},
  "deployedLinkReferences": {},
  "immutableReferences": {},
  "inputSourceName": "project/contracts/Committee.sol",
  "buildInfoId": "solc-0_8_28-855f69e19e6861ba60549cfdfc6b86016ec220d0"
}