{
  "_format": "hh3-artifact-1",
  "contractName": "Committee",
  "sourceName": "contracts/Committee.sol",
  "abi": [
    {
      "anonymous": false,
      "inputs": [
        {
          "indexed": true,
          "internalType": "address",
          "name": "member",
          "type": "address"
        }
      ],
      "name": "MemberJoined",
      "type": "event"
    },
    {
      "anonymous": false,
      "inputs": [
        {
          "indexed": true,
          "internalType": "address",
          "name": "member",
          "type": "address"
        }
      ],
      "name": "MemberLeft",
      "type": "event"
    },
    {
      "anonymous": false,
      "inputs": [
        {
          "indexed": true,
          "internalType": "address",
          "name": "member",
          "type": "address"
        }
      ],
      "name": "MemberTimedOut",
      "type": "event"
    },
    {
      "inputs": [],
      "name": "HEARTBEAT_INTERVAL",
      "outputs": [
        {
          "internalType": "uint256",
          "name": "",
          "type": "uint256"
        }
      ],
      "stateMutability": "view",
      "type": "function"
    },
    {
      "inputs": [
        {
          "internalType": "uint256",
          "name": "n",
          "type": "uint256"
        },
        {
          "internalType": "bytes32",
          "name": "seed",
          "type": "bytes32"
        }
      ],
      "name": "electSubcommittee",
      "outputs": [
        {
          "internalType": "address[]",
          "name": "",
          "type": "address[]"
        }
      ],
      "stateMutability": "view",
      "type": "function"
    },
    {
      "inputs": [],
      "name": "getActiveMembers",
      "outputs": [
        {
          "internalType": "address[]",
          "name": "",
          "type": "address[]"
        }
      ],
      "stateMutability": "view",
      "type": "function"
    },
    {
      "inputs": [],
      "name": "heartbeatMembership",
      "outputs": [],
      "stateMutability": "nonpayable",
      "type": "function"
    },
    {
      "inputs": [
        {
          "internalType": "address",
          "name": "addr",
          "type": "address"
        }
      ],
      "name": "isActive",
      "outputs": [
        {
          "internalType": "bool",
          "name": "",
          "type": "bool"
        }
      ],
      "stateMutability": "view",
      "type": "function"
    },
    {
      "inputs": [
        {
          "internalType": "address",
          "name": "",
          "type": "address"
        }
      ],
      "name": "lastHeartbeat",
      "outputs": [
        {
          "internalType": "uint256",
          "name": "",
          "type": "uint256"
        }
      ],
      "stateMutability": "view",
      "type": "function"
    },
    {
      "inputs": [],
      "name": "lastUpkeep",
      "outputs": [
        {
          "internalType": "uint256",
          "name": "",
          "type": "uint256"
        }
      ],
      "stateMutability": "view",
      "type": "function"
    },
    {
      "inputs": [],
      "name": "leaveMembership",
      "outputs": [],
      "stateMutability": "nonpayable",
      "type": "function"
    },
    {
      "inputs": [
        {
          "internalType": "uint256",
          "name": "",
          "type": "uint256"
        }
      ],
      "name": "members",
      "outputs": [
        {
          "internalType": "address",
          "name": "",
          "type": "address"
        }
      ],
      "stateMutability": "view",
      "type": "function"
    },
    {
      "inputs": [],
      "name": "upkeep",
      "outputs": [],
      "stateMutability": "nonpayable",
      "type": "function"
    }
  ],
  "bytecode": "0x6080604052348015600e575f5ffd5b506109658061001c5f395ff3fe608060405234801561000f575f5ffd5b506004361061009b575f3560e01c80634876aebc116100635780634876aebc146100f45780635daf08ca146101095780637d8e3776146101345780639f8a13d71461013c578063b4615b8d14610177575f5ffd5b80631b014a921461009f5780632220967e146100a95780632cf4704a146100db57806334d1c8fe146100e35780633d7c5d3e146100eb575b5f5ffd5b6100a761018a565b005b6100c86100b73660046107d3565b5f6020819052908152604090205481565b6040519081526020015b60405180910390f35b6100a7610245565b6100c8603c81565b6100c860045481565b6100fc61024d565b6040516100d29190610800565b61011c61011736600461084b565b6102ad565b6040516001600160a01b0390911681526020016100d2565b6100a76102d5565b61016761014a3660046107d3565b6001600160a01b03165f9081526001602052604090205460ff1690565b60405190151581526020016100d2565b6100fc610185366004610862565b61035c565b335f9081526001602052604090205460ff1661022a57335f818152600160208181526040808420805460ff19168417905560038054600290935281852083905592820183559183527fc2575a0e9e593c00f959f8c92f12db2869c3395a3b0502d05e2516446f71f85b0180546001600160a01b03191684179055517f0abf3b3f643594d958297062a019458e27d7766629590ac621aa1000fa1298ab9190a25b335f9081526020819052604090204290556102436105eb565b565b6102436105eb565b606060038054806020026020016040519081016040528092919081815260200182805480156102a357602002820191905f5260205f20905b81546001600160a01b03168152600190910190602001808311610285575b5050505050905090565b600381815481106102bc575f80fd5b5f918252602090912001546001600160a01b0316905081565b335f9081526001602052604090205460ff166103275760405162461bcd60e51b815260206004820152600c60248201526b2737ba10309036b2b6b132b960a11b60448201526064015b60405180910390fd5b610330336106b7565b60405133907fbea911b50ccdd2233b28faa49766c3cbd0631608f32e5a724d7b83b32b681ad0905f90a2565b6003546060908311156103b15760405162461bcd60e51b815260206004820152601860248201527f6e206578636565647320616374697665206d656d626572730000000000000000604482015260640161031e565b6003545f9067ffffffffffffffff8111156103ce576103ce610882565b6040519080825280602002602001820160405280156103f7578160200160208202803683370190505b5090505f5b600354811015610466576003818154811061041957610419610896565b905f5260205f20015f9054906101000a90046001600160a01b031682828151811061044657610446610896565b6001600160a01b03909216602092830291909101909101526001016103fc565b505f5b84811015610543575f81835161047f91906108be565b6040805160208101889052908101849052606001604051602081830303815290604052805190602001205f1c6104b591906108d1565b6104bf90836108f0565b90508281815181106104d3576104d3610896565b60200260200101518383815181106104ed576104ed610896565b602002602001015184848151811061050757610507610896565b6020026020010185848151811061052057610520610896565b6001600160a01b0393841660209182029290920101529116905250600101610469565b505f8467ffffffffffffffff81111561055e5761055e610882565b604051908082528060200260200182016040528015610587578160200160208202803683370190505b5090505f5b858110156105e0578281815181106105a6576105a6610896565b60200260200101518282815181106105c0576105c0610896565b6001600160a01b039092166020928302919091019091015260010161058c565b509150505b92915050565b6004546105f990603c6108f0565b42101561060257565b426004555f5b6003548110156106b4575f6003828154811061062657610626610896565b5f9182526020808320909101546001600160a01b03168083529082905260409091205490915061065890603c906108f0565b4211156106a1576040516001600160a01b038216907f5cbefdc17ccc7de9d328cad2e21d7a81792fde804bd21942daa04c1e2171bd1e905f90a261069b816106b7565b50610608565b816106ab81610903565b92505050610608565b50565b6001600160a01b0381165f908152600260205260408120546003549091906106e1906001906108be565b9050808214610766575f600382815481106106fe576106fe610896565b5f91825260209091200154600380546001600160a01b03909216925082918590811061072c5761072c610896565b5f91825260208083209190910180546001600160a01b0319166001600160a01b039485161790559290911681526002909152604090208290555b60038054806107775761077761091b565b5f828152602080822083015f1990810180546001600160a01b03191690559092019092556001600160a01b03949094168152600184526040808220805460ff191690556002855280822082905593819052928320929092555050565b5f602082840312156107e3575f5ffd5b81356001600160a01b03811681146107f9575f5ffd5b9392505050565b602080825282518282018190525f918401906040840190835b818110156108405783516001600160a01b0316835260209384019390920191600101610819565b509095945050505050565b5f6020828403121561085b575f5ffd5b5035919050565b5f5f60408385031215610873575f5ffd5b50508035926020909101359150565b634e487b7160e01b5f52604160045260245ffd5b634e487b7160e01b5f52603260045260245ffd5b634e487b7160e01b5f52601160045260245ffd5b818103818111156105e5576105e56108aa565b5f826108eb57634e487b7160e01b5f52601260045260245ffd5b500690565b808201808211156105e5576105e56108aa565b5f60018201610914576109146108aa565b5060010190565b634e487b7160e01b5f52603160045260245ffdfea2646970667358221220aa52b992ee6dd65a9897f9cfae37c70636d824fca97d9f80d658b2805680e97a64736f6c634300081c0033",
  "linkReferences": {},
  "deployedLinkReferences": {},
  "immutableReferences": {},
  "inputSourceName": "project/contracts/Committee.sol",
  "buildInfoId": "solc-0_8_28-a9294d832784da525ccf442c19c3a25ad29e1c24"
}