{
  "_format": "hh3-artifact-1",
  "contractName": "SomniaAgents",
  "sourceName": "contracts/SomniaAgents.sol",
  "abi": [
    {
      "inputs": [
        {
          "internalType": "uint256",
          "name": "bufferSize",
          "type": "uint256"
        },
        {
          "internalType": "address",
          "name": "_agentRegistry",
          "type": "address"
        },
        {
          "internalType": "address",
          "name": "_committee",
          "type": "address"
        }
      ],
      "stateMutability": "nonpayable",
      "type": "constructor"
    },
    {
      "anonymous": false,
      "inputs": [
        {
          "indexed": true,
          "internalType": "uint256",
          "name": "requestId",
          "type": "uint256"
        },
        {
          "indexed": true,
          "internalType": "uint256",
          "name": "agentId",
          "type": "uint256"
        },
        {
          "indexed": true,
          "internalType": "address",
          "name": "requester",
          "type": "address"
        },
        {
          "indexed": false,
          "internalType": "uint256",
          "name": "maxCost",
          "type": "uint256"
        },
        {
          "indexed": false,
          "internalType": "bytes",
          "name": "payload",
          "type": "bytes"
        },
        {
          "indexed": false,
          "internalType": "address[]",
          "name": "subcommittee",
          "type": "address[]"
        }
      ],
      "name": "RequestCreated",
      "type": "event"
    },
    {
      "anonymous": false,
      "inputs": [
        {
          "indexed": true,
          "internalType": "uint256",
          "name": "requestId",
          "type": "uint256"
        },
        {
          "indexed": false,
          "internalType": "uint256",
          "name": "finalCost",
          "type": "uint256"
        },
        {
          "indexed": false,
          "internalType": "uint256",
          "name": "rebate",
          "type": "uint256"
        }
      ],
      "name": "RequestFinalized",
      "type": "event"
    },
    {
      "anonymous": false,
      "inputs": [
        {
          "indexed": true,
          "internalType": "uint256",
          "name": "requestId",
          "type": "uint256"
        }
      ],
      "name": "RequestTimedOut",
      "type": "event"
    },
    {
      "anonymous": false,
      "inputs": [
        {
          "indexed": true,
          "internalType": "uint256",
          "name": "requestId",
          "type": "uint256"
        },
        {
          "indexed": true,
          "internalType": "address",
          "name": "validator",
          "type": "address"
        }
      ],
      "name": "ResponseSubmitted",
      "type": "event"
    },
    {
      "inputs": [],
      "name": "agentRegistry",
      "outputs": [
        {
          "internalType": "contract IAgentRegistry",
          "name": "",
          "type": "address"
        }
      ],
      "stateMutability": "view",
      "type": "function"
    },
    {
      "inputs": [],
      "name": "callbackGasLimit",
      "outputs": [
        {
          "internalType": "uint256",
          "name": "",
          "type": "uint256"
        }
      ],
      "stateMutability": "view",
      "type": "function"
    },
    {
      "inputs": [],
      "name": "committee",
      "outputs": [
        {
          "internalType": "contract ICommittee",
          "name": "",
          "type": "address"
        }
      ],
      "stateMutability": "view",
      "type": "function"
    },
    {
      "inputs": [
        {
          "internalType": "uint256",
          "name": "agentId",
          "type": "uint256"
        },
        {
          "internalType": "address",
          "name": "callbackAddress",
          "type": "address"
        },
        {
          "internalType": "bytes4",
          "name": "callbackSelector",
          "type": "bytes4"
        },
        {
          "internalType": "bytes",
          "name": "payload",
          "type": "bytes"
        }
      ],
      "name": "createRequest",
      "outputs": [
        {
          "internalType": "uint256",
          "name": "requestId",
          "type": "uint256"
        }
      ],
      "stateMutability": "payable",
      "type": "function"
    },
    {
      "inputs": [
        {
          "internalType": "uint256",
          "name": "agentId",
          "type": "uint256"
        },
        {
          "internalType": "address",
          "name": "callbackAddress",
          "type": "address"
        },
        {
          "internalType": "bytes4",
          "name": "callbackSelector",
          "type": "bytes4"
        },
        {
          "internalType": "bytes",
          "name": "payload",
          "type": "bytes"
        },
        {
          "internalType": "uint256",
          "name": "subcommitteeSize",
          "type": "uint256"
        },
        {
          "internalType": "uint256",
          "name": "threshold",
          "type": "uint256"
        },
        {
          "internalType": "enum ConsensusType",
          "name": "consensusType",
          "type": "uint8"
        }
      ],
      "name": "createRequestWithParams",
      "outputs": [
        {
          "internalType": "uint256",
          "name": "requestId",
          "type": "uint256"
        }
      ],
      "stateMutability": "payable",
      "type": "function"
    },
    {
      "inputs": [],
      "name": "defaultSubcommitteeSize",
      "outputs": [
        {
          "internalType": "uint256",
          "name": "",
          "type": "uint256"
        }
      ],
      "stateMutability": "view",
      "type": "function"
    },
    {
      "inputs": [],
      "name": "defaultThreshold",
      "outputs": [
        {
          "internalType": "uint256",
          "name": "",
          "type": "uint256"
        }
      ],
      "stateMutability": "view",
      "type": "function"
    },
    {
      "inputs": [
        {
          "internalType": "uint256",
          "name": "requestId",
          "type": "uint256"
        }
      ],
      "name": "getRequest",
      "outputs": [
        {
          "internalType": "address",
          "name": "requester",
          "type": "address"
        },
        {
          "internalType": "address",
          "name": "callbackAddress",
          "type": "address"
        },
        {
          "internalType": "bytes4",
          "name": "callbackSelector",
          "type": "bytes4"
        },
        {
          "internalType": "address[]",
          "name": "subcommittee",
          "type": "address[]"
        },
        {
          "internalType": "uint256",
          "name": "threshold",
          "type": "uint256"
        },
        {
          "internalType": "uint256",
          "name": "createdAt",
          "type": "uint256"
        },
        {
          "internalType": "bool",
          "name": "finalized",
          "type": "bool"
        },
        {
          "internalType": "uint256",
          "name": "responseCount",
          "type": "uint256"
        },
        {
          "internalType": "enum ConsensusType",
          "name": "consensusType",
          "type": "uint8"
        },
        {
          "internalType": "uint256",
          "name": "agentCost",
          "type": "uint256"
        },
        {
          "internalType": "uint256",
          "name": "maxCost",
          "type": "uint256"
        },
        {
          "internalType": "uint256",
          "name": "finalCost",
          "type": "uint256"
        }
      ],
      "stateMutability": "view",
      "type": "function"
    },
    {
      "inputs": [
        {
          "internalType": "uint256",
          "name": "requestId",
          "type": "uint256"
        }
      ],
      "name": "getResponses",
      "outputs": [
        {
          "components": [
            {
              "internalType": "address",
              "name": "validator",
              "type": "address"
            },
            {
              "internalType": "bytes",
              "name": "result",
              "type": "bytes"
            },
            {
              "internalType": "uint256",
              "name": "receipt",
              "type": "uint256"
            },
            {
              "internalType": "uint256",
              "name": "price",
              "type": "uint256"
            },
            {
              "internalType": "uint256",
              "name": "timestamp",
              "type": "uint256"
            }
          ],
          "internalType": "struct Response[]",
          "name": "",
          "type": "tuple[]"
        }
      ],
      "stateMutability": "view",
      "type": "function"
    },
    {
      "inputs": [
        {
          "internalType": "uint256",
          "name": "requestId",
          "type": "uint256"
        }
      ],
      "name": "getSubcommittee",
      "outputs": [
        {
          "internalType": "address[]",
          "name": "",
          "type": "address[]"
        }
      ],
      "stateMutability": "view",
      "type": "function"
    },
    {
      "inputs": [
        {
          "internalType": "uint256",
          "name": "requestId",
          "type": "uint256"
        }
      ],
      "name": "isRequestPending",
      "outputs": [
        {
          "internalType": "bool",
          "name": "",
          "type": "bool"
        }
      ],
      "stateMutability": "view",
      "type": "function"
    },
    {
      "inputs": [
        {
          "internalType": "uint256",
          "name": "requestId",
          "type": "uint256"
        }
      ],
      "name": "isRequestValid",
      "outputs": [
        {
          "internalType": "bool",
          "name": "",
          "type": "bool"
        }
      ],
      "stateMutability": "view",
      "type": "function"
    },
    {
      "inputs": [
        {
          "internalType": "uint256",
          "name": "requestId",
          "type": "uint256"
        },
        {
          "internalType": "address",
          "name": "addr",
          "type": "address"
        }
      ],
      "name": "isSubcommitteeMember",
      "outputs": [
        {
          "internalType": "bool",
          "name": "",
          "type": "bool"
        }
      ],
      "stateMutability": "view",
      "type": "function"
    },
    {
      "inputs": [],
      "name": "maxExecutionFee",
      "outputs": [
        {
          "internalType": "uint256",
          "name": "",
          "type": "uint256"
        }
      ],
      "stateMutability": "view",
      "type": "function"
    },
    {
      "inputs": [],
      "name": "nextRequestId",
      "outputs": [
        {
          "internalType": "uint256",
          "name": "",
          "type": "uint256"
        }
      ],
      "stateMutability": "view",
      "type": "function"
    },
    {
      "inputs": [],
      "name": "oldestPendingId",
      "outputs": [
        {
          "internalType": "uint256",
          "name": "",
          "type": "uint256"
        }
      ],
      "stateMutability": "view",
      "type": "function"
    },
    {
      "inputs": [],
      "name": "owner",
      "outputs": [
        {
          "internalType": "address",
          "name": "",
          "type": "address"
        }
      ],
      "stateMutability": "view",
      "type": "function"
    },
    {
      "inputs": [],
      "name": "requestTimeout",
      "outputs": [
        {
          "internalType": "uint256",
          "name": "",
          "type": "uint256"
        }
      ],
      "stateMutability": "view",
      "type": "function"
    },
    {
      "inputs": [
        {
          "internalType": "uint256",
          "name": "",
          "type": "uint256"
        }
      ],
      "name": "requests",
      "outputs": [
        {
          "internalType": "uint256",
          "name": "id",
          "type": "uint256"
        },
        {
          "internalType": "address",
          "name": "requester",
          "type": "address"
        },
        {
          "internalType": "address",
          "name": "callbackAddress",
          "type": "address"
        },
        {
          "internalType": "bytes4",
          "name": "callbackSelector",
          "type": "bytes4"
        },
        {
          "internalType": "uint256",
          "name": "threshold",
          "type": "uint256"
        },
        {
          "internalType": "uint256",
          "name": "createdAt",
          "type": "uint256"
        },
        {
          "internalType": "bool",
          "name": "finalized",
          "type": "bool"
        },
        {
          "internalType": "enum ConsensusType",
          "name": "consensusType",
          "type": "uint8"
        },
        {
          "internalType": "uint256",
          "name": "agentCost",
          "type": "uint256"
        },
        {
          "internalType": "uint256",
          "name": "maxCost",
          "type": "uint256"
        },
        {
          "internalType": "uint256",
          "name": "finalCost",
          "type": "uint256"
        }
      ],
      "stateMutability": "view",
      "type": "function"
    },
    {
      "inputs": [
        {
          "internalType": "address",
          "name": "_agentRegistry",
          "type": "address"
        }
      ],
      "name": "setAgentRegistry",
      "outputs": [],
      "stateMutability": "nonpayable",
      "type": "function"
    },
    {
      "inputs": [
        {
          "internalType": "uint256",
          "name": "gasLimit",
          "type": "uint256"
        }
      ],
      "name": "setCallbackGasLimit",
      "outputs": [],
      "stateMutability": "nonpayable",
      "type": "function"
    },
    {
      "inputs": [
        {
          "internalType": "address",
          "name": "_committee",
          "type": "address"
        }
      ],
      "name": "setCommittee",
      "outputs": [],
      "stateMutability": "nonpayable",
      "type": "function"
    },
    {
      "inputs": [
        {
          "internalType": "uint256",
          "name": "size",
          "type": "uint256"
        }
      ],
      "name": "setDefaultSubcommitteeSize",
      "outputs": [],
      "stateMutability": "nonpayable",
      "type": "function"
    },
    {
      "inputs": [
        {
          "internalType": "uint256",
          "name": "threshold",
          "type": "uint256"
        }
      ],
      "name": "setDefaultThreshold",
      "outputs": [],
      "stateMutability": "nonpayable",
      "type": "function"
    },
    {
      "inputs": [
        {
          "internalType": "uint256",
          "name": "maxFee",
          "type": "uint256"
        }
      ],
      "name": "setMaxExecutionFee",
      "outputs": [],
      "stateMutability": "nonpayable",
      "type": "function"
    },
    {
      "inputs": [
        {
          "internalType": "uint256",
          "name": "timeout",
          "type": "uint256"
        }
      ],
      "name": "setRequestTimeout",
      "outputs": [],
      "stateMutability": "nonpayable",
      "type": "function"
    },
    {
      "inputs": [
        {
          "internalType": "uint256",
          "name": "requestId",
          "type": "uint256"
        },
        {
          "internalType": "bytes",
          "name": "result",
          "type": "bytes"
        },
        {
          "internalType": "uint256",
          "name": "receipt",
          "type": "uint256"
        },
        {
          "internalType": "uint256",
          "name": "price",
          "type": "uint256"
        }
      ],
      "name": "submitResponse",
      "outputs": [],
      "stateMutability": "nonpayable",
      "type": "function"
    },
    {
      "inputs": [
        {
          "internalType": "uint256",
          "name": "requestId",
          "type": "uint256"
        }
      ],
      "name": "timeoutRequest",
      "outputs": [],
      "stateMutability": "nonpayable",
      "type": "function"
    },
    {
      "inputs": [
        {
          "internalType": "address",
          "name": "newOwner",
          "type": "address"
        }
      ],
      "name": "transferOwnership",
      "outputs": [],
      "stateMutability": "nonpayable",
      "type": "function"
    },
    {
      "inputs": [],
      "name": "upkeepRequests",
      "outputs": [],
      "stateMutability": "nonpayable",
      "type": "function"
    }
  ],
  "bytecode": "0x608060405260036005556002600655603c6007556207a120600855670de0b6b3a7640000600955348015610031575f5ffd5b50604051613134380380613134833981016040819052610050916100cb565b5f8054336001600160a01b03199182161782556001805482166001600160a01b0386811691909117909155600280549092169084161790555b838110156100a757600a8054600190810182555f9190915201610089565b50505050610104565b80516001600160a01b03811681146100c6575f5ffd5b919050565b5f5f5f606084860312156100dd575f5ffd5b835192506100ed602085016100b0565b91506100fb604085016100b0565b90509250925092565b613023806101115f395ff3fe6080604052600436106101c5575f3560e01c80637df29c71116100f2578063a264b4bb11610092578063d864e74011610062578063d864e74014610508578063f09a952314610527578063f2fde38b1461053c578063fb5c92fe1461055b575f5ffd5b8063a264b4bb14610474578063bddae40e14610493578063c5246bf5146104b2578063c58343ef146104d1575f5ffd5b80638a54942f116100cd5780638a54942f146104055780638bbcbbe2146104245780638da5cb5b1461043757806398159f1714610455575f5ffd5b80637df29c711461039c57806381d12c58146103bb57806387c701c3146103f1575f5ffd5b806333021a6611610168578063622b6af411610138578063622b6af41461031d5780636512f1111461033c5780636a84a9851461035b57806371ee2ce114610370575f5ffd5b806333021a66146102c15780633f20b4c9146102d457806340939cb8146102e957806353f10a4b14610308575f5ffd5b806324f74697116101a357806324f746971461025757806326949f9e1461026c57806328342ecf146102815780632d3abd63146102a2575f5ffd5b80630d1cfcae146101c957806316221fdf146102055780631abd5caa14610234575b5f5ffd5b3480156101d4575f5ffd5b506001546101e8906001600160a01b031681565b6040516001600160a01b0390911681526020015b60405180910390f35b348015610210575f5ffd5b5061022461021f3660046125b0565b610587565b60405190151581526020016101fc565b34801561023f575f5ffd5b5061024960055481565b6040519081526020016101fc565b348015610262575f5ffd5b5061024960085481565b348015610277575f5ffd5b5061024960095481565b34801561028c575f5ffd5b506102a061029b3660046125db565b6105f6565b005b3480156102ad575f5ffd5b506102a06102bc366004612633565b61064a565b6102496102cf3660046126a7565b610915565b3480156102df575f5ffd5b5061024960075481565b3480156102f4575f5ffd5b506102a06103033660046125b0565b610933565b348015610313575f5ffd5b5061024960065481565b348015610328575f5ffd5b506102a06103373660046125b0565b6109b0565b348015610347575f5ffd5b506102246103563660046125b0565b6109de565b348015610366575f5ffd5b5061024960035481565b34801561037b575f5ffd5b5061038f61038a3660046125b0565b610a17565b6040516101fc9190612768565b3480156103a7575f5ffd5b506102a06103b63660046125b0565b610b8e565b3480156103c6575f5ffd5b506103da6103d53660046125b0565b610bf7565b6040516101fc9b9a9998979695949392919061283f565b3480156103fc575f5ffd5b506102a0610c74565b348015610410575f5ffd5b506102a061041f3660046125b0565b610d1d565b6102496104323660046128b6565b610d4b565b348015610442575f5ffd5b505f546101e8906001600160a01b031681565b348015610460575f5ffd5b5061022461046f366004612921565b610d6a565b34801561047f575f5ffd5b506102a061048e3660046125b0565b610dc1565b34801561049e575f5ffd5b506102a06104ad3660046125db565b610def565b3480156104bd575f5ffd5b506102a06104cc3660046125b0565b610e3a565b3480156104dc575f5ffd5b506104f06104eb3660046125b0565b610ec3565b6040516101fc9c9b9a99989796959493929190612992565b348015610513575f5ffd5b506002546101e8906001600160a01b031681565b348015610532575f5ffd5b5061024960045481565b348015610547575f5ffd5b506102a06105563660046125db565b611007565b348015610566575f5ffd5b5061057a6105753660046125b0565b6110b7565b6040516101fc9190612a1e565b600a80545f9182916105999085612a44565b815481106105a9576105a9612a57565b905f5260205f2090600b0201905082815f0154146105c957505f92915050565b600781015460ff161580156105ef575060075481600601546105eb9190612a7f565b4211155b9392505050565b5f546001600160a01b031633146106285760405162461bcd60e51b815260040161061f90612a92565b60405180910390fd5b600180546001600160a01b0319166001600160a01b0392909216919091179055565b600a54158015906106885750600a80548691906106679083612a44565b8154811061067757610677612a57565b905f5260205f2090600b02015f0154145b6106a45760405162461bcd60e51b815260040161061f90612ad7565b6106ae853361116d565b61070a5760405162461bcd60e51b815260206004820152602760248201527f536f6d6e69614167656e74733a206e6f74206120737562636f6d6d69747465656044820152661036b2b6b132b960c91b606482015260840161061f565b600a80545f919061071b9088612a44565b8154811061072b5761072b612a57565b905f5260205f2090600b02019050600754816006015461074b9190612a7f565b42111561079a5760405162461bcd60e51b815260206004820152601f60248201527f536f6d6e69614167656e74733a20726571756573742074696d6564206f757400604482015260640161061f565b6107a78160040133611213565b156107f45760405162461bcd60e51b815260206004820152601f60248201527f536f6d6e69614167656e74733a20616c726561647920726573706f6e64656400604482015260640161061f565b600781015460ff1615610807575061090e565b806004016040518060a00160405280336001600160a01b0316815260200187878080601f0160208091040260200160405190810160405280939291908181526020018383808284375f9201829052509385525050506020808301889052604083018790524260609093019290925283546001808201865594825290829020835160059092020180546001600160a01b0319166001600160a01b039092169190911781559082015191929091908201906108c09082612bb4565b5060408281015160028301556060830151600383015560809092015160049091015551339087907fd34a91eddebc3a46f0193e4f54124f90bd00de34c64b5407562def103949d006905f90a3505b5050505050565b5f6109268989898989898989611274565b9998505050505050505050565b5f546001600160a01b0316331461095c5760405162461bcd60e51b815260040161061f90612a92565b5f81116109ab5760405162461bcd60e51b815260206004820152601e60248201527f536f6d6e69614167656e74733a2073697a65206d757374206265203e20300000604482015260640161061f565b600555565b5f546001600160a01b031633146109d95760405162461bcd60e51b815260040161061f90612a92565b600755565b600a80545f9183916109f09083612a44565b81548110610a0057610a00612a57565b905f5260205f2090600b02015f0154149050919050565b600a80546060915f91610a2a9085612a44565b81548110610a3a57610a3a612a57565b905f5260205f2090600b0201905082815f015414610a6a5760405162461bcd60e51b815260040161061f90612ad7565b80600401805480602002602001604051908101604052809291908181526020015f905b82821015610b82575f8481526020908190206040805160a081019091526005850290910180546001600160a01b031682526001810180549293919291840191610ad590612b39565b80601f0160208091040260200160405190810160405280929190818152602001828054610b0190612b39565b8015610b4c5780601f10610b2357610100808354040283529160200191610b4c565b820191905f5260205f20905b815481529060010190602001808311610b2f57829003601f168201915b50505050508152602001600282015481526020016003820154815260200160048201548152505081526020019060010190610a8d565b50505050915050919050565b600a54819015801590610bce5750600a8054829190610bad9083612a44565b81548110610bbd57610bbd612a57565b905f5260205f2090600b02015f0154145b610bea5760405162461bcd60e51b815260040161061f90612ad7565b610bf3826116a9565b5050565b600a8181548110610c06575f80fd5b5f9182526020909120600b9091020180546001820154600283015460058401546006850154600786015460088701546009880154600a909801549698506001600160a01b039586169795851696600160a01b90950460e01b959394929360ff8084169461010090940416928b565b600454600354600a545b81831015610d16575f600a610c938386612a44565b81548110610ca357610ca3612a57565b905f5260205f2090600b0201905083815f015414610cce5783610cc581612c6e565b94505050610c7e565b600781015460ff1615610ce55783610cc581612c6e565b6007548160060154610cf79190612a7f565b4211610d035750610d16565b610d0c81611a17565b83610cc581612c6e565b5050600455565b5f546001600160a01b03163314610d465760405162461bcd60e51b815260040161061f90612a92565b600855565b5f610d6086868686866005546006545f611274565b9695505050505050565b600a80545f918291610d7c9086612a44565b81548110610d8c57610d8c612a57565b905f5260205f2090600b0201905083815f015414610dad575f915050610dbb565b610db7848461116d565b9150505b92915050565b5f546001600160a01b03163314610dea5760405162461bcd60e51b815260040161061f90612a92565b600955565b5f546001600160a01b03163314610e185760405162461bcd60e51b815260040161061f90612a92565b600280546001600160a01b0319166001600160a01b0392909216919091179055565b5f546001600160a01b03163314610e635760405162461bcd60e51b815260040161061f90612a92565b5f8111610ebe5760405162461bcd60e51b815260206004820152602360248201527f536f6d6e69614167656e74733a207468726573686f6c64206d7573742062652060448201526203e20360ec1b606482015260840161061f565b600655565b5f5f5f60605f5f5f5f5f5f5f5f5f600a80805490508f610ee39190612a44565b81548110610ef357610ef3612a57565b905f5260205f2090600b020190508d815f015414610f235760405162461bcd60e51b815260040161061f90612ad7565b60018101546002820154600583015460068401546007850154600486015460088701546009880154600a89015460038a018054604080516020808402820181019092528281526001600160a01b039c8d169c8c169b600160a01b900460e01b9a93999398939760ff808616989197610100909604169590949390928b9190830182828015610fd857602002820191905f5260205f20905b81546001600160a01b03168152600190910190602001808311610fba575b505050505098509c509c509c509c509c509c509c509c509c509c509c509c505091939597999b5091939597999b565b5f546001600160a01b031633146110305760405162461bcd60e51b815260040161061f90612a92565b6001600160a01b0381166110965760405162461bcd60e51b815260206004820152602760248201527f536f6d6e69614167656e74733a206e6577206f776e6572206973207a65726f206044820152666164647265737360c81b606482015260840161061f565b5f80546001600160a01b0319166001600160a01b0392909216919091179055565b600a80546060915f916110ca9085612a44565b815481106110da576110da612a57565b905f5260205f2090600b0201905082815f01541461110a5760405162461bcd60e51b815260040161061f90612ad7565b8060030180548060200260200160405190810160405280929190818152602001828054801561116057602002820191905f5260205f20905b81546001600160a01b03168152600190910190602001808311611142575b5050505050915050919050565b600a80545f91829161117f9086612a44565b8154811061118f5761118f612a57565b905f5260205f2090600b0201905083815f0154146111b0575f915050610dbb565b600381015f5b815481101561120857846001600160a01b03168282815481106111db576111db612a57565b5f918252602090912001546001600160a01b0316036112005760019350505050610dbb565b6001016111b6565b505f95945050505050565b5f805b835481101561126b57826001600160a01b031684828154811061123b5761123b612a57565b5f9182526020909120600590910201546001600160a01b031603611263576001915050610dbb565b600101611216565b505f9392505050565b5f5f831180156112845750838311155b6112d05760405162461bcd60e51b815260206004820152601f60248201527f536f6d6e69614167656e74733a20696e76616c6964207468726573686f6c6400604482015260640161061f565b5f341180156112e157506009543411155b61132d5760405162461bcd60e51b815260206004820152601e60248201527f536f6d6e69614167656e74733a20696e76616c6964206d617820636f73740000604482015260640161061f565b600154604051632de5aaf760e01b8152600481018b90525f916001600160a01b031690632de5aaf7906024015f60405180830381865afa158015611373573d5f5f3e3d5ffd5b505050506040513d5f823e601f3d908101601f1916820160405261139a9190810190612d49565b90505f60025f9054906101000a90046001600160a01b03166001600160a01b0316634876aebc6040518163ffffffff1660e01b81526004015f60405180830381865afa1580156113ec573d5f5f3e3d5ffd5b505050506040513d5f823e601f3d908101601f191682016040526114139190810190612e06565b905085815110156114765760405162461bcd60e51b815260206004820152602760248201527f536f6d6e69614167656e74733a206e6f7420656e6f75676820616374697665206044820152666d656d6265727360c81b606482015260840161061f565b60038054905f61148583612c6e565b9091555060025460405163b4615b8d60e01b815260048101899052602481018390529194505f916001600160a01b039091169063b4615b8d906044015f60405180830381865afa1580156114db573d5f5f3e3d5ffd5b505050506040513d5f823e601f3d908101601f191682016040526115029190810190612e06565b600a80549192505f916115159087612a44565b8154811061152557611525612a57565b905f5260205f2090600b020190505b60048101541561159d578060040180548061155157611551612eb8565b5f8281526020812060055f199093019283020180546001600160a01b03191681559061158060018301826124ff565b505f60028201819055600382018190556004909101559055611534565b8481556001810180546001600160a01b0319163317905560028101805460e08d901c600160a01b026001600160c01b03199091166001600160a01b038f161717905581516115f49060038301906020850190612539565b506005810187905542600682015560078101805460ff198116825587919061ffff191661010083600181111561162c5761162c61280b565b0217905550836080015181600801819055503481600901819055505f81600a0181905550336001600160a01b03168d867ff32d641397bfceb2da93454b4ed51bfad0f3747206cbce80ecf4317e9c08d1f4348e8e886040516116919493929190612ecc565b60405180910390a45050505098975050505050505050565b600a80545f91906116ba9084612a44565b815481106116ca576116ca612a57565b5f9182526020909120600b90910201600781015490915060ff16156117415760405162461bcd60e51b815260206004820152602760248201527f536f6d6e69614167656e74733a207265717565737420616c72656164792066696044820152661b985b1a5e995960ca1b606482015260840161061f565b60075481600601546117539190612a7f565b42116117b15760405162461bcd60e51b815260206004820152602760248201527f536f6d6e69614167656e74733a2072657175657374206e6f742074696d6564206044820152661bdd5d081e595d60ca1b606482015260840161061f565b60078101805460ff1916600117905560405182907f80f32f66463ff726c97765d8dcd5ab6e0587bdbeea298adc3da6cd0a584ee10f905f90a260048101546060905f901561184457606061181e846004018560070160019054906101000a900460ff168660050154611c73565b90935090505f61182d82611ce7565b600386015490915061183f9082612f0e565b925050505b60028301545f906001600160a01b031615611930575f5a60028601546008546040519293505f926001600160a01b03831692600160a01b900460e01b90611891908b908a90602401612f25565b60408051601f198184030181529181526020820180516001600160e01b03166001600160e01b03199094169390931790925290516118cf9190612f45565b5f604051808303815f8787f1925050503d805f8114611909576040519150601f19603f3d011682016040523d82523d5f602084013e61190e565b606091505b505090505f5a61191e9084612f5b565b905061192a3a82612f0e565b93505050505b808285600801546119419190612a7f565b61194b9190612a7f565b600a850181905560098501545f9110156119ce5784600a015485600901546119739190612f5b565b60018601546040519192505f916001600160a01b039091169083908381818185875af1925050503d805f81146119c4576040519150601f19603f3d011682016040523d82523d5f602084013e6119c9565b606091505b505050505b600a850154604080519182526020820183905287917f1557420f69b14a9661c70e7f95f8d9eaa3a277adaef216dbc7640685e3083c6291015b60405180910390a2505050505050565b805460078201805460ff1916600117905560405181907f80f32f66463ff726c97765d8dcd5ab6e0587bdbeea298adc3da6cd0a584ee10f905f90a260048201546060905f9015611aac576060611a86856004018660070160019054906101000a900460ff168760050154611c73565b90935090505f611a9582611ce7565b6003870154909150611aa79082612f0e565b925050505b60028401545f906001600160a01b031615611b98575f5a60028701546008546040519293505f926001600160a01b03831692600160a01b900460e01b90611af9908a908a90602401612f25565b60408051601f198184030181529181526020820180516001600160e01b03166001600160e01b0319909416939093179092529051611b379190612f45565b5f604051808303815f8787f1925050503d805f8114611b71576040519150601f19603f3d011682016040523d82523d5f602084013e611b76565b606091505b505090505f5a611b869084612f5b565b9050611b923a82612f0e565b93505050505b80828660080154611ba99190612a7f565b611bb39190612a7f565b600a860181905560098601545f911015611c365785600a01548660090154611bdb9190612f5b565b60018701546040519192505f916001600160a01b039091169083908381818185875af1925050503d805f8114611c2c576040519150601f19603f3d011682016040523d82523d5f602084013e611c31565b606091505b505050505b600a860154604080519182526020820183905286917f1557420f69b14a9661c70e7f95f8d9eaa3a277adaef216dbc7640685e3083c629101611a07565b825460609081905f03611ca257505060408051602080820183525f808352835190815290810190925290611cdf565b5f846001811115611cb557611cb561280b565b03611ccd57611cc48584611ea4565b91509150611cdf565b611cd68561220f565b611cc486612364565b935093915050565b5f81515f03611cf757505f919050565b8151600103611d2157815f81518110611d1257611d12612a57565b60200260200101519050919050565b60015b8251811015611e00575f838281518110611d4057611d40612a57565b602002602001015190505f8290505b5f81118015611d8057508185611d66600184612f5b565b81518110611d7657611d76612a57565b6020026020010151115b15611dd85784611d91600183612f5b565b81518110611da157611da1612a57565b6020026020010151858281518110611dbb57611dbb612a57565b602090810291909101015280611dd081612f6e565b915050611d4f565b81858281518110611deb57611deb612a57565b60209081029190910101525050600101611d24565b505f60028351611e109190612f83565b905060028351611e209190612a44565b5f03611e7c576002838281518110611e3a57611e3a612a57565b602002602001015184600184611e509190612f5b565b81518110611e6057611e60612a57565b6020026020010151611e729190612a7f565b6105ef9190612f83565b828181518110611e8e57611e8e612a57565b6020026020010151915050919050565b50919050565b6060805f5b84548110156120cd575f805b8654811015611f2357611f08878481548110611ed357611ed3612a57565b905f5260205f209060050201600101888381548110611ef457611ef4612a57565b905f5260205f209060050201600101612407565b15611f1b5781611f1781612c6e565b9250505b600101611eb5565b508481106120c457806001600160401b03811115611f4357611f43612b25565b604051908082528060200260200182016040528015611f6c578160200160208202803683370190505b5092505f805b875481101561200b57611fb1888581548110611f9057611f90612a57565b905f5260205f209060050201600101898381548110611ef457611ef4612a57565b1561200357878181548110611fc857611fc8612a57565b905f5260205f20906005020160030154858380611fe490612c6e565b945081518110611ff657611ff6612a57565b6020026020010181815250505b600101611f72565b5086838154811061201e5761201e612a57565b905f5260205f2090600502016001018481805461203a90612b39565b80601f016020809104026020016040519081016040528092919081815260200182805461206690612b39565b80156120b15780601f10612088576101008083540402835291602001916120b1565b820191905f5260205f20905b81548152906001019060200180831161209457829003601f168201915b5050505050915094509450505050612208565b50600101611ea9565b508354156121ea576040805160018082528183019092529060208083019080368337019050509050835f8154811061210757612107612a57565b905f5260205f20906005020160030154815f8151811061212957612129612a57565b602002602001018181525050835f8154811061214757612147612a57565b905f5260205f2090600502016001018181805461216390612b39565b80601f016020809104026020016040519081016040528092919081815260200182805461218f90612b39565b80156121da5780601f106121b1576101008083540402835291602001916121da565b820191905f5260205f20905b8154815290600101906020018083116121bd57829003601f168201915b5050505050915091509150612208565b505060408051602080820183525f8083528351908152908101909252905b9250929050565b80546060905f906001600160401b0381111561222d5761222d612b25565b60405190808252806020026020018201604052801561226057816020015b606081526020019060019003908161224b5790505b5090505f5b835481101561233b5783818154811061228057612280612a57565b905f5260205f209060050201600101805461229a90612b39565b80601f01602080910402602001604051908101604052809291908181526020018280546122c690612b39565b80156123115780601f106122e857610100808354040283529160200191612311565b820191905f5260205f20905b8154815290600101906020018083116122f457829003601f168201915b505050505082828151811061232857612328612a57565b6020908102919091010152600101612265565b508060405160200161234d9190612f96565b604051602081830303815290604052915050919050565b80546060905f906001600160401b0381111561238257612382612b25565b6040519080825280602002602001820160405280156123ab578160200160208202803683370190505b5090505f5b8354811015612400578381815481106123cb576123cb612a57565b905f5260205f209060050201600301548282815181106123ed576123ed612a57565b60209081029190910101526001016123b0565b5092915050565b5f81805461241490612b39565b905083805461242290612b39565b90501461243057505f610dbb565b5f5b83805461243e90612b39565b90508110156124f5578281815461245490612b39565b811061246257612462612a57565b81546001161561247f57905f5260205f2090602091828204019190065b9054901a600160f81b026001600160f81b031916848281546124a090612b39565b81106124ae576124ae612a57565b8154600116156124cb57905f5260205f2090602091828204019190065b9054901a600160f81b026001600160f81b031916146124ed575f915050610dbb565b600101612432565b5060019392505050565b50805461250b90612b39565b5f825580601f1061251a575050565b601f0160209004905f5260205f2090810190612536919061259c565b50565b828054828255905f5260205f2090810192821561258c579160200282015b8281111561258c57825182546001600160a01b0319166001600160a01b03909116178255602090920191600190910190612557565b5061259892915061259c565b5090565b5b80821115612598575f815560010161259d565b5f602082840312156125c0575f5ffd5b5035919050565b6001600160a01b0381168114612536575f5ffd5b5f602082840312156125eb575f5ffd5b81356105ef816125c7565b5f5f83601f840112612606575f5ffd5b5081356001600160401b0381111561261c575f5ffd5b602083019150836020828501011115612208575f5ffd5b5f5f5f5f5f60808688031215612647575f5ffd5b8535945060208601356001600160401b03811115612663575f5ffd5b61266f888289016125f6565b9699909850959660408101359660609091013595509350505050565b80356001600160e01b0319811681146126a2575f5ffd5b919050565b5f5f5f5f5f5f5f5f60e0898b0312156126be575f5ffd5b8835975060208901356126d0816125c7565b96506126de60408a0161268b565b955060608901356001600160401b038111156126f8575f5ffd5b6127048b828c016125f6565b9096509450506080890135925060a0890135915060c089013560028110612729575f5ffd5b809150509295985092959890939650565b5f81518084528060208401602086015e5f602082860101526020601f19601f83011685010191505092915050565b5f602082016020835280845180835260408501915060408160051b8601019250602086015f5b828110156127ff57868503603f19018452815180516001600160a01b0316865260208082015160a0918801829052906127c99088018261273a565b6040838101519089015260608084015190890152608092830151929097019190915250602093840193919091019060010161278e565b50929695505050505050565b634e487b7160e01b5f52602160045260245ffd5b6002811061283b57634e487b7160e01b5f52602160045260245ffd5b9052565b8b81526001600160a01b038b811660208301528a1660408201526001600160e01b0319891660608201526080810188905260a0810187905285151560c0820152610160810161289160e083018761281f565b8461010083015283610120830152826101408301529c9b505050505050505050505050565b5f5f5f5f5f608086880312156128ca575f5ffd5b8535945060208601356128dc816125c7565b93506128ea6040870161268b565b925060608601356001600160401b03811115612904575f5ffd5b612910888289016125f6565b969995985093965092949392505050565b5f5f60408385031215612932575f5ffd5b823591506020830135612944816125c7565b809150509250929050565b5f8151808452602084019350602083015f5b828110156129885781516001600160a01b0316865260209586019590910190600101612961565b5093949350505050565b6001600160a01b038d811682528c1660208201526001600160e01b03198b166040820152610180606082018190525f906129ce9083018c61294f565b90508960808301528860a083015287151560c08301528660e08301526129f861010083018761281f565b8461012083015283610140830152826101608301529d9c50505050505050505050505050565b602081525f6105ef602083018461294f565b634e487b7160e01b5f52601260045260245ffd5b5f82612a5257612a52612a30565b500690565b634e487b7160e01b5f52603260045260245ffd5b634e487b7160e01b5f52601160045260245ffd5b80820180821115610dbb57610dbb612a6b565b60208082526025908201527f536f6d6e69614167656e74733a2063616c6c6572206973206e6f74207468652060408201526437bbb732b960d91b606082015260800190565b6020808252602e908201527f536f6d6e69614167656e74733a2072657175657374206e6f7420666f756e642060408201526d37b91037bb32b93bb934ba3a32b760911b606082015260800190565b634e487b7160e01b5f52604160045260245ffd5b600181811c90821680612b4d57607f821691505b602082108103611e9e57634e487b7160e01b5f52602260045260245ffd5b601f821115612baf57805f5260205f20601f840160051c81016020851015612b905750805b601f840160051c820191505b8181101561090e575f8155600101612b9c565b505050565b81516001600160401b03811115612bcd57612bcd612b25565b612be181612bdb8454612b39565b84612b6b565b6020601f821160018114612c13575f8315612bfc5750848201515b5f19600385901b1c1916600184901b17845561090e565b5f84815260208120601f198516915b82811015612c425787850151825560209485019460019092019101612c22565b5084821015612c5f57868401515f19600387901b60f8161c191681555b50505050600190811b01905550565b5f60018201612c7f57612c7f612a6b565b5060010190565b60405160a081016001600160401b0381118282101715612ca857612ca8612b25565b60405290565b604051601f8201601f191681016001600160401b0381118282101715612cd657612cd6612b25565b604052919050565b5f82601f830112612ced575f5ffd5b81516001600160401b03811115612d0657612d06612b25565b612d19601f8201601f1916602001612cae565b818152846020838601011115612d2d575f5ffd5b8160208501602083015e5f918101602001919091529392505050565b5f60208284031215612d59575f5ffd5b81516001600160401b03811115612d6e575f5ffd5b820160a08185031215612d7f575f5ffd5b612d87612c86565b815181526020820151612d99816125c7565b602082015260408201516001600160401b03811115612db6575f5ffd5b612dc286828501612cde565b60408301525060608201516001600160401b03811115612de0575f5ffd5b612dec86828501612cde565b606083015250608091820151918101919091529392505050565b5f60208284031215612e16575f5ffd5b81516001600160401b03811115612e2b575f5ffd5b8201601f81018413612e3b575f5ffd5b80516001600160401b03811115612e5457612e54612b25565b8060051b612e6460208201612cae565b91825260208184018101929081019087841115612e7f575f5ffd5b6020850194505b83851015612ead5784519250612e9b836125c7565b82825260209485019490910190612e86565b979650505050505050565b634e487b7160e01b5f52603160045260245ffd5b84815260606020820152826060820152828460808301375f608084830101525f601f19601f85011682016080838203016040840152612ead608082018561294f565b8082028115828204841417610dbb57610dbb612a6b565b828152604060208201525f612f3d604083018461273a565b949350505050565b5f82518060208501845e5f920191825250919050565b81810381811115610dbb57610dbb612a6b565b5f81612f7c57612f7c612a6b565b505f190190565b5f82612f9157612f91612a30565b500490565b5f602082016020835280845180835260408501915060408160051b8601019250602086015f5b828110156127ff57603f19878603018452612fd885835161273a565b94506020938401939190910190600101612fbc56fea264697066735822122034fc25bcf15ec52230d93477d63ae807bb316e61ae05a94d8a72bd49dc99808864736f6c634300081c0033",
  "linkReferences": {},
  "deployedLinkReferences": {},
  "immutableReferences": {},
  "inputSourceName": "project/contracts/SomniaAgents.sol",
  "buildInfoId": "solc-0_8_28-841e3c6ba090f4c15a37036aa882f655089618e3"
}