{
  "_format": "hh3-artifact-1",
  "contractName": "SomniaAgents",
  "sourceName": "contracts/SomniaAgents.sol",
  "abi": [
    {
      "inputs": [
        {
          "internalType": "uint256",
          "name": "bufferSize",
          "type": "uint256"
        },
        {
          "internalType": "address",
          "name": "_agentRegistry",
          "type": "address"
        },
        {
          "internalType": "address",
          "name": "_committee",
          "type": "address"
        }
      ],
      "stateMutability": "nonpayable",
      "type": "constructor"
    },
    {
      "anonymous": false,
      "inputs": [
        {
          "indexed": true,
          "internalType": "uint256",
          "name": "requestId",
          "type": "uint256"
        },
        {
          "indexed": true,
          "internalType": "uint256",
          "name": "agentId",
          "type": "uint256"
        },
        {
          "indexed": true,
          "internalType": "address",
          "name": "requester",
          "type": "address"
        },
        {
          "indexed": false,
          "internalType": "uint256",
          "name": "maxCost",
          "type": "uint256"
        },
        {
          "indexed": false,
          "internalType": "bytes",
          "name": "payload",
          "type": "bytes"
        },
        {
          "indexed": false,
          "internalType": "address[]",
          "name": "subcommittee",
          "type": "address[]"
        }
      ],
      "name": "RequestCreated",
      "type": "event"
    },
    {
      "anonymous": false,
      "inputs": [
        {
          "indexed": true,
          "internalType": "uint256",
          "name": "requestId",
          "type": "uint256"
        },
        {
          "indexed": false,
          "internalType": "uint256",
          "name": "finalCost",
          "type": "uint256"
        },
        {
          "indexed": false,
          "internalType": "uint256",
          "name": "rebate",
          "type": "uint256"
        }
      ],
      "name": "RequestFinalized",
      "type": "event"
    },
    {
      "anonymous": false,
      "inputs": [
        {
          "indexed": true,
          "internalType": "uint256",
          "name": "requestId",
          "type": "uint256"
        }
      ],
      "name": "RequestTimedOut",
      "type": "event"
    },
    {
      "anonymous": false,
      "inputs": [
        {
          "indexed": true,
          "internalType": "uint256",
          "name": "requestId",
          "type": "uint256"
        },
        {
          "indexed": true,
          "internalType": "address",
          "name": "validator",
          "type": "address"
        }
      ],
      "name": "ResponseSubmitted",
      "type": "event"
    },
    {
      "inputs": [],
      "name": "agentRegistry",
      "outputs": [
        {
          "internalType": "contract IAgentRegistry",
          "name": "",
          "type": "address"
        }
      ],
      "stateMutability": "view",
      "type": "function"
    },
    {
      "inputs": [],
      "name": "callbackGasLimit",
      "outputs": [
        {
          "internalType": "uint256",
          "name": "",
          "type": "uint256"
        }
      ],
      "stateMutability": "view",
      "type": "function"
    },
    {
      "inputs": [],
      "name": "committee",
      "outputs": [
        {
          "internalType": "contract ICommittee",
          "name": "",
          "type": "address"
        }
      ],
      "stateMutability": "view",
      "type": "function"
    },
    {
      "inputs": [
        {
          "internalType": "uint256",
          "name": "agentId",
          "type": "uint256"
        },
        {
          "internalType": "address",
          "name": "callbackAddress",
          "type": "address"
        },
        {
          "internalType": "bytes4",
          "name": "callbackSelector",
          "type": "bytes4"
        },
        {
          "internalType": "bytes",
          "name": "payload",
          "type": "bytes"
        }
      ],
      "name": "createRequest",
      "outputs": [
        {
          "internalType": "uint256",
          "name": "requestId",
          "type": "uint256"
        }
      ],
      "stateMutability": "payable",
      "type": "function"
    },
    {
      "inputs": [
        {
          "internalType": "uint256",
          "name": "agentId",
          "type": "uint256"
        },
        {
          "internalType": "address",
          "name": "callbackAddress",
          "type": "address"
        },
        {
          "internalType": "bytes4",
          "name": "callbackSelector",
          "type": "bytes4"
        },
        {
          "internalType": "bytes",
          "name": "payload",
          "type": "bytes"
        },
        {
          "internalType": "uint256",
          "name": "subcommitteeSize",
          "type": "uint256"
        },
        {
          "internalType": "uint256",
          "name": "threshold",
          "type": "uint256"
        },
        {
          "internalType": "enum ConsensusType",
          "name": "consensusType",
          "type": "uint8"
        }
      ],
      "name": "createRequestWithParams",
      "outputs": [
        {
          "internalType": "uint256",
          "name": "requestId",
          "type": "uint256"
        }
      ],
      "stateMutability": "payable",
      "type": "function"
    },
    {
      "inputs": [],
      "name": "defaultSubcommitteeSize",
      "outputs": [
        {
          "internalType": "uint256",
          "name": "",
          "type": "uint256"
        }
      ],
      "stateMutability": "view",
      "type": "function"
    },
    {
      "inputs": [],
      "name": "defaultThreshold",
      "outputs": [
        {
          "internalType": "uint256",
          "name": "",
          "type": "uint256"
        }
      ],
      "stateMutability": "view",
      "type": "function"
    },
    {
      "inputs": [
        {
          "internalType": "uint256",
          "name": "requestId",
          "type": "uint256"
        }
      ],
      "name": "getRequest",
      "outputs": [
        {
          "internalType": "address",
          "name": "requester",
          "type": "address"
        },
        {
          "internalType": "address",
          "name": "callbackAddress",
          "type": "address"
        },
        {
          "internalType": "bytes4",
          "name": "callbackSelector",
          "type": "bytes4"
        },
        {
          "internalType": "address[]",
          "name": "subcommittee",
          "type": "address[]"
        },
        {
          "internalType": "uint256",
          "name": "threshold",
          "type": "uint256"
        },
        {
          "internalType": "uint256",
          "name": "createdAt",
          "type": "uint256"
        },
        {
          "internalType": "bool",
          "name": "finalized",
          "type": "bool"
        },
        {
          "internalType": "uint256",
          "name": "responseCount",
          "type": "uint256"
        },
        {
          "internalType": "enum ConsensusType",
          "name": "consensusType",
          "type": "uint8"
        },
        {
          "internalType": "uint256",
          "name": "agentCost",
          "type": "uint256"
        },
        {
          "internalType": "uint256",
          "name": "maxCost",
          "type": "uint256"
        },
        {
          "internalType": "uint256",
          "name": "finalCost",
          "type": "uint256"
        }
      ],
      "stateMutability": "view",
      "type": "function"
    },
    {
      "inputs": [
        {
          "internalType": "uint256",
          "name": "requestId",
          "type": "uint256"
        }
      ],
      "name": "getResponses",
      "outputs": [
        {
          "components": [
            {
              "internalType": "address",
              "name": "validator",
              "type": "address"
            },
            {
              "internalType": "bytes",
              "name": "result",
              "type": "bytes"
            },
            {
              "internalType": "uint256",
              "name": "receipt",
              "type": "uint256"
            },
            {
              "internalType": "uint256",
              "name": "price",
              "type": "uint256"
            },
            {
              "internalType": "uint256",
              "name": "timestamp",
              "type": "uint256"
            }
          ],
          "internalType": "struct Response[]",
          "name": "",
          "type": "tuple[]"
        }
      ],
      "stateMutability": "view",
      "type": "function"
    },
    {
      "inputs": [
        {
          "internalType": "uint256",
          "name": "requestId",
          "type": "uint256"
        }
      ],
      "name": "getSubcommittee",
      "outputs": [
        {
          "internalType": "address[]",
          "name": "",
          "type": "address[]"
        }
      ],
      "stateMutability": "view",
      "type": "function"
    },
    {
      "inputs": [
        {
          "internalType": "uint256",
          "name": "requestId",
          "type": "uint256"
        }
      ],
      "name": "isRequestPending",
      "outputs": [
        {
          "internalType": "bool",
          "name": "",
          "type": "bool"
        }
      ],
      "stateMutability": "view",
      "type": "function"
    },
    {
      "inputs": [
        {
          "internalType": "uint256",
          "name": "requestId",
          "type": "uint256"
        }
      ],
      "name": "isRequestValid",
      "outputs": [
        {
          "internalType": "bool",
          "name": "",
          "type": "bool"
        }
      ],
      "stateMutability": "view",
      "type": "function"
    },
    {
      "inputs": [
        {
          "internalType": "uint256",
          "name": "requestId",
          "type": "uint256"
        },
        {
          "internalType": "address",
          "name": "addr",
          "type": "address"
        }
      ],
      "name": "isSubcommitteeMember",
      "outputs": [
        {
          "internalType": "bool",
          "name": "",
          "type": "bool"
        }
      ],
      "stateMutability": "view",
      "type": "function"
    },
    {
      "inputs": [],
      "name": "maxExecutionFee",
      "outputs": [
        {
          "internalType": "uint256",
          "name": "",
          "type": "uint256"
        }
      ],
      "stateMutability": "view",
      "type": "function"
    },
    {
      "inputs": [],
      "name": "nextRequestId",
      "outputs": [
        {
          "internalType": "uint256",
          "name": "",
          "type": "uint256"
        }
      ],
      "stateMutability": "view",
      "type": "function"
    },
    {
      "inputs": [],
      "name": "oldestPendingId",
      "outputs": [
        {
          "internalType": "uint256",
          "name": "",
          "type": "uint256"
        }
      ],
      "stateMutability": "view",
      "type": "function"
    },
    {
      "inputs": [],
      "name": "owner",
      "outputs": [
        {
          "internalType": "address",
          "name": "",
          "type": "address"
        }
      ],
      "stateMutability": "view",
      "type": "function"
    },
    {
      "inputs": [],
      "name": "requestTimeout",
      "outputs": [
        {
          "internalType": "uint256",
          "name": "",
          "type": "uint256"
        }
      ],
      "stateMutability": "view",
      "type": "function"
    },
    {
      "inputs": [
        {
          "internalType": "uint256",
          "name": "",
          "type": "uint256"
        }
      ],
      "name": "requests",
      "outputs": [
        {
          "internalType": "uint256",
          "name": "id",
          "type": "uint256"
        },
        {
          "internalType": "address",
          "name": "requester",
          "type": "address"
        },
        {
          "internalType": "address",
          "name": "callbackAddress",
          "type": "address"
        },
        {
          "internalType": "bytes4",
          "name": "callbackSelector",
          "type": "bytes4"
        },
        {
          "internalType": "uint256",
          "name": "threshold",
          "type": "uint256"
        },
        {
          "internalType": "uint256",
          "name": "createdAt",
          "type": "uint256"
        },
        {
          "internalType": "bool",
          "name": "finalized",
          "type": "bool"
        },
        {
          "internalType": "enum ConsensusType",
          "name": "consensusType",
          "type": "uint8"
        },
        {
          "internalType": "uint256",
          "name": "agentCost",
          "type": "uint256"
        },
        {
          "internalType": "uint256",
          "name": "maxCost",
          "type": "uint256"
        },
        {
          "internalType": "uint256",
          "name": "finalCost",
          "type": "uint256"
        }
      ],
      "stateMutability": "view",
      "type": "function"
    },
    {
      "inputs": [
        {
          "internalType": "address",
          "name": "_agentRegistry",
          "type": "address"
        }
      ],
      "name": "setAgentRegistry",
      "outputs": [],
      "stateMutability": "nonpayable",
      "type": "function"
    },
    {
      "inputs": [
        {
          "internalType": "uint256",
          "name": "gasLimit",
          "type": "uint256"
        }
      ],
      "name": "setCallbackGasLimit",
      "outputs": [],
      "stateMutability": "nonpayable",
      "type": "function"
    },
    {
      "inputs": [
        {
          "internalType": "address",
          "name": "_committee",
          "type": "address"
        }
      ],
      "name": "setCommittee",
      "outputs": [],
      "stateMutability": "nonpayable",
      "type": "function"
    },
    {
      "inputs": [
        {
          "internalType": "uint256",
          "name": "size",
          "type": "uint256"
        }
      ],
      "name": "setDefaultSubcommitteeSize",
      "outputs": [],
      "stateMutability": "nonpayable",
      "type": "function"
    },
    {
      "inputs": [
        {
          "internalType": "uint256",
          "name": "threshold",
          "type": "uint256"
        }
      ],
      "name": "setDefaultThreshold",
      "outputs": [],
      "stateMutability": "nonpayable",
      "type": "function"
    },
    {
      "inputs": [
        {
          "internalType": "uint256",
          "name": "maxFee",
          "type": "uint256"
        }
      ],
      "name": "setMaxExecutionFee",
      "outputs": [],
      "stateMutability": "nonpayable",
      "type": "function"
    },
    {
      "inputs": [
        {
          "internalType": "uint256",
          "name": "timeout",
          "type": "uint256"
        }
      ],
      "name": "setRequestTimeout",
      "outputs": [],
      "stateMutability": "nonpayable",
      "type": "function"
    },
    {
      "inputs": [
        {
          "internalType": "uint256",
          "name": "requestId",
          "type": "uint256"
        },
        {
          "internalType": "bytes",
          "name": "result",
          "type": "bytes"
        },
        {
          "internalType": "uint256",
          "name": "receipt",
          "type": "uint256"
        },
        {
          "internalType": "uint256",
          "name": "price",
          "type": "uint256"
        }
      ],
      "name": "submitResponse",
      "outputs": [],
      "stateMutability": "nonpayable",
      "type": "function"
    },
    {
      "inputs": [
        {
          "internalType": "uint256",
          "name": "requestId",
          "type": "uint256"
        }
      ],
      "name": "timeoutRequest",
      "outputs": [],
      "stateMutability": "nonpayable",
      "type": "function"
    },
    {
      "inputs": [
        {
          "internalType": "address",
          "name": "newOwner",
          "type": "address"
        }
      ],
      "name": "transferOwnership",
      "outputs": [],
      "stateMutability": "nonpayable",
      "type": "function"
    },
    {
      "inputs": [],
      "name": "upkeepRequests",
      "outputs": [],
      "stateMutability": "nonpayable",
      "type": "function"
    }
  ],
  "bytecode": "0x608060405260036005556002600655603c6007556207a120600855670de0b6b3a7640000600955348015610031575f5ffd5b50604051612d38380380612d38833981016040819052610050916100cb565b5f8054336001600160a01b03199182161782556001805482166001600160a01b0386811691909117909155600280549092169084161790555b838110156100a757600a8054600190810182555f9190915201610089565b50505050610104565b80516001600160a01b03811681146100c6575f5ffd5b919050565b5f5f5f606084860312156100dd575f5ffd5b835192506100ed602085016100b0565b91506100fb604085016100b0565b90509250925092565b612c27806101115f395ff3fe6080604052600436106101c5575f3560e01c80637df29c71116100f2578063a264b4bb11610092578063d864e74011610062578063d864e74014610508578063f09a952314610527578063f2fde38b1461053c578063fb5c92fe1461055b575f5ffd5b8063a264b4bb14610474578063bddae40e14610493578063c5246bf5146104b2578063c58343ef146104d1575f5ffd5b80638a54942f116100cd5780638a54942f146104055780638bbcbbe2146104245780638da5cb5b1461043757806398159f1714610455575f5ffd5b80637df29c711461039c57806381d12c58146103bb57806387c701c3146103f1575f5ffd5b806333021a6611610168578063622b6af411610138578063622b6af41461031d5780636512f1111461033c5780636a84a9851461035b57806371ee2ce114610370575f5ffd5b806333021a66146102c15780633f20b4c9146102d457806340939cb8146102e957806353f10a4b14610308575f5ffd5b806324f74697116101a357806324f746971461025757806326949f9e1461026c57806328342ecf146102815780632d3abd63146102a2575f5ffd5b80630d1cfcae146101c957806316221fdf146102055780631abd5caa14610234575b5f5ffd5b3480156101d4575f5ffd5b506001546101e8906001600160a01b031681565b6040516001600160a01b0390911681526020015b60405180910390f35b348015610210575f5ffd5b5061022461021f3660046122b7565b610587565b60405190151581526020016101fc565b34801561023f575f5ffd5b5061024960055481565b6040519081526020016101fc565b348015610262575f5ffd5b5061024960085481565b348015610277575f5ffd5b5061024960095481565b34801561028c575f5ffd5b506102a061029b3660046122e2565b6105f6565b005b3480156102ad575f5ffd5b506102a06102bc36600461233a565b61064a565b6102496102cf3660046123ae565b61067d565b3480156102df575f5ffd5b5061024960075481565b3480156102f4575f5ffd5b506102a06103033660046122b7565b61069b565b348015610313575f5ffd5b5061024960065481565b348015610328575f5ffd5b506102a06103373660046122b7565b610718565b348015610347575f5ffd5b506102246103563660046122b7565b610746565b348015610366575f5ffd5b5061024960035481565b34801561037b575f5ffd5b5061038f61038a3660046122b7565b61077f565b6040516101fc919061246f565b3480156103a7575f5ffd5b506102a06103b63660046122b7565b6108f6565b3480156103c6575f5ffd5b506103da6103d53660046122b7565b61095f565b6040516101fc9b9a99989796959493929190612546565b3480156103fc575f5ffd5b506102a06109dc565b348015610410575f5ffd5b506102a061041f3660046122b7565b610a85565b6102496104323660046125bd565b610ab3565b348015610442575f5ffd5b505f546101e8906001600160a01b031681565b348015610460575f5ffd5b5061022461046f366004612628565b610ad2565b34801561047f575f5ffd5b506102a061048e3660046122b7565b610b29565b34801561049e575f5ffd5b506102a06104ad3660046122e2565b610b57565b3480156104bd575f5ffd5b506102a06104cc3660046122b7565b610ba2565b3480156104dc575f5ffd5b506104f06104eb3660046122b7565b610c2b565b6040516101fc9c9b9a99989796959493929190612699565b348015610513575f5ffd5b506002546101e8906001600160a01b031681565b348015610532575f5ffd5b5061024960045481565b348015610547575f5ffd5b506102a06105563660046122e2565b610d6f565b348015610566575f5ffd5b5061057a6105753660046122b7565b610e1f565b6040516101fc9190612725565b600a80545f918291610599908561274b565b815481106105a9576105a961275e565b905f5260205f2090600b0201905082815f0154146105c957505f92915050565b600781015460ff161580156105ef575060075481600601546105eb9190612786565b4211155b9392505050565b5f546001600160a01b031633146106285760405162461bcd60e51b815260040161061f90612799565b60405180910390fd5b600180546001600160a01b0319166001600160a01b0392909216919091179055565b604051339086907fd34a91eddebc3a46f0193e4f54124f90bd00de34c64b5407562def103949d006905f90a35050505050565b5f61068e8989898989898989610ed5565b9998505050505050505050565b5f546001600160a01b031633146106c45760405162461bcd60e51b815260040161061f90612799565b5f81116107135760405162461bcd60e51b815260206004820152601e60248201527f536f6d6e69614167656e74733a2073697a65206d757374206265203e20300000604482015260640161061f565b600555565b5f546001600160a01b031633146107415760405162461bcd60e51b815260040161061f90612799565b600755565b600a80545f918391610758908361274b565b815481106107685761076861275e565b905f5260205f2090600b02015f0154149050919050565b600a80546060915f91610792908561274b565b815481106107a2576107a261275e565b905f5260205f2090600b0201905082815f0154146107d25760405162461bcd60e51b815260040161061f906127de565b80600401805480602002602001604051908101604052809291908181526020015f905b828210156108ea575f8481526020908190206040805160a081019091526005850290910180546001600160a01b03168252600181018054929391929184019161083d9061282c565b80601f01602080910402602001604051908101604052809291908181526020018280546108699061282c565b80156108b45780601f1061088b576101008083540402835291602001916108b4565b820191905f5260205f20905b81548152906001019060200180831161089757829003601f168201915b505050505081526020016002820154815260200160038201548152602001600482015481525050815260200190600101906107f5565b50505050915050919050565b600a548190158015906109365750600a8054829190610915908361274b565b815481106109255761092561275e565b905f5260205f2090600b02015f0154145b6109525760405162461bcd60e51b815260040161061f906127de565b61095b8261130a565b5050565b600a818154811061096e575f80fd5b5f9182526020909120600b9091020180546001820154600283015460058401546006850154600786015460088701546009880154600a909801549698506001600160a01b039586169795851696600160a01b90950460e01b959394929360ff8084169461010090940416928b565b600454600354600a545b81831015610a7e575f600a6109fb838661274b565b81548110610a0b57610a0b61275e565b905f5260205f2090600b0201905083815f015414610a365783610a2d8161285e565b945050506109e6565b600781015460ff1615610a4d5783610a2d8161285e565b6007548160060154610a5f9190612786565b4211610a6b5750610a7e565b610a7481611678565b83610a2d8161285e565b5050600455565b5f546001600160a01b03163314610aae5760405162461bcd60e51b815260040161061f90612799565b600855565b5f610ac886868686866005546006545f610ed5565b9695505050505050565b600a80545f918291610ae4908661274b565b81548110610af457610af461275e565b905f5260205f2090600b0201905083815f015414610b15575f915050610b23565b610b1f84846118d4565b9150505b92915050565b5f546001600160a01b03163314610b525760405162461bcd60e51b815260040161061f90612799565b600955565b5f546001600160a01b03163314610b805760405162461bcd60e51b815260040161061f90612799565b600280546001600160a01b0319166001600160a01b0392909216919091179055565b5f546001600160a01b03163314610bcb5760405162461bcd60e51b815260040161061f90612799565b5f8111610c265760405162461bcd60e51b815260206004820152602360248201527f536f6d6e69614167656e74733a207468726573686f6c64206d7573742062652060448201526203e20360ec1b606482015260840161061f565b600655565b5f5f5f60605f5f5f5f5f5f5f5f5f600a80805490508f610c4b919061274b565b81548110610c5b57610c5b61275e565b905f5260205f2090600b020190508d815f015414610c8b5760405162461bcd60e51b815260040161061f906127de565b60018101546002820154600583015460068401546007850154600486015460088701546009880154600a89015460038a018054604080516020808402820181019092528281526001600160a01b039c8d169c8c169b600160a01b900460e01b9a93999398939760ff808616989197610100909604169590949390928b9190830182828015610d4057602002820191905f5260205f20905b81546001600160a01b03168152600190910190602001808311610d22575b505050505098509c509c509c509c509c509c509c509c509c509c509c509c505091939597999b5091939597999b565b5f546001600160a01b03163314610d985760405162461bcd60e51b815260040161061f90612799565b6001600160a01b038116610dfe5760405162461bcd60e51b815260206004820152602760248201527f536f6d6e69614167656e74733a206e6577206f776e6572206973207a65726f206044820152666164647265737360c81b606482015260840161061f565b5f80546001600160a01b0319166001600160a01b0392909216919091179055565b600a80546060915f91610e32908561274b565b81548110610e4257610e4261275e565b905f5260205f2090600b0201905082815f015414610e725760405162461bcd60e51b815260040161061f906127de565b80600301805480602002602001604051908101604052809291908181526020018280548015610ec857602002820191905f5260205f20905b81546001600160a01b03168152600190910190602001808311610eaa575b5050505050915050919050565b5f5f83118015610ee55750838311155b610f315760405162461bcd60e51b815260206004820152601f60248201527f536f6d6e69614167656e74733a20696e76616c6964207468726573686f6c6400604482015260640161061f565b5f34118015610f4257506009543411155b610f8e5760405162461bcd60e51b815260206004820152601e60248201527f536f6d6e69614167656e74733a20696e76616c6964206d617820636f73740000604482015260640161061f565b600154604051632de5aaf760e01b8152600481018b90525f916001600160a01b031690632de5aaf7906024015f60405180830381865afa158015610fd4573d5f5f3e3d5ffd5b505050506040513d5f823e601f3d908101601f19168201604052610ffb919081019061294d565b90505f60025f9054906101000a90046001600160a01b03166001600160a01b0316634876aebc6040518163ffffffff1660e01b81526004015f60405180830381865afa15801561104d573d5f5f3e3d5ffd5b505050506040513d5f823e601f3d908101601f191682016040526110749190810190612a0a565b905085815110156110d75760405162461bcd60e51b815260206004820152602760248201527f536f6d6e69614167656e74733a206e6f7420656e6f75676820616374697665206044820152666d656d6265727360c81b606482015260840161061f565b60038054905f6110e68361285e565b9091555060025460405163b4615b8d60e01b815260048101899052602481018390529194505f916001600160a01b039091169063b4615b8d906044015f60405180830381865afa15801561113c573d5f5f3e3d5ffd5b505050506040513d5f823e601f3d908101601f191682016040526111639190810190612a0a565b600a80549192505f91611176908761274b565b815481106111865761118661275e565b905f5260205f2090600b020190505b6004810154156111fe57806004018054806111b2576111b2612abc565b5f8281526020812060055f199093019283020180546001600160a01b0319168155906111e16001830182612206565b505f60028201819055600382018190556004909101559055611195565b8481556001810180546001600160a01b0319163317905560028101805460e08d901c600160a01b026001600160c01b03199091166001600160a01b038f161717905581516112559060038301906020850190612240565b506005810187905542600682015560078101805460ff198116825587919061ffff191661010083600181111561128d5761128d612512565b0217905550836080015181600801819055503481600901819055505f81600a0181905550336001600160a01b03168d867ff32d641397bfceb2da93454b4ed51bfad0f3747206cbce80ecf4317e9c08d1f4348e8e886040516112f29493929190612ad0565b60405180910390a45050505098975050505050505050565b600a80545f919061131b908461274b565b8154811061132b5761132b61275e565b5f9182526020909120600b90910201600781015490915060ff16156113a25760405162461bcd60e51b815260206004820152602760248201527f536f6d6e69614167656e74733a207265717565737420616c72656164792066696044820152661b985b1a5e995960ca1b606482015260840161061f565b60075481600601546113b49190612786565b42116114125760405162461bcd60e51b815260206004820152602760248201527f536f6d6e69614167656e74733a2072657175657374206e6f742074696d6564206044820152661bdd5d081e595d60ca1b606482015260840161061f565b60078101805460ff1916600117905560405182907f80f32f66463ff726c97765d8dcd5ab6e0587bdbeea298adc3da6cd0a584ee10f905f90a260048101546060905f90156114a557606061147f846004018560070160019054906101000a900460ff16866005015461197a565b90935090505f61148e826119ee565b60038601549091506114a09082612b12565b925050505b60028301545f906001600160a01b031615611591575f5a60028601546008546040519293505f926001600160a01b03831692600160a01b900460e01b906114f2908b908a90602401612b29565b60408051601f198184030181529181526020820180516001600160e01b03166001600160e01b03199094169390931790925290516115309190612b49565b5f604051808303815f8787f1925050503d805f811461156a576040519150601f19603f3d011682016040523d82523d5f602084013e61156f565b606091505b505090505f5a61157f9084612b5f565b905061158b3a82612b12565b93505050505b808285600801546115a29190612786565b6115ac9190612786565b600a850181905560098501545f91101561162f5784600a015485600901546115d49190612b5f565b60018601546040519192505f916001600160a01b039091169083908381818185875af1925050503d805f8114611625576040519150601f19603f3d011682016040523d82523d5f602084013e61162a565b606091505b505050505b600a850154604080519182526020820183905287917f1557420f69b14a9661c70e7f95f8d9eaa3a277adaef216dbc7640685e3083c6291015b60405180910390a2505050505050565b805460078201805460ff1916600117905560405181907f80f32f66463ff726c97765d8dcd5ab6e0587bdbeea298adc3da6cd0a584ee10f905f90a260048201546060905f901561170d5760606116e7856004018660070160019054906101000a900460ff16876005015461197a565b90935090505f6116f6826119ee565b60038701549091506117089082612b12565b925050505b60028401545f906001600160a01b0316156117f9575f5a60028701546008546040519293505f926001600160a01b03831692600160a01b900460e01b9061175a908a908a90602401612b29565b60408051601f198184030181529181526020820180516001600160e01b03166001600160e01b03199094169390931790925290516117989190612b49565b5f604051808303815f8787f1925050503d805f81146117d2576040519150601f19603f3d011682016040523d82523d5f602084013e6117d7565b606091505b505090505f5a6117e79084612b5f565b90506117f33a82612b12565b93505050505b8082866008015461180a9190612786565b6118149190612786565b600a860181905560098601545f9110156118975785600a0154866009015461183c9190612b5f565b60018701546040519192505f916001600160a01b039091169083908381818185875af1925050503d805f811461188d576040519150601f19603f3d011682016040523d82523d5f602084013e611892565b606091505b505050505b600a860154604080519182526020820183905286917f1557420f69b14a9661c70e7f95f8d9eaa3a277adaef216dbc7640685e3083c629101611668565b600a80545f9182916118e6908661274b565b815481106118f6576118f661275e565b905f5260205f2090600b0201905083815f015414611917575f915050610b23565b600381015f5b815481101561196f57846001600160a01b03168282815481106119425761194261275e565b5f918252602090912001546001600160a01b0316036119675760019350505050610b23565b60010161191d565b505f95945050505050565b825460609081905f036119a957505060408051602080820183525f8083528351908152908101909252906119e6565b5f8460018111156119bc576119bc612512565b036119d4576119cb8584611bab565b915091506119e6565b6119dd85611f16565b6119cb8661206b565b935093915050565b5f81515f036119fe57505f919050565b8151600103611a2857815f81518110611a1957611a1961275e565b60200260200101519050919050565b60015b8251811015611b07575f838281518110611a4757611a4761275e565b602002602001015190505f8290505b5f81118015611a8757508185611a6d600184612b5f565b81518110611a7d57611a7d61275e565b6020026020010151115b15611adf5784611a98600183612b5f565b81518110611aa857611aa861275e565b6020026020010151858281518110611ac257611ac261275e565b602090810291909101015280611ad781612b72565b915050611a56565b81858281518110611af257611af261275e565b60209081029190910101525050600101611a2b565b505f60028351611b179190612b87565b905060028351611b27919061274b565b5f03611b83576002838281518110611b4157611b4161275e565b602002602001015184600184611b579190612b5f565b81518110611b6757611b6761275e565b6020026020010151611b799190612786565b6105ef9190612b87565b828181518110611b9557611b9561275e565b6020026020010151915050919050565b50919050565b6060805f5b8454811015611dd4575f805b8654811015611c2a57611c0f878481548110611bda57611bda61275e565b905f5260205f209060050201600101888381548110611bfb57611bfb61275e565b905f5260205f20906005020160010161210e565b15611c225781611c1e8161285e565b9250505b600101611bbc565b50848110611dcb57806001600160401b03811115611c4a57611c4a612876565b604051908082528060200260200182016040528015611c73578160200160208202803683370190505b5092505f805b8754811015611d1257611cb8888581548110611c9757611c9761275e565b905f5260205f209060050201600101898381548110611bfb57611bfb61275e565b15611d0a57878181548110611ccf57611ccf61275e565b905f5260205f20906005020160030154858380611ceb9061285e565b945081518110611cfd57611cfd61275e565b6020026020010181815250505b600101611c79565b50868381548110611d2557611d2561275e565b905f5260205f20906005020160010184818054611d419061282c565b80601f0160208091040260200160405190810160405280929190818152602001828054611d6d9061282c565b8015611db85780601f10611d8f57610100808354040283529160200191611db8565b820191905f5260205f20905b815481529060010190602001808311611d9b57829003601f168201915b5050505050915094509450505050611f0f565b50600101611bb0565b50835415611ef1576040805160018082528183019092529060208083019080368337019050509050835f81548110611e0e57611e0e61275e565b905f5260205f20906005020160030154815f81518110611e3057611e3061275e565b602002602001018181525050835f81548110611e4e57611e4e61275e565b905f5260205f20906005020160010181818054611e6a9061282c565b80601f0160208091040260200160405190810160405280929190818152602001828054611e969061282c565b8015611ee15780601f10611eb857610100808354040283529160200191611ee1565b820191905f5260205f20905b815481529060010190602001808311611ec457829003601f168201915b5050505050915091509150611f0f565b505060408051602080820183525f8083528351908152908101909252905b9250929050565b80546060905f906001600160401b03811115611f3457611f34612876565b604051908082528060200260200182016040528015611f6757816020015b6060815260200190600190039081611f525790505b5090505f5b835481101561204257838181548110611f8757611f8761275e565b905f5260205f2090600502016001018054611fa19061282c565b80601f0160208091040260200160405190810160405280929190818152602001828054611fcd9061282c565b80156120185780601f10611fef57610100808354040283529160200191612018565b820191905f5260205f20905b815481529060010190602001808311611ffb57829003601f168201915b505050505082828151811061202f5761202f61275e565b6020908102919091010152600101611f6c565b50806040516020016120549190612b9a565b604051602081830303815290604052915050919050565b80546060905f906001600160401b0381111561208957612089612876565b6040519080825280602002602001820160405280156120b2578160200160208202803683370190505b5090505f5b8354811015612107578381815481106120d2576120d261275e565b905f5260205f209060050201600301548282815181106120f4576120f461275e565b60209081029190910101526001016120b7565b5092915050565b5f81805461211b9061282c565b90508380546121299061282c565b90501461213757505f610b23565b5f5b8380546121459061282c565b90508110156121fc578281815461215b9061282c565b81106121695761216961275e565b81546001161561218657905f5260205f2090602091828204019190065b9054901a600160f81b026001600160f81b031916848281546121a79061282c565b81106121b5576121b561275e565b8154600116156121d257905f5260205f2090602091828204019190065b9054901a600160f81b026001600160f81b031916146121f4575f915050610b23565b600101612139565b5060019392505050565b5080546122129061282c565b5f825580601f10612221575050565b601f0160209004905f5260205f209081019061223d91906122a3565b50565b828054828255905f5260205f20908101928215612293579160200282015b8281111561229357825182546001600160a01b0319166001600160a01b0390911617825560209092019160019091019061225e565b5061229f9291506122a3565b5090565b5b8082111561229f575f81556001016122a4565b5f602082840312156122c7575f5ffd5b5035919050565b6001600160a01b038116811461223d575f5ffd5b5f602082840312156122f2575f5ffd5b81356105ef816122ce565b5f5f83601f84011261230d575f5ffd5b5081356001600160401b03811115612323575f5ffd5b602083019150836020828501011115611f0f575f5ffd5b5f5f5f5f5f6080868803121561234e575f5ffd5b8535945060208601356001600160401b0381111561236a575f5ffd5b612376888289016122fd565b9699909850959660408101359660609091013595509350505050565b80356001600160e01b0319811681146123a9575f5ffd5b919050565b5f5f5f5f5f5f5f5f60e0898b0312156123c5575f5ffd5b8835975060208901356123d7816122ce565b96506123e560408a01612392565b955060608901356001600160401b038111156123ff575f5ffd5b61240b8b828c016122fd565b9096509450506080890135925060a0890135915060c089013560028110612430575f5ffd5b809150509295985092959890939650565b5f81518084528060208401602086015e5f602082860101526020601f19601f83011685010191505092915050565b5f602082016020835280845180835260408501915060408160051b8601019250602086015f5b8281101561250657868503603f19018452815180516001600160a01b0316865260208082015160a0918801829052906124d090880182612441565b60408381015190890152606080840151908901526080928301519290970191909152506020938401939190910190600101612495565b50929695505050505050565b634e487b7160e01b5f52602160045260245ffd5b6002811061254257634e487b7160e01b5f52602160045260245ffd5b9052565b8b81526001600160a01b038b811660208301528a1660408201526001600160e01b0319891660608201526080810188905260a0810187905285151560c0820152610160810161259860e0830187612526565b8461010083015283610120830152826101408301529c9b505050505050505050505050565b5f5f5f5f5f608086880312156125d1575f5ffd5b8535945060208601356125e3816122ce565b93506125f160408701612392565b925060608601356001600160401b0381111561260b575f5ffd5b612617888289016122fd565b969995985093965092949392505050565b5f5f60408385031215612639575f5ffd5b82359150602083013561264b816122ce565b809150509250929050565b5f8151808452602084019350602083015f5b8281101561268f5781516001600160a01b0316865260209586019590910190600101612668565b5093949350505050565b6001600160a01b038d811682528c1660208201526001600160e01b03198b166040820152610180606082018190525f906126d59083018c612656565b90508960808301528860a083015287151560c08301528660e08301526126ff610100830187612526565b8461012083015283610140830152826101608301529d9c50505050505050505050505050565b602081525f6105ef6020830184612656565b634e487b7160e01b5f52601260045260245ffd5b5f8261275957612759612737565b500690565b634e487b7160e01b5f52603260045260245ffd5b634e487b7160e01b5f52601160045260245ffd5b80820180821115610b2357610b23612772565b60208082526025908201527f536f6d6e69614167656e74733a2063616c6c6572206973206e6f74207468652060408201526437bbb732b960d91b606082015260800190565b6020808252602e908201527f536f6d6e69614167656e74733a2072657175657374206e6f7420666f756e642060408201526d37b91037bb32b93bb934ba3a32b760911b606082015260800190565b600181811c9082168061284057607f821691505b602082108103611ba557634e487b7160e01b5f52602260045260245ffd5b5f6001820161286f5761286f612772565b5060010190565b634e487b7160e01b5f52604160045260245ffd5b60405160a081016001600160401b03811182821017156128ac576128ac612876565b60405290565b604051601f8201601f191681016001600160401b03811182821017156128da576128da612876565b604052919050565b5f82601f8301126128f1575f5ffd5b81516001600160401b0381111561290a5761290a612876565b61291d601f8201601f19166020016128b2565b818152846020838601011115612931575f5ffd5b8160208501602083015e5f918101602001919091529392505050565b5f6020828403121561295d575f5ffd5b81516001600160401b03811115612972575f5ffd5b820160a08185031215612983575f5ffd5b61298b61288a565b81518152602082015161299d816122ce565b602082015260408201516001600160401b038111156129ba575f5ffd5b6129c6868285016128e2565b60408301525060608201516001600160401b038111156129e4575f5ffd5b6129f0868285016128e2565b606083015250608091820151918101919091529392505050565b5f60208284031215612a1a575f5ffd5b81516001600160401b03811115612a2f575f5ffd5b8201601f81018413612a3f575f5ffd5b80516001600160401b03811115612a5857612a58612876565b8060051b612a68602082016128b2565b91825260208184018101929081019087841115612a83575f5ffd5b6020850194505b83851015612ab15784519250612a9f836122ce565b82825260209485019490910190612a8a565b979650505050505050565b634e487b7160e01b5f52603160045260245ffd5b84815260606020820152826060820152828460808301375f608084830101525f601f19601f85011682016080838203016040840152612ab16080820185612656565b8082028115828204841417610b2357610b23612772565b828152604060208201525f612b416040830184612441565b949350505050565b5f82518060208501845e5f920191825250919050565b81810381811115610b2357610b23612772565b5f81612b8057612b80612772565b505f190190565b5f82612b9557612b95612737565b500490565b5f602082016020835280845180835260408501915060408160051b8601019250602086015f5b8281101561250657603f19878603018452612bdc858351612441565b94506020938401939190910190600101612bc056fea2646970667358221220ca0ec79d8ab76597bec0ff03fc65cef234a962a9cdfb8c38cbb7b229d2295eef64736f6c634300081c0033",
  "linkReferences": {},
  "deployedLinkReferences": {},
  "immutableReferences": {},
  "inputSourceName": "project/contracts/SomniaAgents.sol",
  "buildInfoId": "solc-0_8_28-47efc450ddad4c82cb268cd74600956b9e214cd1"
}