{
  "_format": "hh3-artifact-1",
  "contractName": "SomniaAgents",
  "sourceName": "contracts/SomniaAgents.sol",
  "abi": [
    {
      "inputs": [
        {
          "internalType": "uint256",
          "name": "bufferSize",
          "type": "uint256"
        },
        {
          "internalType": "address",
          "name": "_agentRegistry",
          "type": "address"
        },
        {
          "internalType": "address",
          "name": "_committee",
          "type": "address"
        }
      ],
      "stateMutability": "nonpayable",
      "type": "constructor"
    },
    {
      "anonymous": false,
      "inputs": [
        {
          "indexed": true,
          "internalType": "uint256",
          "name": "requestId",
          "type": "uint256"
        },
        {
          "indexed": true,
          "internalType": "uint256",
          "name": "agentId",
          "type": "uint256"
        },
        {
          "indexed": true,
          "internalType": "address",
          "name": "requester",
          "type": "address"
        },
        {
          "indexed": false,
          "internalType": "uint256",
          "name": "maxCost",
          "type": "uint256"
        },
        {
          "indexed": false,
          "internalType": "bytes",
          "name": "payload",
          "type": "bytes"
        },
        {
          "indexed": false,
          "internalType": "address[]",
          "name": "subcommittee",
          "type": "address[]"
        }
      ],
      "name": "RequestCreated",
      "type": "event"
    },
    {
      "anonymous": false,
      "inputs": [
        {
          "indexed": true,
          "internalType": "uint256",
          "name": "requestId",
          "type": "uint256"
        },
        {
          "indexed": false,
          "internalType": "uint256",
          "name": "finalCost",
          "type": "uint256"
        },
        {
          "indexed": false,
          "internalType": "uint256",
          "name": "rebate",
          "type": "uint256"
        }
      ],
      "name": "RequestFinalized",
      "type": "event"
    },
    {
      "anonymous": false,
      "inputs": [
        {
          "indexed": true,
          "internalType": "uint256",
          "name": "requestId",
          "type": "uint256"
        }
      ],
      "name": "RequestTimedOut",
      "type": "event"
    },
    {
      "anonymous": false,
      "inputs": [
        {
          "indexed": true,
          "internalType": "uint256",
          "name": "requestId",
          "type": "uint256"
        },
        {
          "indexed": true,
          "internalType": "address",
          "name": "validator",
          "type": "address"
        }
      ],
      "name": "ResponseSubmitted",
      "type": "event"
    },
    {
      "inputs": [],
      "name": "agentRegistry",
      "outputs": [
        {
          "internalType": "contract IAgentRegistry",
          "name": "",
          "type": "address"
        }
      ],
      "stateMutability": "view",
      "type": "function"
    },
    {
      "inputs": [],
      "name": "callbackGasLimit",
      "outputs": [
        {
          "internalType": "uint256",
          "name": "",
          "type": "uint256"
        }
      ],
      "stateMutability": "view",
      "type": "function"
    },
    {
      "inputs": [],
      "name": "committee",
      "outputs": [
        {
          "internalType": "contract ICommittee",
          "name": "",
          "type": "address"
        }
      ],
      "stateMutability": "view",
      "type": "function"
    },
    {
      "inputs": [
        {
          "internalType": "uint256",
          "name": "agentId",
          "type": "uint256"
        },
        {
          "internalType": "address",
          "name": "callbackAddress",
          "type": "address"
        },
        {
          "internalType": "bytes4",
          "name": "callbackSelector",
          "type": "bytes4"
        },
        {
          "internalType": "bytes",
          "name": "payload",
          "type": "bytes"
        }
      ],
      "name": "createRequest",
      "outputs": [
        {
          "internalType": "uint256",
          "name": "requestId",
          "type": "uint256"
        }
      ],
      "stateMutability": "payable",
      "type": "function"
    },
    {
      "inputs": [
        {
          "internalType": "uint256",
          "name": "agentId",
          "type": "uint256"
        },
        {
          "internalType": "address",
          "name": "callbackAddress",
          "type": "address"
        },
        {
          "internalType": "bytes4",
          "name": "callbackSelector",
          "type": "bytes4"
        },
        {
          "internalType": "bytes",
          "name": "payload",
          "type": "bytes"
        },
        {
          "internalType": "uint256",
          "name": "subcommitteeSize",
          "type": "uint256"
        },
        {
          "internalType": "uint256",
          "name": "threshold",
          "type": "uint256"
        },
        {
          "internalType": "enum ConsensusType",
          "name": "consensusType",
          "type": "uint8"
        }
      ],
      "name": "createRequestWithParams",
      "outputs": [
        {
          "internalType": "uint256",
          "name": "requestId",
          "type": "uint256"
        }
      ],
      "stateMutability": "payable",
      "type": "function"
    },
    {
      "inputs": [],
      "name": "defaultSubcommitteeSize",
      "outputs": [
        {
          "internalType": "uint256",
          "name": "",
          "type": "uint256"
        }
      ],
      "stateMutability": "view",
      "type": "function"
    },
    {
      "inputs": [],
      "name": "defaultThreshold",
      "outputs": [
        {
          "internalType": "uint256",
          "name": "",
          "type": "uint256"
        }
      ],
      "stateMutability": "view",
      "type": "function"
    },
    {
      "inputs": [
        {
          "internalType": "uint256",
          "name": "requestId",
          "type": "uint256"
        }
      ],
      "name": "getRequest",
      "outputs": [
        {
          "internalType": "address",
          "name": "requester",
          "type": "address"
        },
        {
          "internalType": "address",
          "name": "callbackAddress",
          "type": "address"
        },
        {
          "internalType": "bytes4",
          "name": "callbackSelector",
          "type": "bytes4"
        },
        {
          "internalType": "address[]",
          "name": "subcommittee",
          "type": "address[]"
        },
        {
          "internalType": "uint256",
          "name": "threshold",
          "type": "uint256"
        },
        {
          "internalType": "uint256",
          "name": "createdAt",
          "type": "uint256"
        },
        {
          "internalType": "bool",
          "name": "finalized",
          "type": "bool"
        },
        {
          "internalType": "uint256",
          "name": "responseCount",
          "type": "uint256"
        },
        {
          "internalType": "enum ConsensusType",
          "name": "consensusType",
          "type": "uint8"
        },
        {
          "internalType": "uint256",
          "name": "agentCost",
          "type": "uint256"
        },
        {
          "internalType": "uint256",
          "name": "maxCost",
          "type": "uint256"
        },
        {
          "internalType": "uint256",
          "name": "finalCost",
          "type": "uint256"
        }
      ],
      "stateMutability": "view",
      "type": "function"
    },
    {
      "inputs": [
        {
          "internalType": "uint256",
          "name": "requestId",
          "type": "uint256"
        }
      ],
      "name": "getResponses",
      "outputs": [
        {
          "components": [
            {
              "internalType": "address",
              "name": "validator",
              "type": "address"
            },
            {
              "internalType": "bytes",
              "name": "result",
              "type": "bytes"
            },
            {
              "internalType": "uint256",
              "name": "receipt",
              "type": "uint256"
            },
            {
              "internalType": "uint256",
              "name": "price",
              "type": "uint256"
            },
            {
              "internalType": "uint256",
              "name": "timestamp",
              "type": "uint256"
            }
          ],
          "internalType": "struct Response[]",
          "name": "",
          "type": "tuple[]"
        }
      ],
      "stateMutability": "view",
      "type": "function"
    },
    {
      "inputs": [
        {
          "internalType": "uint256",
          "name": "requestId",
          "type": "uint256"
        }
      ],
      "name": "getSubcommittee",
      "outputs": [
        {
          "internalType": "address[]",
          "name": "",
          "type": "address[]"
        }
      ],
      "stateMutability": "view",
      "type": "function"
    },
    {
      "inputs": [
        {
          "internalType": "uint256",
          "name": "requestId",
          "type": "uint256"
        }
      ],
      "name": "isRequestPending",
      "outputs": [
        {
          "internalType": "bool",
          "name": "",
          "type": "bool"
        }
      ],
      "stateMutability": "view",
      "type": "function"
    },
    {
      "inputs": [
        {
          "internalType": "uint256",
          "name": "requestId",
          "type": "uint256"
        }
      ],
      "name": "isRequestValid",
      "outputs": [
        {
          "internalType": "bool",
          "name": "",
          "type": "bool"
        }
      ],
      "stateMutability": "view",
      "type": "function"
    },
    {
      "inputs": [
        {
          "internalType": "uint256",
          "name": "requestId",
          "type": "uint256"
        },
        {
          "internalType": "address",
          "name": "addr",
          "type": "address"
        }
      ],
      "name": "isSubcommitteeMember",
      "outputs": [
        {
          "internalType": "bool",
          "name": "",
          "type": "bool"
        }
      ],
      "stateMutability": "view",
      "type": "function"
    },
    {
      "inputs": [],
      "name": "maxExecutionFee",
      "outputs": [
        {
          "internalType": "uint256",
          "name": "",
          "type": "uint256"
        }
      ],
      "stateMutability": "view",
      "type": "function"
    },
    {
      "inputs": [],
      "name": "nextRequestId",
      "outputs": [
        {
          "internalType": "uint256",
          "name": "",
          "type": "uint256"
        }
      ],
      "stateMutability": "view",
      "type": "function"
    },
    {
      "inputs": [],
      "name": "oldestPendingId",
      "outputs": [
        {
          "internalType": "uint256",
          "name": "",
          "type": "uint256"
        }
      ],
      "stateMutability": "view",
      "type": "function"
    },
    {
      "inputs": [],
      "name": "owner",
      "outputs": [
        {
          "internalType": "address",
          "name": "",
          "type": "address"
        }
      ],
      "stateMutability": "view",
      "type": "function"
    },
    {
      "inputs": [],
      "name": "requestTimeout",
      "outputs": [
        {
          "internalType": "uint256",
          "name": "",
          "type": "uint256"
        }
      ],
      "stateMutability": "view",
      "type": "function"
    },
    {
      "inputs": [
        {
          "internalType": "uint256",
          "name": "",
          "type": "uint256"
        }
      ],
      "name": "requests",
      "outputs": [
        {
          "internalType": "uint256",
          "name": "id",
          "type": "uint256"
        },
        {
          "internalType": "address",
          "name": "requester",
          "type": "address"
        },
        {
          "internalType": "address",
          "name": "callbackAddress",
          "type": "address"
        },
        {
          "internalType": "bytes4",
          "name": "callbackSelector",
          "type": "bytes4"
        },
        {
          "internalType": "uint256",
          "name": "threshold",
          "type": "uint256"
        },
        {
          "internalType": "uint256",
          "name": "createdAt",
          "type": "uint256"
        },
        {
          "internalType": "bool",
          "name": "finalized",
          "type": "bool"
        },
        {
          "internalType": "enum ConsensusType",
          "name": "consensusType",
          "type": "uint8"
        },
        {
          "internalType": "uint256",
          "name": "agentCost",
          "type": "uint256"
        },
        {
          "internalType": "uint256",
          "name": "maxCost",
          "type": "uint256"
        },
        {
          "internalType": "uint256",
          "name": "finalCost",
          "type": "uint256"
        }
      ],
      "stateMutability": "view",
      "type": "function"
    },
    {
      "inputs": [
        {
          "internalType": "address",
          "name": "_agentRegistry",
          "type": "address"
        }
      ],
      "name": "setAgentRegistry",
      "outputs": [],
      "stateMutability": "nonpayable",
      "type": "function"
    },
    {
      "inputs": [
        {
          "internalType": "uint256",
          "name": "gasLimit",
          "type": "uint256"
        }
      ],
      "name": "setCallbackGasLimit",
      "outputs": [],
      "stateMutability": "nonpayable",
      "type": "function"
    },
    {
      "inputs": [
        {
          "internalType": "address",
          "name": "_committee",
          "type": "address"
        }
      ],
      "name": "setCommittee",
      "outputs": [],
      "stateMutability": "nonpayable",
      "type": "function"
    },
    {
      "inputs": [
        {
          "internalType": "uint256",
          "name": "size",
          "type": "uint256"
        }
      ],
      "name": "setDefaultSubcommitteeSize",
      "outputs": [],
      "stateMutability": "nonpayable",
      "type": "function"
    },
    {
      "inputs": [
        {
          "internalType": "uint256",
          "name": "threshold",
          "type": "uint256"
        }
      ],
      "name": "setDefaultThreshold",
      "outputs": [],
      "stateMutability": "nonpayable",
      "type": "function"
    },
    {
      "inputs": [
        {
          "internalType": "uint256",
          "name": "maxFee",
          "type": "uint256"
        }
      ],
      "name": "setMaxExecutionFee",
      "outputs": [],
      "stateMutability": "nonpayable",
      "type": "function"
    },
    {
      "inputs": [
        {
          "internalType": "uint256",
          "name": "timeout",
          "type": "uint256"
        }
      ],
      "name": "setRequestTimeout",
      "outputs": [],
      "stateMutability": "nonpayable",
      "type": "function"
    },
    {
      "inputs": [
        {
          "internalType": "uint256",
          "name": "requestId",
          "type": "uint256"
        },
        {
          "internalType": "bytes",
          "name": "result",
          "type": "bytes"
        },
        {
          "internalType": "uint256",
          "name": "receipt",
          "type": "uint256"
        },
        {
          "internalType": "uint256",
          "name": "price",
          "type": "uint256"
        }
      ],
      "name": "submitResponse",
      "outputs": [],
      "stateMutability": "nonpayable",
      "type": "function"
    },
    {
      "inputs": [
        {
          "internalType": "uint256[]",
          "name": "requestIds",
          "type": "uint256[]"
        },
        {
          "internalType": "bytes[]",
          "name": "results",
          "type": "bytes[]"
        },
        {
          "internalType": "uint256[]",
          "name": "receipts",
          "type": "uint256[]"
        },
        {
          "internalType": "uint256[]",
          "name": "prices",
          "type": "uint256[]"
        }
      ],
      "name": "submitResponseBatch",
      "outputs": [],
      "stateMutability": "nonpayable",
      "type": "function"
    },
    {
      "inputs": [
        {
          "internalType": "uint256",
          "name": "requestId",
          "type": "uint256"
        }
      ],
      "name": "timeoutRequest",
      "outputs": [],
      "stateMutability": "nonpayable",
      "type": "function"
    },
    {
      "inputs": [
        {
          "internalType": "address",
          "name": "newOwner",
          "type": "address"
        }
      ],
      "name": "transferOwnership",
      "outputs": [],
      "stateMutability": "nonpayable",
      "type": "function"
    },
    {
      "inputs": [],
      "name": "upkeepRequests",
      "outputs": [],
      "stateMutability": "nonpayable",
      "type": "function"
    }
  ],
  "bytecode": "0x608060405260036005556002600655603c6007556207a120600855670de0b6b3a7640000600955348015610031575f5ffd5b5060405161370f38038061370f833981016040819052610050916100cb565b5f8054336001600160a01b03199182161782556001805482166001600160a01b0386811691909117909155600280549092169084161790555b838110156100a757600a8054600190810182555f9190915201610089565b50505050610104565b80516001600160a01b03811681146100c6575f5ffd5b919050565b5f5f5f606084860312156100dd575f5ffd5b835192506100ed602085016100b0565b91506100fb604085016100b0565b90509250925092565b6135fe806101115f395ff3fe6080604052600436106101d0575f3560e01c80637df29c71116100fd578063af81328e11610092578063d864e74011610062578063d864e74014610532578063f09a952314610551578063f2fde38b14610566578063fb5c92fe14610585575f5ffd5b8063af81328e1461049e578063bddae40e146104bd578063c5246bf5146104dc578063c58343ef146104fb575f5ffd5b80638bbcbbe2116100cd5780638bbcbbe21461042f5780638da5cb5b1461044257806398159f1714610460578063a264b4bb1461047f575f5ffd5b80637df29c71146103a757806381d12c58146103c657806387c701c3146103fc5780638a54942f14610410575f5ffd5b806333021a6611610173578063622b6af411610143578063622b6af4146103285780636512f111146103475780636a84a9851461036657806371ee2ce11461037b575f5ffd5b806333021a66146102cc5780633f20b4c9146102df57806340939cb8146102f457806353f10a4b14610313575f5ffd5b806324f74697116101ae57806324f746971461026257806326949f9e1461027757806328342ecf1461028c5780632d3abd63146102ad575f5ffd5b80630d1cfcae146101d457806316221fdf146102105780631abd5caa1461023f575b5f5ffd5b3480156101df575f5ffd5b506001546101f3906001600160a01b031681565b6040516001600160a01b0390911681526020015b60405180910390f35b34801561021b575f5ffd5b5061022f61022a366004612a3f565b6105b1565b6040519015158152602001610207565b34801561024a575f5ffd5b5061025460055481565b604051908152602001610207565b34801561026d575f5ffd5b5061025460085481565b348015610282575f5ffd5b5061025460095481565b348015610297575f5ffd5b506102ab6102a6366004612a6a565b610620565b005b3480156102b8575f5ffd5b506102ab6102c7366004612ac2565b610674565b6102546102da366004612b36565b6106d4565b3480156102ea575f5ffd5b5061025460075481565b3480156102ff575f5ffd5b506102ab61030e366004612a3f565b6106f2565b34801561031e575f5ffd5b5061025460065481565b348015610333575f5ffd5b506102ab610342366004612a3f565b61076f565b348015610352575f5ffd5b5061022f610361366004612a3f565b61079d565b348015610371575f5ffd5b5061025460035481565b348015610386575f5ffd5b5061039a610395366004612a3f565b6107d6565b6040516102079190612bf7565b3480156103b2575f5ffd5b506102ab6103c1366004612a3f565b61094d565b3480156103d1575f5ffd5b506103e56103e0366004612a3f565b6109b6565b6040516102079b9a99989796959493929190612cce565b348015610407575f5ffd5b506102ab610a33565b34801561041b575f5ffd5b506102ab61042a366004612a3f565b610adc565b61025461043d366004612d45565b610b0a565b34801561044d575f5ffd5b505f546101f3906001600160a01b031681565b34801561046b575f5ffd5b5061022f61047a366004612db0565b610b2b565b34801561048a575f5ffd5b506102ab610499366004612a3f565b610b82565b3480156104a9575f5ffd5b506102ab6104b8366004612e1e565b610bb0565b3480156104c8575f5ffd5b506102ab6104d7366004612a6a565b610cb6565b3480156104e7575f5ffd5b506102ab6104f6366004612a3f565b610d01565b348015610506575f5ffd5b5061051a610515366004612a3f565b610d8a565b6040516102079c9b9a99989796959493929190612f2b565b34801561053d575f5ffd5b506002546101f3906001600160a01b031681565b34801561055c575f5ffd5b5061025460045481565b348015610571575f5ffd5b506102ab610580366004612a6a565b610ece565b348015610590575f5ffd5b506105a461059f366004612a3f565b610f7e565b6040516102079190612fb7565b600a80545f9182916105c39085612fdd565b815481106105d3576105d3612ff0565b905f5260205f2090600b0201905082815f0154146105f357505f92915050565b600781015460ff16158015610619575060075481600601546106159190613018565b4211155b9392505050565b5f546001600160a01b031633146106525760405162461bcd60e51b81526004016106499061302b565b60405180910390fd5b600180546001600160a01b0319166001600160a01b0392909216919091179055565b6106818585858585611034565b6106cd5760405162461bcd60e51b815260206004820152601f60248201527f536f6d6e69614167656e74733a207375626d697373696f6e206661696c6564006044820152606401610649565b5050505050565b5f6106e5898989898989898961128c565b9998505050505050505050565b5f546001600160a01b0316331461071b5760405162461bcd60e51b81526004016106499061302b565b5f811161076a5760405162461bcd60e51b815260206004820152601e60248201527f536f6d6e69614167656e74733a2073697a65206d757374206265203e203000006044820152606401610649565b600555565b5f546001600160a01b031633146107985760405162461bcd60e51b81526004016106499061302b565b600755565b600a80545f9183916107af9083612fdd565b815481106107bf576107bf612ff0565b905f5260205f2090600b02015f0154149050919050565b600a80546060915f916107e99085612fdd565b815481106107f9576107f9612ff0565b905f5260205f2090600b0201905082815f0154146108295760405162461bcd60e51b815260040161064990613070565b80600401805480602002602001604051908101604052809291908181526020015f905b82821015610941575f8481526020908190206040805160a081019091526005850290910180546001600160a01b031682526001810180549293919291840191610894906130be565b80601f01602080910402602001604051908101604052809291908181526020018280546108c0906130be565b801561090b5780601f106108e25761010080835404028352916020019161090b565b820191905f5260205f20905b8154815290600101906020018083116108ee57829003601f168201915b5050505050815260200160028201548152602001600382015481526020016004820154815250508152602001906001019061084c565b50505050915050919050565b600a5481901580159061098d5750600a805482919061096c9083612fdd565b8154811061097c5761097c612ff0565b905f5260205f2090600b02015f0154145b6109a95760405162461bcd60e51b815260040161064990613070565b6109b2826116c1565b5050565b600a81815481106109c5575f80fd5b5f9182526020909120600b9091020180546001820154600283015460058401546006850154600786015460088701546009880154600a909801549698506001600160a01b039586169795851696600160a01b90950460e01b959394929360ff8084169461010090940416928b565b600454600354600a545b81831015610ad5575f600a610a528386612fdd565b81548110610a6257610a62612ff0565b905f5260205f2090600b0201905083815f015414610a8d5783610a84816130f0565b94505050610a3d565b600781015460ff1615610aa45783610a84816130f0565b6007548160060154610ab69190613018565b4211610ac25750610ad5565b610acb81611a2f565b83610a84816130f0565b5050600455565b5f546001600160a01b03163314610b055760405162461bcd60e51b81526004016106499061302b565b600855565b5f610b1f86868686866005546006545f61128c565b90505b95945050505050565b600a80545f918291610b3d9086612fdd565b81548110610b4d57610b4d612ff0565b905f5260205f2090600b0201905083815f015414610b6e575f915050610b7c565b610b788484611c8b565b9150505b92915050565b5f546001600160a01b03163314610bab5760405162461bcd60e51b81526004016106499061302b565b600955565b8685148015610bbe57508683145b8015610bc957508681145b610c215760405162461bcd60e51b815260206004820152602360248201527f536f6d6e69614167656e74733a206172726179206c656e677468206d69736d616044820152620e8c6d60eb1b6064820152608401610649565b5f5b87811015610cab57610ca2898983818110610c4057610c40612ff0565b90506020020135888884818110610c5957610c59612ff0565b9050602002810190610c6b9190613108565b888886818110610c7d57610c7d612ff0565b90506020020135878787818110610c9657610c96612ff0565b90506020020135611034565b50600101610c23565b505050505050505050565b5f546001600160a01b03163314610cdf5760405162461bcd60e51b81526004016106499061302b565b600280546001600160a01b0319166001600160a01b0392909216919091179055565b5f546001600160a01b03163314610d2a5760405162461bcd60e51b81526004016106499061302b565b5f8111610d855760405162461bcd60e51b815260206004820152602360248201527f536f6d6e69614167656e74733a207468726573686f6c64206d7573742062652060448201526203e20360ec1b6064820152608401610649565b600655565b5f5f5f60605f5f5f5f5f5f5f5f5f600a80805490508f610daa9190612fdd565b81548110610dba57610dba612ff0565b905f5260205f2090600b020190508d815f015414610dea5760405162461bcd60e51b815260040161064990613070565b60018101546002820154600583015460068401546007850154600486015460088701546009880154600a89015460038a018054604080516020808402820181019092528281526001600160a01b039c8d169c8c169b600160a01b900460e01b9a93999398939760ff808616989197610100909604169590949390928b9190830182828015610e9f57602002820191905f5260205f20905b81546001600160a01b03168152600190910190602001808311610e81575b505050505098509c509c509c509c509c509c509c509c509c509c509c509c505091939597999b5091939597999b565b5f546001600160a01b03163314610ef75760405162461bcd60e51b81526004016106499061302b565b6001600160a01b038116610f5d5760405162461bcd60e51b815260206004820152602760248201527f536f6d6e69614167656e74733a206e6577206f776e6572206973207a65726f206044820152666164647265737360c81b6064820152608401610649565b5f80546001600160a01b0319166001600160a01b0392909216919091179055565b600a80546060915f91610f919085612fdd565b81548110610fa157610fa1612ff0565b905f5260205f2090600b0201905082815f015414610fd15760405162461bcd60e51b815260040161064990613070565b8060030180548060200260200160405190810160405280929190818152602001828054801561102757602002820191905f5260205f20905b81546001600160a01b03168152600190910190602001808311611009575b5050505050915050919050565b600a545f9015806110735750600a80548791906110519083612fdd565b8154811061106157611061612ff0565b905f5260205f2090600b02015f015414155b1561107f57505f610b22565b6110898633611c8b565b61109457505f610b22565b600a80545f91906110a59089612fdd565b815481106110b5576110b5612ff0565b5f9182526020909120600b90910201600781015490915060ff16156110dd575f915050610b22565b60075481600601546110ef9190613018565b4211156110ff575f915050610b22565b61110c8160040133611d31565b1561111a575f915050610b22565b806004016040518060a00160405280336001600160a01b0316815260200188888080601f0160208091040260200160405190810160405280939291908181526020018383808284375f9201829052509385525050506020808301899052604083018890524260609093019290925283546001808201865594825290829020835160059092020180546001600160a01b0319166001600160a01b039092169190911781559082015191929091908201906111d390826131a7565b5060408281015160028301556060830151600383015560809092015160049091015551339088907fd34a91eddebc3a46f0193e4f54124f90bd00de34c64b5407562def103949d006905f90a35f6007820154610100900460ff16600181111561123e5761123e612c9a565b0361126757611254816004018260050154611d92565b156112625761126287611e2b565b61127f565b600581015460048201541061127f5761127f87611e2b565b5060019695505050505050565b5f5f8311801561129c5750838311155b6112e85760405162461bcd60e51b815260206004820152601f60248201527f536f6d6e69614167656e74733a20696e76616c6964207468726573686f6c64006044820152606401610649565b5f341180156112f957506009543411155b6113455760405162461bcd60e51b815260206004820152601e60248201527f536f6d6e69614167656e74733a20696e76616c6964206d617820636f737400006044820152606401610649565b600154604051632de5aaf760e01b8152600481018b90525f916001600160a01b031690632de5aaf7906024015f60405180830381865afa15801561138b573d5f5f3e3d5ffd5b505050506040513d5f823e601f3d908101601f191682016040526113b29190810190613324565b90505f60025f9054906101000a90046001600160a01b03166001600160a01b0316634876aebc6040518163ffffffff1660e01b81526004015f60405180830381865afa158015611404573d5f5f3e3d5ffd5b505050506040513d5f823e601f3d908101601f1916820160405261142b91908101906133e1565b9050858151101561148e5760405162461bcd60e51b815260206004820152602760248201527f536f6d6e69614167656e74733a206e6f7420656e6f75676820616374697665206044820152666d656d6265727360c81b6064820152608401610649565b60038054905f61149d836130f0565b9091555060025460405163b4615b8d60e01b815260048101899052602481018390529194505f916001600160a01b039091169063b4615b8d906044015f60405180830381865afa1580156114f3573d5f5f3e3d5ffd5b505050506040513d5f823e601f3d908101601f1916820160405261151a91908101906133e1565b600a80549192505f9161152d9087612fdd565b8154811061153d5761153d612ff0565b905f5260205f2090600b020190505b6004810154156115b5578060040180548061156957611569613493565b5f8281526020812060055f199093019283020180546001600160a01b031916815590611598600183018261298e565b505f6002820181905560038201819055600490910155905561154c565b8481556001810180546001600160a01b0319163317905560028101805460e08d901c600160a01b026001600160c01b03199091166001600160a01b038f1617179055815161160c90600383019060208501906129c8565b506005810187905542600682015560078101805460ff198116825587919061ffff191661010083600181111561164457611644612c9a565b0217905550836080015181600801819055503481600901819055505f81600a0181905550336001600160a01b03168d867ff32d641397bfceb2da93454b4ed51bfad0f3747206cbce80ecf4317e9c08d1f4348e8e886040516116a994939291906134a7565b60405180910390a45050505098975050505050505050565b600a80545f91906116d29084612fdd565b815481106116e2576116e2612ff0565b5f9182526020909120600b90910201600781015490915060ff16156117595760405162461bcd60e51b815260206004820152602760248201527f536f6d6e69614167656e74733a207265717565737420616c72656164792066696044820152661b985b1a5e995960ca1b6064820152608401610649565b600754816006015461176b9190613018565b42116117c95760405162461bcd60e51b815260206004820152602760248201527f536f6d6e69614167656e74733a2072657175657374206e6f742074696d6564206044820152661bdd5d081e595d60ca1b6064820152608401610649565b60078101805460ff1916600117905560405182907f80f32f66463ff726c97765d8dcd5ab6e0587bdbeea298adc3da6cd0a584ee10f905f90a260048101546060905f901561185c576060611836846004018560070160019054906101000a900460ff168660050154612116565b90935090505f6118458261218a565b600386015490915061185790826134e9565b925050505b60028301545f906001600160a01b031615611948575f5a60028601546008546040519293505f926001600160a01b03831692600160a01b900460e01b906118a9908b908a90602401613500565b60408051601f198184030181529181526020820180516001600160e01b03166001600160e01b03199094169390931790925290516118e79190613520565b5f604051808303815f8787f1925050503d805f8114611921576040519150601f19603f3d011682016040523d82523d5f602084013e611926565b606091505b505090505f5a6119369084613536565b90506119423a826134e9565b93505050505b808285600801546119599190613018565b6119639190613018565b600a850181905560098501545f9110156119e65784600a0154856009015461198b9190613536565b60018601546040519192505f916001600160a01b039091169083908381818185875af1925050503d805f81146119dc576040519150601f19603f3d011682016040523d82523d5f602084013e6119e1565b606091505b505050505b600a850154604080519182526020820183905287917f1557420f69b14a9661c70e7f95f8d9eaa3a277adaef216dbc7640685e3083c6291015b60405180910390a2505050505050565b805460078201805460ff1916600117905560405181907f80f32f66463ff726c97765d8dcd5ab6e0587bdbeea298adc3da6cd0a584ee10f905f90a260048201546060905f9015611ac4576060611a9e856004018660070160019054906101000a900460ff168760050154612116565b90935090505f611aad8261218a565b6003870154909150611abf90826134e9565b925050505b60028401545f906001600160a01b031615611bb0575f5a60028701546008546040519293505f926001600160a01b03831692600160a01b900460e01b90611b11908a908a90602401613500565b60408051601f198184030181529181526020820180516001600160e01b03166001600160e01b0319909416939093179092529051611b4f9190613520565b5f604051808303815f8787f1925050503d805f8114611b89576040519150601f19603f3d011682016040523d82523d5f602084013e611b8e565b606091505b505090505f5a611b9e9084613536565b9050611baa3a826134e9565b93505050505b80828660080154611bc19190613018565b611bcb9190613018565b600a860181905560098601545f911015611c4e5785600a01548660090154611bf39190613536565b60018701546040519192505f916001600160a01b039091169083908381818185875af1925050503d805f8114611c44576040519150601f19603f3d011682016040523d82523d5f602084013e611c49565b606091505b505050505b600a860154604080519182526020820183905286917f1557420f69b14a9661c70e7f95f8d9eaa3a277adaef216dbc7640685e3083c629101611a1f565b600a80545f918291611c9d9086612fdd565b81548110611cad57611cad612ff0565b905f5260205f2090600b0201905083815f015414611cce575f915050610b7c565b600381015f5b8154811015611d2657846001600160a01b0316828281548110611cf957611cf9612ff0565b5f918252602090912001546001600160a01b031603611d1e5760019350505050610b7c565b600101611cd4565b505f95945050505050565b5f805b8354811015611d8957826001600160a01b0316848281548110611d5957611d59612ff0565b5f9182526020909120600590910201546001600160a01b031603611d81576001915050610b7c565b600101611d34565b505f9392505050565b5f805b8354811015611d89575f805b8554811015611e0f57611df4868481548110611dbf57611dbf612ff0565b905f5260205f209060050201600101878381548110611de057611de0612ff0565b905f5260205f209060050201600101612347565b15611e075781611e03816130f0565b9250505b600101611da1565b50838110611e2257600192505050610b7c565b50600101611d95565b600a80545f9190611e3c9084612fdd565b81548110611e4c57611e4c612ff0565b5f9182526020909120600b90910201600781015490915060ff1615611eb35760405162461bcd60e51b815260206004820152601f60248201527f536f6d6e69614167656e74733a20616c72656164792066696e616c697a6564006044820152606401610649565b60078101805460ff191660011790556060805f6007840154610100900460ff166001811115611ee457611ee4612c9a565b03611f0457611efa83600401846005015461243f565b9092509050611f21565b611f1083600401612796565b9150611f1e836004016128eb565b90505b5f611f2b8261218a565b60038501549091505f90611f3f90836134e9565b60028601549091505f906001600160a01b03161561202e575f5a60028801546008546040519293505f926001600160a01b03831692600160a01b900460e01b90611f8f908d908c90602401613500565b60408051601f198184030181529181526020820180516001600160e01b03166001600160e01b0319909416939093179092529051611fcd9190613520565b5f604051808303815f8787f1925050503d805f8114612007576040519150601f19603f3d011682016040523d82523d5f602084013e61200c565b606091505b505090505f5a61201c9084613536565b90506120283a826134e9565b93505050505b8082876008015461203f9190613018565b6120499190613018565b600a870181905560098701545f9110156120cc5786600a015487600901546120719190613536565b60018801546040519192505f916001600160a01b039091169083908381818185875af1925050503d805f81146120c2576040519150601f19603f3d011682016040523d82523d5f602084013e6120c7565b606091505b505050505b600a870154604080519182526020820183905289917f1557420f69b14a9661c70e7f95f8d9eaa3a277adaef216dbc7640685e3083c62910160405180910390a25050505050505050565b825460609081905f0361214557505060408051602080820183525f808352835190815290810190925290612182565b5f84600181111561215857612158612c9a565b0361217057612167858461243f565b91509150612182565b61217985612796565b612167866128eb565b935093915050565b5f81515f0361219a57505f919050565b81516001036121c457815f815181106121b5576121b5612ff0565b60200260200101519050919050565b60015b82518110156122a3575f8382815181106121e3576121e3612ff0565b602002602001015190505f8290505b5f8111801561222357508185612209600184613536565b8151811061221957612219612ff0565b6020026020010151115b1561227b5784612234600183613536565b8151811061224457612244612ff0565b602002602001015185828151811061225e5761225e612ff0565b60209081029190910101528061227381613549565b9150506121f2565b8185828151811061228e5761228e612ff0565b602090810291909101015250506001016121c7565b505f600283516122b3919061355e565b9050600283516122c39190612fdd565b5f0361231f5760028382815181106122dd576122dd612ff0565b6020026020010151846001846122f39190613536565b8151811061230357612303612ff0565b60200260200101516123159190613018565b610619919061355e565b82818151811061233157612331612ff0565b6020026020010151915050919050565b50919050565b5f818054612354906130be565b9050838054612362906130be565b90501461237057505f610b7c565b5f5b83805461237e906130be565b90508110156124355782818154612394906130be565b81106123a2576123a2612ff0565b8154600116156123bf57905f5260205f2090602091828204019190065b9054901a600160f81b026001600160f81b031916848281546123e0906130be565b81106123ee576123ee612ff0565b81546001161561240b57905f5260205f2090602091828204019190065b9054901a600160f81b026001600160f81b0319161461242d575f915050610b7c565b600101612372565b5060019392505050565b6060805f5b8454811015612654575f805b86548110156124aa5761248f87848154811061246e5761246e612ff0565b905f5260205f209060050201600101888381548110611de057611de0612ff0565b156124a2578161249e816130f0565b9250505b600101612450565b5084811061264b57806001600160401b038111156124ca576124ca61314a565b6040519080825280602002602001820160405280156124f3578160200160208202803683370190505b5092505f805b87548110156125925761253888858154811061251757612517612ff0565b905f5260205f209060050201600101898381548110611de057611de0612ff0565b1561258a5787818154811061254f5761254f612ff0565b905f5260205f2090600502016003015485838061256b906130f0565b94508151811061257d5761257d612ff0565b6020026020010181815250505b6001016124f9565b508683815481106125a5576125a5612ff0565b905f5260205f209060050201600101848180546125c1906130be565b80601f01602080910402602001604051908101604052809291908181526020018280546125ed906130be565b80156126385780601f1061260f57610100808354040283529160200191612638565b820191905f5260205f20905b81548152906001019060200180831161261b57829003601f168201915b505050505091509450945050505061278f565b50600101612444565b50835415612771576040805160018082528183019092529060208083019080368337019050509050835f8154811061268e5761268e612ff0565b905f5260205f20906005020160030154815f815181106126b0576126b0612ff0565b602002602001018181525050835f815481106126ce576126ce612ff0565b905f5260205f209060050201600101818180546126ea906130be565b80601f0160208091040260200160405190810160405280929190818152602001828054612716906130be565b80156127615780601f1061273857610100808354040283529160200191612761565b820191905f5260205f20905b81548152906001019060200180831161274457829003601f168201915b505050505091509150915061278f565b505060408051602080820183525f8083528351908152908101909252905b9250929050565b80546060905f906001600160401b038111156127b4576127b461314a565b6040519080825280602002602001820160405280156127e757816020015b60608152602001906001900390816127d25790505b5090505f5b83548110156128c25783818154811061280757612807612ff0565b905f5260205f2090600502016001018054612821906130be565b80601f016020809104026020016040519081016040528092919081815260200182805461284d906130be565b80156128985780601f1061286f57610100808354040283529160200191612898565b820191905f5260205f20905b81548152906001019060200180831161287b57829003601f168201915b50505050508282815181106128af576128af612ff0565b60209081029190910101526001016127ec565b50806040516020016128d49190613571565b604051602081830303815290604052915050919050565b80546060905f906001600160401b038111156129095761290961314a565b604051908082528060200260200182016040528015612932578160200160208202803683370190505b5090505f5b83548110156129875783818154811061295257612952612ff0565b905f5260205f2090600502016003015482828151811061297457612974612ff0565b6020908102919091010152600101612937565b5092915050565b50805461299a906130be565b5f825580601f106129a9575050565b601f0160209004905f5260205f20908101906129c59190612a2b565b50565b828054828255905f5260205f20908101928215612a1b579160200282015b82811115612a1b57825182546001600160a01b0319166001600160a01b039091161782556020909201916001909101906129e6565b50612a27929150612a2b565b5090565b5b80821115612a27575f8155600101612a2c565b5f60208284031215612a4f575f5ffd5b5035919050565b6001600160a01b03811681146129c5575f5ffd5b5f60208284031215612a7a575f5ffd5b813561061981612a56565b5f5f83601f840112612a95575f5ffd5b5081356001600160401b03811115612aab575f5ffd5b60208301915083602082850101111561278f575f5ffd5b5f5f5f5f5f60808688031215612ad6575f5ffd5b8535945060208601356001600160401b03811115612af2575f5ffd5b612afe88828901612a85565b9699909850959660408101359660609091013595509350505050565b80356001600160e01b031981168114612b31575f5ffd5b919050565b5f5f5f5f5f5f5f5f60e0898b031215612b4d575f5ffd5b883597506020890135612b5f81612a56565b9650612b6d60408a01612b1a565b955060608901356001600160401b03811115612b87575f5ffd5b612b938b828c01612a85565b9096509450506080890135925060a0890135915060c089013560028110612bb8575f5ffd5b809150509295985092959890939650565b5f81518084528060208401602086015e5f602082860101526020601f19601f83011685010191505092915050565b5f602082016020835280845180835260408501915060408160051b8601019250602086015f5b82811015612c8e57868503603f19018452815180516001600160a01b0316865260208082015160a091880182905290612c5890880182612bc9565b60408381015190890152606080840151908901526080928301519290970191909152506020938401939190910190600101612c1d565b50929695505050505050565b634e487b7160e01b5f52602160045260245ffd5b60028110612cca57634e487b7160e01b5f52602160045260245ffd5b9052565b8b81526001600160a01b038b811660208301528a1660408201526001600160e01b0319891660608201526080810188905260a0810187905285151560c08201526101608101612d2060e0830187612cae565b8461010083015283610120830152826101408301529c9b505050505050505050505050565b5f5f5f5f5f60808688031215612d59575f5ffd5b853594506020860135612d6b81612a56565b9350612d7960408701612b1a565b925060608601356001600160401b03811115612d93575f5ffd5b612d9f88828901612a85565b969995985093965092949392505050565b5f5f60408385031215612dc1575f5ffd5b823591506020830135612dd381612a56565b809150509250929050565b5f5f83601f840112612dee575f5ffd5b5081356001600160401b03811115612e04575f5ffd5b6020830191508360208260051b850101111561278f575f5ffd5b5f5f5f5f5f5f5f5f6080898b031215612e35575f5ffd5b88356001600160401b03811115612e4a575f5ffd5b612e568b828c01612dde565b90995097505060208901356001600160401b03811115612e74575f5ffd5b612e808b828c01612dde565b90975095505060408901356001600160401b03811115612e9e575f5ffd5b612eaa8b828c01612dde565b90955093505060608901356001600160401b03811115612ec8575f5ffd5b612ed48b828c01612dde565b999c989b5096995094979396929594505050565b5f8151808452602084019350602083015f5b82811015612f215781516001600160a01b0316865260209586019590910190600101612efa565b5093949350505050565b6001600160a01b038d811682528c1660208201526001600160e01b03198b166040820152610180606082018190525f90612f679083018c612ee8565b90508960808301528860a083015287151560c08301528660e0830152612f91610100830187612cae565b8461012083015283610140830152826101608301529d9c50505050505050505050505050565b602081525f6106196020830184612ee8565b634e487b7160e01b5f52601260045260245ffd5b5f82612feb57612feb612fc9565b500690565b634e487b7160e01b5f52603260045260245ffd5b634e487b7160e01b5f52601160045260245ffd5b80820180821115610b7c57610b7c613004565b60208082526025908201527f536f6d6e69614167656e74733a2063616c6c6572206973206e6f74207468652060408201526437bbb732b960d91b606082015260800190565b6020808252602e908201527f536f6d6e69614167656e74733a2072657175657374206e6f7420666f756e642060408201526d37b91037bb32b93bb934ba3a32b760911b606082015260800190565b600181811c908216806130d257607f821691505b60208210810361234157634e487b7160e01b5f52602260045260245ffd5b5f6001820161310157613101613004565b5060010190565b5f5f8335601e1984360301811261311d575f5ffd5b8301803591506001600160401b03821115613136575f5ffd5b60200191503681900382131561278f575f5ffd5b634e487b7160e01b5f52604160045260245ffd5b601f8211156131a257805f5260205f20601f840160051c810160208510156131835750805b601f840160051c820191505b818110156106cd575f815560010161318f565b505050565b81516001600160401b038111156131c0576131c061314a565b6131d4816131ce84546130be565b8461315e565b6020601f821160018114613206575f83156131ef5750848201515b5f19600385901b1c1916600184901b1784556106cd565b5f84815260208120601f198516915b828110156132355787850151825560209485019460019092019101613215565b508482101561325257868401515f19600387901b60f8161c191681555b50505050600190811b01905550565b60405160a081016001600160401b03811182821017156132835761328361314a565b60405290565b604051601f8201601f191681016001600160401b03811182821017156132b1576132b161314a565b604052919050565b5f82601f8301126132c8575f5ffd5b81516001600160401b038111156132e1576132e161314a565b6132f4601f8201601f1916602001613289565b818152846020838601011115613308575f5ffd5b8160208501602083015e5f918101602001919091529392505050565b5f60208284031215613334575f5ffd5b81516001600160401b03811115613349575f5ffd5b820160a0818503121561335a575f5ffd5b613362613261565b81518152602082015161337481612a56565b602082015260408201516001600160401b03811115613391575f5ffd5b61339d868285016132b9565b60408301525060608201516001600160401b038111156133bb575f5ffd5b6133c7868285016132b9565b606083015250608091820151918101919091529392505050565b5f602082840312156133f1575f5ffd5b81516001600160401b03811115613406575f5ffd5b8201601f81018413613416575f5ffd5b80516001600160401b0381111561342f5761342f61314a565b8060051b61343f60208201613289565b9182526020818401810192908101908784111561345a575f5ffd5b6020850194505b83851015613488578451925061347683612a56565b82825260209485019490910190613461565b979650505050505050565b634e487b7160e01b5f52603160045260245ffd5b84815260606020820152826060820152828460808301375f608084830101525f601f19601f850116820160808382030160408401526134886080820185612ee8565b8082028115828204841417610b7c57610b7c613004565b828152604060208201525f6135186040830184612bc9565b949350505050565b5f82518060208501845e5f920191825250919050565b81810381811115610b7c57610b7c613004565b5f8161355757613557613004565b505f190190565b5f8261356c5761356c612fc9565b500490565b5f602082016020835280845180835260408501915060408160051b8601019250602086015f5b82811015612c8e57603f198786030184526135b3858351612bc9565b9450602093840193919091019060010161359756fea26469706673582212208826b0f652ff0c34a6439ac44179e5712e85b488e40c85c8644a9b0f39fd473564736f6c634300081c0033",
  "linkReferences": {},
  "deployedLinkReferences": {},
  "immutableReferences": {},
  "inputSourceName": "project/contracts/SomniaAgents.sol",
  "buildInfoId": "solc-0_8_28-312e75b0c92f6a886aff521c5369a041430911e4"
}