{
  "_format": "hh3-artifact-1",
  "contractName": "SomniaAgents",
  "sourceName": "contracts/SomniaAgents.sol",
  "abi": [
    {
      "inputs": [
        {
          "internalType": "uint256",
          "name": "bufferSize",
          "type": "uint256"
        },
        {
          "internalType": "address",
          "name": "_agentRegistry",
          "type": "address"
        },
        {
          "internalType": "address",
          "name": "_committee",
          "type": "address"
        },
        {
          "internalType": "uint256",
          "name": "startingRequestId",
          "type": "uint256"
        }
      ],
      "stateMutability": "nonpayable",
      "type": "constructor"
    },
    {
      "anonymous": false,
      "inputs": [
        {
          "indexed": true,
          "internalType": "uint256",
          "name": "requestId",
          "type": "uint256"
        },
        {
          "indexed": true,
          "internalType": "uint256",
          "name": "agentId",
          "type": "uint256"
        },
        {
          "indexed": false,
          "internalType": "uint256",
          "name": "maxCostPerAgent",
          "type": "uint256"
        },
        {
          "indexed": false,
          "internalType": "bytes",
          "name": "payload",
          "type": "bytes"
        },
        {
          "indexed": false,
          "internalType": "address[]",
          "name": "subcommittee",
          "type": "address[]"
        }
      ],
      "name": "RequestCreated",
      "type": "event"
    },
    {
      "anonymous": false,
      "inputs": [
        {
          "indexed": true,
          "internalType": "uint256",
          "name": "requestId",
          "type": "uint256"
        },
        {
          "indexed": false,
          "internalType": "enum ResponseStatus",
          "name": "status",
          "type": "uint8"
        }
      ],
      "name": "RequestFinalized",
      "type": "event"
    },
    {
      "inputs": [],
      "name": "agentRegistry",
      "outputs": [
        {
          "internalType": "contract IAgentRegistry",
          "name": "",
          "type": "address"
        }
      ],
      "stateMutability": "view",
      "type": "function"
    },
    {
      "inputs": [],
      "name": "callbackGasLimit",
      "outputs": [
        {
          "internalType": "uint256",
          "name": "",
          "type": "uint256"
        }
      ],
      "stateMutability": "view",
      "type": "function"
    },
    {
      "inputs": [],
      "name": "committee",
      "outputs": [
        {
          "internalType": "contract ICommittee",
          "name": "",
          "type": "address"
        }
      ],
      "stateMutability": "view",
      "type": "function"
    },
    {
      "inputs": [
        {
          "internalType": "uint256",
          "name": "agentId",
          "type": "uint256"
        },
        {
          "internalType": "address",
          "name": "callbackAddress",
          "type": "address"
        },
        {
          "internalType": "bytes4",
          "name": "callbackSelector",
          "type": "bytes4"
        },
        {
          "internalType": "bytes",
          "name": "payload",
          "type": "bytes"
        },
        {
          "internalType": "uint256",
          "name": "subcommitteeSize",
          "type": "uint256"
        },
        {
          "internalType": "uint256",
          "name": "threshold",
          "type": "uint256"
        },
        {
          "internalType": "enum ConsensusType",
          "name": "consensusType",
          "type": "uint8"
        }
      ],
      "name": "createAdvancedRequest",
      "outputs": [
        {
          "internalType": "uint256",
          "name": "requestId",
          "type": "uint256"
        }
      ],
      "stateMutability": "payable",
      "type": "function"
    },
    {
      "inputs": [
        {
          "internalType": "uint256",
          "name": "agentId",
          "type": "uint256"
        },
        {
          "internalType": "address",
          "name": "callbackAddress",
          "type": "address"
        },
        {
          "internalType": "bytes4",
          "name": "callbackSelector",
          "type": "bytes4"
        },
        {
          "internalType": "bytes",
          "name": "payload",
          "type": "bytes"
        }
      ],
      "name": "createRequest",
      "outputs": [
        {
          "internalType": "uint256",
          "name": "requestId",
          "type": "uint256"
        }
      ],
      "stateMutability": "payable",
      "type": "function"
    },
    {
      "inputs": [],
      "name": "creatorBps",
      "outputs": [
        {
          "internalType": "uint16",
          "name": "",
          "type": "uint16"
        }
      ],
      "stateMutability": "view",
      "type": "function"
    },
    {
      "inputs": [],
      "name": "defaultSubcommitteeSize",
      "outputs": [
        {
          "internalType": "uint256",
          "name": "",
          "type": "uint256"
        }
      ],
      "stateMutability": "view",
      "type": "function"
    },
    {
      "inputs": [],
      "name": "defaultThreshold",
      "outputs": [
        {
          "internalType": "uint256",
          "name": "",
          "type": "uint256"
        }
      ],
      "stateMutability": "view",
      "type": "function"
    },
    {
      "inputs": [
        {
          "internalType": "uint256",
          "name": "subcommitteeSize",
          "type": "uint256"
        }
      ],
      "name": "getAdvancedRequestDeposit",
      "outputs": [
        {
          "internalType": "uint256",
          "name": "",
          "type": "uint256"
        }
      ],
      "stateMutability": "view",
      "type": "function"
    },
    {
      "inputs": [
        {
          "internalType": "uint256",
          "name": "requestId",
          "type": "uint256"
        }
      ],
      "name": "getRequest",
      "outputs": [
        {
          "internalType": "address",
          "name": "requester",
          "type": "address"
        },
        {
          "internalType": "address",
          "name": "callbackAddress",
          "type": "address"
        },
        {
          "internalType": "bytes4",
          "name": "callbackSelector",
          "type": "bytes4"
        },
        {
          "internalType": "address[]",
          "name": "subcommittee",
          "type": "address[]"
        },
        {
          "internalType": "uint256",
          "name": "threshold",
          "type": "uint256"
        },
        {
          "internalType": "uint256",
          "name": "createdAt",
          "type": "uint256"
        },
        {
          "internalType": "enum ResponseStatus",
          "name": "status",
          "type": "uint8"
        },
        {
          "internalType": "uint256",
          "name": "responseCount",
          "type": "uint256"
        },
        {
          "internalType": "enum ConsensusType",
          "name": "consensusType",
          "type": "uint8"
        },
        {
          "internalType": "uint256",
          "name": "maxCost",
          "type": "uint256"
        },
        {
          "internalType": "uint256",
          "name": "finalCost",
          "type": "uint256"
        },
        {
          "internalType": "address",
          "name": "agentCreator",
          "type": "address"
        }
      ],
      "stateMutability": "view",
      "type": "function"
    },
    {
      "inputs": [],
      "name": "getRequestDeposit",
      "outputs": [
        {
          "internalType": "uint256",
          "name": "",
          "type": "uint256"
        }
      ],
      "stateMutability": "view",
      "type": "function"
    },
    {
      "inputs": [
        {
          "internalType": "uint256",
          "name": "requestId",
          "type": "uint256"
        }
      ],
      "name": "getResponses",
      "outputs": [
        {
          "components": [
            {
              "internalType": "address",
              "name": "validator",
              "type": "address"
            },
            {
              "internalType": "bytes",
              "name": "result",
              "type": "bytes"
            },
            {
              "internalType": "enum ResponseStatus",
              "name": "status",
              "type": "uint8"
            },
            {
              "internalType": "uint256",
              "name": "receipt",
              "type": "uint256"
            },
            {
              "internalType": "uint256",
              "name": "cost",
              "type": "uint256"
            },
            {
              "internalType": "uint256",
              "name": "timestamp",
              "type": "uint256"
            }
          ],
          "internalType": "struct Response[]",
          "name": "",
          "type": "tuple[]"
        }
      ],
      "stateMutability": "view",
      "type": "function"
    },
    {
      "inputs": [
        {
          "internalType": "uint256",
          "name": "requestId",
          "type": "uint256"
        }
      ],
      "name": "hasRequest",
      "outputs": [
        {
          "internalType": "bool",
          "name": "",
          "type": "bool"
        }
      ],
      "stateMutability": "view",
      "type": "function"
    },
    {
      "inputs": [],
      "name": "maxPerAgentFee",
      "outputs": [
        {
          "internalType": "uint256",
          "name": "",
          "type": "uint256"
        }
      ],
      "stateMutability": "view",
      "type": "function"
    },
    {
      "inputs": [],
      "name": "nextRequestId",
      "outputs": [
        {
          "internalType": "uint256",
          "name": "",
          "type": "uint256"
        }
      ],
      "stateMutability": "view",
      "type": "function"
    },
    {
      "inputs": [],
      "name": "oldestPendingId",
      "outputs": [
        {
          "internalType": "uint256",
          "name": "",
          "type": "uint256"
        }
      ],
      "stateMutability": "view",
      "type": "function"
    },
    {
      "inputs": [],
      "name": "owner",
      "outputs": [
        {
          "internalType": "address",
          "name": "",
          "type": "address"
        }
      ],
      "stateMutability": "view",
      "type": "function"
    },
    {
      "inputs": [],
      "name": "protocolBps",
      "outputs": [
        {
          "internalType": "uint16",
          "name": "",
          "type": "uint16"
        }
      ],
      "stateMutability": "view",
      "type": "function"
    },
    {
      "inputs": [],
      "name": "requestTimeout",
      "outputs": [
        {
          "internalType": "uint256",
          "name": "",
          "type": "uint256"
        }
      ],
      "stateMutability": "view",
      "type": "function"
    },
    {
      "inputs": [
        {
          "internalType": "uint256",
          "name": "",
          "type": "uint256"
        }
      ],
      "name": "requests",
      "outputs": [
        {
          "internalType": "uint256",
          "name": "id",
          "type": "uint256"
        },
        {
          "internalType": "address",
          "name": "requester",
          "type": "address"
        },
        {
          "internalType": "address",
          "name": "callbackAddress",
          "type": "address"
        },
        {
          "internalType": "bytes4",
          "name": "callbackSelector",
          "type": "bytes4"
        },
        {
          "internalType": "uint256",
          "name": "responseCount",
          "type": "uint256"
        },
        {
          "internalType": "uint256",
          "name": "failureCount",
          "type": "uint256"
        },
        {
          "internalType": "uint256",
          "name": "threshold",
          "type": "uint256"
        },
        {
          "internalType": "uint256",
          "name": "createdAt",
          "type": "uint256"
        },
        {
          "internalType": "enum ResponseStatus",
          "name": "status",
          "type": "uint8"
        },
        {
          "internalType": "enum ConsensusType",
          "name": "consensusType",
          "type": "uint8"
        },
        {
          "internalType": "uint256",
          "name": "maxCost",
          "type": "uint256"
        },
        {
          "internalType": "uint256",
          "name": "finalCost",
          "type": "uint256"
        },
        {
          "internalType": "address",
          "name": "agentCreator",
          "type": "address"
        }
      ],
      "stateMutability": "view",
      "type": "function"
    },
    {
      "inputs": [],
      "name": "runnerBps",
      "outputs": [
        {
          "internalType": "uint16",
          "name": "",
          "type": "uint16"
        }
      ],
      "stateMutability": "view",
      "type": "function"
    },
    {
      "inputs": [
        {
          "internalType": "address",
          "name": "_agentRegistry",
          "type": "address"
        }
      ],
      "name": "setAgentRegistry",
      "outputs": [],
      "stateMutability": "nonpayable",
      "type": "function"
    },
    {
      "inputs": [
        {
          "internalType": "uint256",
          "name": "gasLimit",
          "type": "uint256"
        }
      ],
      "name": "setCallbackGasLimit",
      "outputs": [],
      "stateMutability": "nonpayable",
      "type": "function"
    },
    {
      "inputs": [
        {
          "internalType": "address",
          "name": "_committee",
          "type": "address"
        }
      ],
      "name": "setCommittee",
      "outputs": [],
      "stateMutability": "nonpayable",
      "type": "function"
    },
    {
      "inputs": [
        {
          "internalType": "uint256",
          "name": "size",
          "type": "uint256"
        }
      ],
      "name": "setDefaultSubcommitteeSize",
      "outputs": [],
      "stateMutability": "nonpayable",
      "type": "function"
    },
    {
      "inputs": [
        {
          "internalType": "uint256",
          "name": "threshold",
          "type": "uint256"
        }
      ],
      "name": "setDefaultThreshold",
      "outputs": [],
      "stateMutability": "nonpayable",
      "type": "function"
    },
    {
      "inputs": [
        {
          "internalType": "uint16",
          "name": "_runnerBps",
          "type": "uint16"
        },
        {
          "internalType": "uint16",
          "name": "_creatorBps",
          "type": "uint16"
        },
        {
          "internalType": "uint16",
          "name": "_protocolBps",
          "type": "uint16"
        }
      ],
      "name": "setFeeShares",
      "outputs": [],
      "stateMutability": "nonpayable",
      "type": "function"
    },
    {
      "inputs": [
        {
          "internalType": "uint256",
          "name": "fee",
          "type": "uint256"
        }
      ],
      "name": "setMaxPerAgentFee",
      "outputs": [],
      "stateMutability": "nonpayable",
      "type": "function"
    },
    {
      "inputs": [
        {
          "internalType": "uint256",
          "name": "timeout",
          "type": "uint256"
        }
      ],
      "name": "setRequestTimeout",
      "outputs": [],
      "stateMutability": "nonpayable",
      "type": "function"
    },
    {
      "inputs": [
        {
          "internalType": "address",
          "name": "_treasury",
          "type": "address"
        }
      ],
      "name": "setTreasury",
      "outputs": [],
      "stateMutability": "nonpayable",
      "type": "function"
    },
    {
      "inputs": [
        {
          "internalType": "uint256",
          "name": "requestId",
          "type": "uint256"
        },
        {
          "internalType": "bytes",
          "name": "result",
          "type": "bytes"
        },
        {
          "internalType": "uint256",
          "name": "receipt",
          "type": "uint256"
        },
        {
          "internalType": "uint256",
          "name": "cost",
          "type": "uint256"
        },
        {
          "internalType": "bool",
          "name": "success",
          "type": "bool"
        }
      ],
      "name": "submitResponse",
      "outputs": [],
      "stateMutability": "nonpayable",
      "type": "function"
    },
    {
      "inputs": [
        {
          "internalType": "uint256",
          "name": "requestId",
          "type": "uint256"
        }
      ],
      "name": "timeoutRequest",
      "outputs": [],
      "stateMutability": "nonpayable",
      "type": "function"
    },
    {
      "inputs": [
        {
          "internalType": "address",
          "name": "newOwner",
          "type": "address"
        }
      ],
      "name": "transferOwnership",
      "outputs": [],
      "stateMutability": "nonpayable",
      "type": "function"
    },
    {
      "inputs": [],
      "name": "treasury",
      "outputs": [
        {
          "internalType": "address",
          "name": "",
          "type": "address"
        }
      ],
      "stateMutability": "view",
      "type": "function"
    },
    {
      "inputs": [],
      "name": "upkeepRequests",
      "outputs": [],
      "stateMutability": "nonpayable",
      "type": "function"
    }
  ],
  "bytecode": "0x6080604052600580556003600655603c6007556207a120600855662386f26fc10000600955600a805465ffffffffffff60a01b1916647d00fa036b60a31b17905534801561004b575f5ffd5b506040516136b23803806136b283398101604081905261006a9161012f565b5f8054336001600160a01b03199182161782556001805482166001600160a01b038781169190911790915560028054909216908516179055600382905560048290555b8481101561010a57600b805460010181555f9081525b600381101561010157600b82815481106100df576100df610170565b5f918252602082206004600d90920201018054600190810182559152016100c3565b506001016100ad565b5050505050610184565b80516001600160a01b038116811461012a575f5ffd5b919050565b5f5f5f5f60808587031215610142575f5ffd5b8451935061015260208601610114565b925061016060408601610114565b6060959095015193969295505050565b634e487b7160e01b5f52603260045260245ffd5b613521806101915f395ff3fe6080604052600436106101fc575f3560e01c80637df29c7111610113578063bddae40e1161009d578063dc61ec921161006d578063dc61ec92146105c9578063de90e29b146105e8578063f09a952314610609578063f0f442601461061e578063f2fde38b1461063d575f5ffd5b8063bddae40e14610535578063c5246bf514610554578063c58343ef14610573578063d864e740146105aa575f5ffd5b80638bbcbbe2116100e35780638bbcbbe21461049f5780638da5cb5b146104b257806394967005146104d0578063b2a6fd91146104f1578063b904c3ba14610506575f5ffd5b80637df29c711461041557806381d12c581461043457806387c701c31461046c5780638a54942f14610480575f5ffd5b80634e4ee61a1161019457806361d027b31161016457806361d027b314610383578063622b6af4146103a2578063663c7b89146103c15780636a84a985146103d457806371ee2ce1146103e9575f5ffd5b80634e4ee61a146102fc57806350ead9351461031b57806353c99fcc1461033a57806353f10a4b1461036e575f5ffd5b806328342ecf116101cf57806328342ecf146102885780633f20b4c9146102a957806340939cb8146102be5780634b0a5201146102dd575f5ffd5b80630d1cfcae146102005780631abd5caa1461023c5780631ffd62fa1461025f57806324f7469714610273575b5f5ffd5b34801561020b575f5ffd5b5060015461021f906001600160a01b031681565b6040516001600160a01b0390911681526020015b60405180910390f35b348015610247575f5ffd5b5061025160055481565b604051908152602001610233565b34801561026a575f5ffd5b5061025161065c565b34801561027e575f5ffd5b5061025160085481565b348015610293575f5ffd5b506102a76102a23660046128ba565b610672565b005b3480156102b4575f5ffd5b5061025160075481565b3480156102c9575f5ffd5b506102a76102d83660046128d5565b6106c6565b3480156102e8575f5ffd5b506102a76102f73660046128d5565b610743565b348015610307575f5ffd5b506102516103163660046128d5565b610771565b348015610326575f5ffd5b506102a7610335366004612902565b610786565b348015610345575f5ffd5b50600a5461035b90600160a01b900461ffff1681565b60405161ffff9091168152602001610233565b348015610379575f5ffd5b5061025160065481565b34801561038e575f5ffd5b50600a5461021f906001600160a01b031681565b3480156103ad575f5ffd5b506102a76103bc3660046128d5565b610874565b6102516103cf36600461299d565b6108a2565b3480156103df575f5ffd5b5061025160035481565b3480156103f4575f5ffd5b506104086104033660046128d5565b6108c0565b6040516102339190612a86565b348015610420575f5ffd5b506102a761042f3660046128d5565b610af9565b34801561043f575f5ffd5b5061045361044e3660046128d5565b610b62565b6040516102339d9c9b9a99989796959493929190612b4a565b348015610477575f5ffd5b506102a7610bee565b34801561048b575f5ffd5b506102a761049a3660046128d5565b610ca9565b6102516104ad366004612be1565b610cd7565b3480156104bd575f5ffd5b505f5461021f906001600160a01b031681565b3480156104db575f5ffd5b50600a5461035b90600160c01b900461ffff1681565b3480156104fc575f5ffd5b5061025160095481565b348015610511575f5ffd5b506105256105203660046128d5565b610cf6565b6040519015158152602001610233565b348015610540575f5ffd5b506102a761054f3660046128ba565b610d2f565b34801561055f575f5ffd5b506102a761056e3660046128d5565b610d7a565b34801561057e575f5ffd5b5061059261058d3660046128d5565b610e03565b6040516102339c9b9a99989796959493929190612c8f565b3480156105b5575f5ffd5b5060025461021f906001600160a01b031681565b3480156105d4575f5ffd5b506102a76105e3366004612d29565b610f49565b3480156105f3575f5ffd5b50600a5461035b90600160b01b900461ffff1681565b348015610614575f5ffd5b5061025160045481565b348015610629575f5ffd5b506102a76106383660046128ba565b6113f7565b348015610648575f5ffd5b506102a76106573660046128ba565b611442565b5f60055460095461066d9190612dae565b905090565b5f546001600160a01b031633146106a45760405162461bcd60e51b815260040161069b90612dc5565b60405180910390fd5b600180546001600160a01b0319166001600160a01b0392909216919091179055565b5f546001600160a01b031633146106ef5760405162461bcd60e51b815260040161069b90612dc5565b5f811161073e5760405162461bcd60e51b815260206004820152601e60248201527f536f6d6e69614167656e74733a2073697a65206d757374206265203e20300000604482015260640161069b565b600555565b5f546001600160a01b0316331461076c5760405162461bcd60e51b815260040161069b90612dc5565b600955565b5f816009546107809190612dae565b92915050565b5f546001600160a01b031633146107af5760405162461bcd60e51b815260040161069b90612dc5565b806107ba8385612e0a565b6107c49190612e0a565b61ffff16612710146108275760405162461bcd60e51b815260206004820152602660248201527f536f6d6e69614167656e74733a20736861726573206d7573742073756d20746f60448201526502031303030360d41b606482015260840161069b565b600a805463ffffffff60a01b1916600160a01b61ffff9586160261ffff60b01b191617600160b01b938516939093029290921761ffff60c01b1916600160c01b9190931602919091179055565b5f546001600160a01b0316331461089d5760405162461bcd60e51b815260040161069b90612dc5565b600755565b5f6108b389898989898989896114f2565b9998505050505050505050565b600b80546060915f916108d39085612e38565b815481106108e3576108e3612e4b565b905f5260205f2090600d0201905082815f0154146109135760405162461bcd60e51b815260040161069b90612e5f565b5f81600501546001600160401b0381111561093057610930612ead565b60405190808252806020026020018201604052801561099657816020015b6109836040805160c0810182525f80825260606020830152909182019081526020015f81526020015f81526020015f81525090565b81526020019060019003908161094e5790505b5090505f5b8260050154811015610af1578260040181815481106109bc576109bc612e4b565b5f9182526020918290206040805160c0810190915260069092020180546001600160a01b0316825260018101805492939192918401916109fb90612ec1565b80601f0160208091040260200160405190810160405280929190818152602001828054610a2790612ec1565b8015610a725780601f10610a4957610100808354040283529160200191610a72565b820191905f5260205f20905b815481529060010190602001808311610a5557829003601f168201915b5050509183525050600282015460209091019060ff166003811115610a9957610a99612a5e565b6003811115610aaa57610aaa612a5e565b81526020016003820154815260200160048201548152602001600582015481525050828281518110610ade57610ade612e4b565b602090810291909101015260010161099b565b509392505050565b600b54819015801590610b395750600b8054829190610b189083612e38565b81548110610b2857610b28612e4b565b905f5260205f2090600d02015f0154145b610b555760405162461bcd60e51b815260040161069b90612e5f565b610b5e8261193a565b5050565b600b8181548110610b71575f80fd5b5f9182526020909120600d9091020180546001820154600283015460058401546006850154600786015460088701546009880154600a890154600b8a0154600c909a0154989a506001600160a01b039788169987891699600160a01b90980460e01b98969795969495939460ff808516956101009095041693168d565b600454600354600b545b81831015610ca2575f600b610c0d8386612e38565b81548110610c1d57610c1d612e4b565b905f5260205f2090600d0201905083815f015414610c485783610c3f81612ef3565b94505050610bf8565b5f600982015460ff166003811115610c6257610c62612a5e565b14610c715783610c3f81612ef3565b6007548160080154610c839190612f0b565b4211610c8f5750610ca2565b610c9881611aae565b83610c3f81612ef3565b5050600455565b5f546001600160a01b03163314610cd25760405162461bcd60e51b815260040161069b90612dc5565b600855565b5f610cec86868686866005546006545f6114f2565b9695505050505050565b600b80545f918391610d089083612e38565b81548110610d1857610d18612e4b565b905f5260205f2090600d02015f0154149050919050565b5f546001600160a01b03163314610d585760405162461bcd60e51b815260040161069b90612dc5565b600280546001600160a01b0319166001600160a01b0392909216919091179055565b5f546001600160a01b03163314610da35760405162461bcd60e51b815260040161069b90612dc5565b5f8111610dfe5760405162461bcd60e51b815260206004820152602360248201527f536f6d6e69614167656e74733a207468726573686f6c64206d7573742062652060448201526203e20360ec1b606482015260840161069b565b600655565b5f5f5f60605f5f5f5f5f5f5f5f5f600b80805490508f610e239190612e38565b81548110610e3357610e33612e4b565b905f5260205f2090600d020190508d815f015414610e635760405162461bcd60e51b815260040161069b90612e5f565b600181015460028201546007830154600884015460098501546005860154600a870154600b880154600c89015460038a018054604080516020808402820181019092528281526001600160a01b039c8d169c8c81169c600160a01b900460e01b9b949a9499949860ff80871699919861010090970416969095949116928b9190830182828015610f1a57602002820191905f5260205f20905b81546001600160a01b03168152600190910190602001808311610efc575b505050505098509c509c509c509c509c509c509c509c509c509c509c509c505091939597999b5091939597999b565b610f51610bee565b600b5415801590610f8f5750600b8054879190610f6e9083612e38565b81548110610f7e57610f7e612e4b565b905f5260205f2090600d02015f0154145b610fab5760405162461bcd60e51b815260040161069b90612e5f565b610fb58633611b0a565b6110115760405162461bcd60e51b815260206004820152602760248201527f536f6d6e69614167656e74733a206e6f74206120737562636f6d6d69747465656044820152661036b2b6b132b960c91b606482015260840161069b565b600b80545f91906110229089612e38565b8154811061103257611032612e4b565b905f5260205f2090600d0201905060075481600801546110529190612f0b565b4211156110a15760405162461bcd60e51b815260206004820152601f60248201527f536f6d6e69614167656e74733a20726571756573742074696d6564206f757400604482015260640161069b565b6110b381600401826005015433611bb0565b156111005760405162461bcd60e51b815260206004820152601f60248201527f536f6d6e69614167656e74733a20616c726561647920726573706f6e64656400604482015260640161069b565b5f600982015460ff16600381111561111a5761111a612a5e565b1461112557506113ef565b600581015460048201548110156111c9575f82600401828154811061114c5761114c612e4b565b5f918252602090912060069091020180546001600160a01b0319163317815590506001810161117c888a83612f67565b508361118957600261118c565b60015b60028201805460ff191660018360038111156111aa576111aa612a5e565b02179055506003810186905560048101859055426005909101556112f3565b816004016040518060c00160405280336001600160a01b0316815260200189898080601f0160208091040260200160405190810160405280939291908181526020018383808284375f920191909152505050908252506020018561122e576002611231565b60015b600381111561124257611242612a5e565b8152602080820189905260408201889052426060909201919091528254600180820185555f94855293829020835160069092020180546001600160a01b0319166001600160a01b039092169190911781559082015191929091908201906112a99082613020565b50604082015160028201805460ff191660018360038111156112cd576112cd612a5e565b0217905550606082015181600301556080820151816004015560a0820151816005015550505b600582018054905f61130483612ef3565b91905055508261132557600682018054905f61131f83612ef3565b91905055505b5f8260060154836005015461133a91906130da565b600584015460038501549192505f9161135391906130da565b60078501549091506113658284612f0b565b101561137f576113768a6002611c13565b505050506113ef565b84156113ea575f6009850154610100900460ff1660018111156113a4576113a4612a5e565b036113d4576113bf8460040185600501548660070154611d12565b156113cf576113cf8a6001611c13565b6113ea565b836007015482106113ea576113ea8a6001611c13565b505050505b505050505050565b5f546001600160a01b031633146114205760405162461bcd60e51b815260040161069b90612dc5565b600a80546001600160a01b0319166001600160a01b0392909216919091179055565b5f546001600160a01b0316331461146b5760405162461bcd60e51b815260040161069b90612dc5565b6001600160a01b0381166114d15760405162461bcd60e51b815260206004820152602760248201527f536f6d6e69614167656e74733a206e6577206f776e6572206973207a65726f206044820152666164647265737360c81b606482015260840161069b565b5f80546001600160a01b0319166001600160a01b0392909216919091179055565b5f5f831180156115025750838311155b61154e5760405162461bcd60e51b815260206004820152601f60248201527f536f6d6e69614167656e74733a20696e76616c6964207468726573686f6c6400604482015260640161069b565b8360095461155c9190612dae565b34146115d05760405162461bcd60e51b815260206004820152603960248201527f536f6d6e69614167656e74733a20696e636f7272656374206465706f7369742060448201527f2875736520676574526571756573744465706f73697428292900000000000000606482015260840161069b565b600154604051632de5aaf760e01b8152600481018b90525f916001600160a01b031690632de5aaf7906024015f60405180830381865afa158015611616573d5f5f3e3d5ffd5b505050506040513d5f823e601f3d908101601f1916820160405261163d91908101906131b0565b90505f60025f9054906101000a90046001600160a01b03166001600160a01b0316634876aebc6040518163ffffffff1660e01b81526004015f60405180830381865afa15801561168f573d5f5f3e3d5ffd5b505050506040513d5f823e601f3d908101601f191682016040526116b69190810190613261565b905085815110156117195760405162461bcd60e51b815260206004820152602760248201527f536f6d6e69614167656e74733a206e6f7420656e6f75676820616374697665206044820152666d656d6265727360c81b606482015260840161069b565b60038054905f61172883612ef3565b9091555060025460405163b4615b8d60e01b815260048101899052602481018390529194505f916001600160a01b039091169063b4615b8d906044015f60405180830381865afa15801561177e573d5f5f3e3d5ffd5b505050506040513d5f823e601f3d908101601f191682016040526117a59190810190613261565b600b80549192505f916117b89087612e38565b815481106117c8576117c8612e4b565b905f5260205f2090600d020190505f81600501819055505f816006018190555084815f018190555033816001015f6101000a8154816001600160a01b0302191690836001600160a01b031602179055508b816002015f6101000a8154816001600160a01b0302191690836001600160a01b031602179055508a8160020160146101000a81548163ffffffff021916908360e01c02179055508181600301908051906020019061187892919061282c565b506007810187905542600882015560098101805460ff198116825587919061ffff19166101008360018111156118b0576118b0612a5e565b021790555034600a8201555f600b8201556020840151600c820180546001600160a01b0319166001600160a01b039092169190911790556009546040518e9187917fb62339927ed9948fd837358a55f5b9a824f7b047043faece66965593ed72688991611922918f908f908990613313565b60405180910390a35050505098975050505050505050565b600b80545f919061194b9084612e38565b8154811061195b5761195b612e4b565b5f91825260208220600d909102019150600982015460ff16600381111561198457611984612a5e565b146119e15760405162461bcd60e51b815260206004820152602760248201527f536f6d6e69614167656e74733a207265717565737420616c72656164792066696044820152661b985b1a5e995960ca1b606482015260840161069b565b60075481600801546119f39190612f0b565b4211611a515760405162461bcd60e51b815260206004820152602760248201527f536f6d6e69614167656e74733a2072657175657374206e6f742074696d6564206044820152661bdd5d081e595d60ca1b606482015260840161069b565b60098101805460ff1916600317905560058101545f90611a75906004840190611e2a565b60038301549091505f90611a899083612dae565b90505f611a9884600384611e4b565b9050611aa78460038484611f53565b5050505050565b60098101805460ff1916600317905560058101545f90611ad2906004840190611e2a565b60038301549091505f90611ae69083612dae565b90505f611af584600384611e4b565b9050611b048460038484611f53565b50505050565b600b80545f918291611b1c9086612e38565b81548110611b2c57611b2c612e4b565b905f5260205f2090600d0201905083815f015414611b4d575f915050610780565b600381015f5b8154811015611ba557846001600160a01b0316828281548110611b7857611b78612e4b565b5f918252602090912001546001600160a01b031603611b9d5760019350505050610780565b600101611b53565b505f95945050505050565b5f805b83811015611c0757826001600160a01b0316858281548110611bd757611bd7612e4b565b5f9182526020909120600690910201546001600160a01b031603611bff576001915050611c0c565b600101611bb3565b505f90505b9392505050565b600b80545f9190611c249085612e38565b81548110611c3457611c34612e4b565b5f91825260208220600d909102019150600982015460ff166003811115611c5d57611c5d612a5e565b14611caa5760405162461bcd60e51b815260206004820152601f60248201527f536f6d6e69614167656e74733a20616c72656164792066696e616c697a656400604482015260640161069b565b60098101805483919060ff19166001836003811115611ccb57611ccb612a5e565b02179055505f611ce2826004018360050154611e2a565b60038301549091505f90611cf69083612dae565b90505f611d04848684611e4b565b90506113ef84868484611f53565b5f805b83811015611c07576001858281548110611d3157611d31612e4b565b5f91825260209091206002600690920201015460ff166003811115611d5857611d58612a5e565b03611e22575f805b85811015611e0d576001878281548110611d7c57611d7c612e4b565b5f91825260209091206002600690920201015460ff166003811115611da357611da3612a5e565b03611e0557611df2878481548110611dbd57611dbd612e4b565b905f5260205f209060060201600101888381548110611dde57611dde612e4b565b905f5260205f2090600602016001016123bc565b15611e055781611e0181612ef3565b9250505b600101611d60565b50838110611e2057600192505050611c0c565b505b600101611d15565b5f815f03611e3957505f610780565b611c0c611e4684846123f2565b61248a565b5f3a600854611e5a9190612dae565b60028501549091506001600160a01b031615611c0c575f611e7b8284612f0b565b90505f611e8f866004018760050154612647565b600287015460085488546040519394505f936001600160a01b03841693600160a01b900460e01b91611ec99187908c908a90602401613355565b60408051601f198184030181529181526020820180516001600160e01b03166001600160e01b0319909416939093179092529051611f0791906133d6565b5f604051808303815f8787f1925050503d805f8114611f41576040519150601f19603f3d011682016040523d82523d5f602084013e611f46565b606091505b5050505050509392505050565b611f5d8183612f0b565b600b85015581156122fb57600a545f9061271090611f8690600160a01b900461ffff1685612dae565b611f9091906133ec565b600a549091505f9061271090611fb190600160b01b900461ffff1686612dae565b611fbb91906133ec565b90505f81611fc984876130da565b611fd391906130da565b60038801549091505f611fe682866133ec565b90505f611ff38383612dae565b611ffd90876130da565b90506120098185612f0b565b600c8b01549094506001600160a01b031661202e576120288585612f0b565b93505f94505b600a546001600160a01b0316612042575f93505b828515612057578061205381612ef3565b9150505b841561206b578061206781612ef3565b9150505b5f816001600160401b0381111561208457612084612ead565b6040519080825280602002602001820160405280156120ad578160200160208202803683370190505b5090505f826001600160401b038111156120c9576120c9612ead565b6040519080825280602002602001820160405280156120f2578160200160208202803683370190505b5090505f5b86811015612187578d600301818154811061211457612114612e4b565b905f5260205f20015f9054906101000a90046001600160a01b031683828151811061214157612141612e4b565b60200260200101906001600160a01b031690816001600160a01b0316815250508582828151811061217457612174612e4b565b60209081029190910101526001016120f7565b50855f6121948288612dae565b9050891561221957600c8f015484516001600160a01b03909116908590849081106121c1576121c1612e4b565b60200260200101906001600160a01b031690816001600160a01b031681525050898383815181106121f4576121f4612e4b565b60209081029190910101526122098a82612f0b565b90508161221581612ef3565b9250505b881561228d57600a5484516001600160a01b039091169085908490811061224257612242612e4b565b60200260200101906001600160a01b031690816001600160a01b0316815250508883838151811061227557612275612e4b565b602090810291909101015261228a8982612f0b565b90505b60025460405163efc908a160e01b81526001600160a01b039091169063efc908a19083906122c190889088906004016133ff565b5f604051808303818588803b1580156122d8575f5ffd5b505af11580156122ea573d5f5f3e3d5ffd5b505050505050505050505050505050505b83600a015484600b0154101561237c575f84600b015485600a015461232091906130da565b60018601546040519192505f916001600160a01b039091169083908381818185875af1925050503d805f8114612371576040519150601f19603f3d011682016040523d82523d5f602084013e612376565b606091505b50505050505b83546040517f65db1ef5b3bcd84fe4fb8dbbe1cadc9fe6643bb261ab2e01d65c281c3d466af2906123ae908690613457565b60405180910390a250505050565b5f816040516123cb9190613465565b6040518091039020836040516123e19190613465565b604051809103902014905092915050565b60605f826001600160401b0381111561240d5761240d612ead565b604051908082528060200260200182016040528015612436578160200160208202803683370190505b5090505f5b83811015610af15784818154811061245557612455612e4b565b905f5260205f2090600602016004015482828151811061247757612477612e4b565b602090810291909101015260010161243b565b5f81515f0361249a57505f919050565b81516001036124c457815f815181106124b5576124b5612e4b565b60200260200101519050919050565b60015b82518110156125a3575f8382815181106124e3576124e3612e4b565b602002602001015190505f8290505b5f81118015612523575081856125096001846130da565b8151811061251957612519612e4b565b6020026020010151115b1561257b57846125346001836130da565b8151811061254457612544612e4b565b602002602001015185828151811061255e5761255e612e4b565b602090810291909101015280612573816134d6565b9150506124f2565b8185828151811061258e5761258e612e4b565b602090810291909101015250506001016124c7565b505f600283516125b391906133ec565b9050600283516125c39190612e38565b5f0361261f5760028382815181106125dd576125dd612e4b565b6020026020010151846001846125f391906130da565b8151811061260357612603612e4b565b60200260200101516126159190612f0b565b611c0c91906133ec565b82818151811061263157612631612e4b565b6020026020010151915050919050565b50919050565b60605f805b838110156126aa57600185828154811061266857612668612e4b565b5f91825260209091206002600690920201015460ff16600381111561268f5761268f612a5e565b036126a2578161269e81612ef3565b9250505b60010161264c565b505f816001600160401b038111156126c4576126c4612ead565b6040519080825280602002602001820160405280156126f757816020015b60608152602001906001900390816126e25790505b5090505f805b8581101561282157600187828154811061271957612719612e4b565b5f91825260209091206002600690920201015460ff16600381111561274057612740612a5e565b036128195786818154811061275757612757612e4b565b905f5260205f209060060201600101805461277190612ec1565b80601f016020809104026020016040519081016040528092919081815260200182805461279d90612ec1565b80156127e85780601f106127bf576101008083540402835291602001916127e8565b820191905f5260205f20905b8154815290600101906020018083116127cb57829003601f168201915b50505050508383815181106127ff576127ff612e4b565b6020026020010181905250818061281590612ef3565b9250505b6001016126fd565b509095945050505050565b828054828255905f5260205f2090810192821561287f579160200282015b8281111561287f57825182546001600160a01b0319166001600160a01b0390911617825560209092019160019091019061284a565b5061288b92915061288f565b5090565b5b8082111561288b575f8155600101612890565b6001600160a01b03811681146128b7575f5ffd5b50565b5f602082840312156128ca575f5ffd5b8135611c0c816128a3565b5f602082840312156128e5575f5ffd5b5035919050565b803561ffff811681146128fd575f5ffd5b919050565b5f5f5f60608486031215612914575f5ffd5b61291d846128ec565b925061292b602085016128ec565b9150612939604085016128ec565b90509250925092565b80356001600160e01b0319811681146128fd575f5ffd5b5f5f83601f840112612969575f5ffd5b5081356001600160401b0381111561297f575f5ffd5b602083019150836020828501011115612996575f5ffd5b9250929050565b5f5f5f5f5f5f5f5f60e0898b0312156129b4575f5ffd5b8835975060208901356129c6816128a3565b96506129d460408a01612942565b955060608901356001600160401b038111156129ee575f5ffd5b6129fa8b828c01612959565b9096509450506080890135925060a0890135915060c089013560028110612a1f575f5ffd5b809150509295985092959890939650565b5f81518084528060208401602086015e5f602082860101526020601f19601f83011685010191505092915050565b634e487b7160e01b5f52602160045260245ffd5b60048110612a8257612a82612a5e565b9052565b5f602082016020835280845180835260408501915060408160051b8601019250602086015f5b82811015612b2e57868503603f19018452815180516001600160a01b0316865260208082015160c091880182905290612ae790880182612a30565b90506040820151612afb6040890182612a72565b50606082810151908801526080808301519088015260a09182015191909601526020938401939190910190600101612aac565b50929695505050505050565b60028110612a8257612a82612a5e565b8d81526001600160a01b038d811660208301528c1660408201526001600160e01b03198b166060820152608081018a905260a0810189905260c0810188905260e081018790526101a08101612ba3610100830188612a72565b612bb1610120830187612b3a565b6101408201949094526101608101929092526001600160a01b0316610180909101529a9950505050505050505050565b5f5f5f5f5f60808688031215612bf5575f5ffd5b853594506020860135612c07816128a3565b9350612c1560408701612942565b925060608601356001600160401b03811115612c2f575f5ffd5b612c3b88828901612959565b969995985093965092949392505050565b5f8151808452602084019350602083015f5b82811015612c855781516001600160a01b0316865260209586019590910190600101612c5e565b5093949350505050565b6001600160a01b038d811682528c1660208201526001600160e01b03198b166040820152610180606082018190525f90612ccb9083018c612c4c565b90508960808301528860a0830152612ce660c0830189612a72565b8660e0830152612cfa610100830187612b3a565b6101208201949094526101408101929092526001600160a01b0316610160909101529998505050505050505050565b5f5f5f5f5f5f60a08789031215612d3e575f5ffd5b8635955060208701356001600160401b03811115612d5a575f5ffd5b612d6689828a01612959565b909650945050604087013592506060870135915060808701358015158114612d8c575f5ffd5b809150509295509295509295565b634e487b7160e01b5f52601160045260245ffd5b808202811582820484141761078057610780612d9a565b60208082526025908201527f536f6d6e69614167656e74733a2063616c6c6572206973206e6f74207468652060408201526437bbb732b960d91b606082015260800190565b61ffff818116838216019081111561078057610780612d9a565b634e487b7160e01b5f52601260045260245ffd5b5f82612e4657612e46612e24565b500690565b634e487b7160e01b5f52603260045260245ffd5b6020808252602e908201527f536f6d6e69614167656e74733a2072657175657374206e6f7420666f756e642060408201526d37b91037bb32b93bb934ba3a32b760911b606082015260800190565b634e487b7160e01b5f52604160045260245ffd5b600181811c90821680612ed557607f821691505b60208210810361264157634e487b7160e01b5f52602260045260245ffd5b5f60018201612f0457612f04612d9a565b5060010190565b8082018082111561078057610780612d9a565b601f821115612f6257805f5260205f20601f840160051c81016020851015612f435750805b601f840160051c820191505b81811015611aa7575f8155600101612f4f565b505050565b6001600160401b03831115612f7e57612f7e612ead565b612f9283612f8c8354612ec1565b83612f1e565b5f601f841160018114612fc3575f8515612fac5750838201355b5f19600387901b1c1916600186901b178355611aa7565b5f83815260208120601f198716915b82811015612ff25786850135825560209485019460019092019101612fd2565b508682101561300e575f1960f88860031b161c19848701351681555b505060018560011b0183555050505050565b81516001600160401b0381111561303957613039612ead565b61304d816130478454612ec1565b84612f1e565b6020601f82116001811461307f575f83156130685750848201515b5f19600385901b1c1916600184901b178455611aa7565b5f84815260208120601f198516915b828110156130ae578785015182556020948501946001909201910161308e565b50848210156130cb57868401515f19600387901b60f8161c191681555b50505050600190811b01905550565b8181038181111561078057610780612d9a565b604051608081016001600160401b038111828210171561310f5761310f612ead565b60405290565b604051601f8201601f191681016001600160401b038111828210171561313d5761313d612ead565b604052919050565b5f82601f830112613154575f5ffd5b81516001600160401b0381111561316d5761316d612ead565b613180601f8201601f1916602001613115565b818152846020838601011115613194575f5ffd5b8160208501602083015e5f918101602001919091529392505050565b5f602082840312156131c0575f5ffd5b81516001600160401b038111156131d5575f5ffd5b8201608081850312156131e6575f5ffd5b6131ee6130ed565b815181526020820151613200816128a3565b602082015260408201516001600160401b0381111561321d575f5ffd5b61322986828501613145565b60408301525060608201516001600160401b03811115613247575f5ffd5b61325386828501613145565b606083015250949350505050565b5f60208284031215613271575f5ffd5b81516001600160401b03811115613286575f5ffd5b8201601f81018413613296575f5ffd5b80516001600160401b038111156132af576132af612ead565b8060051b6132bf60208201613115565b918252602081840181019290810190878411156132da575f5ffd5b6020850194505b8385101561330857845192506132f6836128a3565b828252602094850194909101906132e1565b979650505050505050565b84815260606020820152826060820152828460808301375f608084830101525f601f19601f850116820160808382030160408401526133086080820185612c4c565b5f608082018683526080602084015280865180835260a08501915060a08160051b8601019250602088015f5b828110156133b257609f1987860301845261339d858351612a30565b94506020938401939190910190600101613381565b50505050809150506133c76040830185612a72565b82606083015295945050505050565b5f82518060208501845e5f920191825250919050565b5f826133fa576133fa612e24565b500490565b604081525f6134116040830185612c4c565b82810360208401528084518083526020830191506020860192505f5b8181101561344b57835183526020938401939092019160010161342d565b50909695505050505050565b602081016107808284612a72565b5f5f835461347281612ec1565b600182168015613489576001811461349e576134cb565b60ff19831686528115158202860193506134cb565b865f5260205f205f5b838110156134c3578154888201526001909101906020016134a7565b505081860193505b509195945050505050565b5f816134e4576134e4612d9a565b505f19019056fea2646970667358221220f5d6cf267069041a99817f398cac7f3abbd45449b3f73d9353be8516d1dedd3664736f6c634300081c0033",
  "linkReferences": {},
  "deployedLinkReferences": {},
  "immutableReferences": {},
  "inputSourceName": "project/contracts/SomniaAgents.sol",
  "buildInfoId": "solc-0_8_28-76a340f5b0731a83b89a2433ff596260cb195269"
}